:020000040000FA
:0400000055EF00F0C8
:100008005982FACF03F0FBCF04F0D9CF05F0DACF4D
:1000180006F0F2AC12EF00F014EF00F04BEF00F036
:100028009DA019EF00F01BEF00F026EF00F09EA056
:1000380020EF00F022EF00F026EF00F0F9EC08F0D6
:100048004BEF00F09DA82BEF00F02DEF00F037EFFD
:1000580000F09EA832EF00F034EF00F037EF00F028
:100068009E984BEF00F09DAA3CEF00F03EEF00F0A9
:100078004BEF00F09EAA43EF00F045EF00F04BEF86
:1000880000F0AE5063EC06F09E9A4BEF00F006C00D
:10009800DAFF05C0D9FF04C0FBFF03C0FAFF59927D
:1000A800110051EF08F081B05CEF00F05EEF00F056
:1000B8009FEF00F0020E526E040E516EBA0EE82E3B
:1000C800FED7512EFCD7522EFAD700F000F081B09F
:1000D80070EF00F072EF00F09FEF00F00001A25106
:1000E800D8B479EF00F07BEF00F08EEF00F0010E4E
:1000F800AB25076E086A000E0822000E0A6E180E5D
:10010800096E0BEC06F007500001AB6FB1EC05F07F
:100118009FEF00F0010EAE25076E086A000E082258
:10012800000E0A6E180E096E0BEC06F0075000015F
:10013800AE6F57EC05F081B2A4EF00F0A6EF00F027
:10014800E7EF00F0020E526E040E516EBA0EE82E62
:10015800FED7512EFCD7522EFAD700F000F081B20C
:10016800B8EF00F0BAEF00F0E7EF00F00001A2519D
:10017800D8B4C1EF00F0C3EF00F0D6EF00F0010EE5
:10018800AA25076E086A000E0822000E0A6E3C0EA9
:10019800096E0BEC06F007500001AA6FB1EC05F0F0
:1001A800E7EF00F0010EAD25076E086A000E082281
:1001B800000E0A6E3C0E096E0BEC06F007500001AB
:1001C800AD6F57EC05F081B4ECEF00F0EEEF00F006
:1001D80082EF01F0640E00019A27000E9B23020EA5
:1001E800526E040E516EBA0EE82EFED7512EFCD771
:1001F800522EFAD700F000F0E80E00019A5D030EC7
:100208009B59D8A00AEF01F00CEF01F076EF01F04E
:10021800A751D8A412EF01F014EF01F0A1EF01F0FB
:10022800010EA26FB1EC05F066EF01F081B01FEF8F
:1002380001F021EF01F040EF01F0020E526E040EC2
:10024800516EBA0EE82EFED7512EFCD7522EFAD791
:1002580000F000F0010E0001AB25076E086A000EE1
:100268000822000E0A6E180E096E0BEC06F00750F5
:100278000001AB6FB1EC05F081B245EF01F047EF3B
:1002880001F066EF01F0020E526E040E516EBA0EC6
:10029800E82EFED7512EFCD7522EFAD700F000F0E8
:1002A800010E0001AA25076E086A000E0822000E3A
:1002B8000A6E3C0E096E0BEC06F007500001AA6F9F
:1002C80016EF01F081A46BEF01F06DEF01F01AEF6A
:1002D80001F0000E0001A26F010EA96F57EC05F0A6
:1002E800A1EF01F0A751D8B47CEF01F07EEF01F047
:1002F800A1EF01F013EC09F0A1EF01F0E80E000105
:100308009A5D030E9B59D8B08CEF01F08EEF01F087
:100318009DEF01F0A32B050EA319D8A496EF01F0C9
:1003280098EF01F09DEF01F0B2EC06F0000E00012D
:10033800A36F000E9B6F000E9A6F1200000E000153
:10034800B46F000EB36F000EB86F1F0EB76F4AEF91
:1003580002F0000E0001B16F000EB06F000EB66F14
:10036800000EB56F000EB26F000EBA6F070EB96FB0
:10037800B3514724496EB45148204A6E49C0F6FF2C
:100388004AC0F7FF000EF86E0F0EF76403D008009E
:10039800F55005D0F6CFE1FFF7CFE2FFE7504B6EFF
:1003A8004B50080DF90EF3244C6EF70EF4204D6EE9
:1003B8000001B0514C26B1514D224CC0F6FF4DC042
:1003C800F7FFF86A0800F5CF4EF0B9C04FF0010EFC
:1003D800506E4F2AF2EF01F0D89050364F2EF0EFC2
:1003E80001F050504E140009D8B4FDEF01F0FFEFB2
:1003F80001F010EF02F00001B9510708496E010E33
:100408004A6E492A0AEF02F0D8904A36492E08EF78
:1004180002F04A500001B2130001B907D8A0BA0788
:10042800BABF1BEF02F019EF02F0BCEF01F0B8BF42
:1004380022EF02F020EF02F024EF02F03FEF02F08B
:10044800B751600FD96EDA6AB2C0DFFFB707D8A01C
:10045800B807B04BB12BB54BB62BB6BF3DEF02F08A
:10046800B65109E1080EB55DD8A03DEF02F03FEFA7
:1004780002F0B6EF01F0B34BB42BB8BF48EF02F06F
:1004880046EF02F04AEF02F069EF02F0B351472459
:10049800496EB45148204A6E49C0F6FF4AC0F7FF7A
:1004A800000EF86E0F0EF76403D00800F55005D063
:1004B800F6CFE1FFF7CFE2FFE7500009D8A467EFD6
:1004C80002F069EF02F0ADEF01F06CEC02F01200FF
:1004D80020EE1FF01F0EDE6AE806FDE2000E466EF3
:1004E800000E456E45C007F046C008F0000E0A6EC3
:1004F800080E096EDBEC03F007C03FF008C040F0BF
:10050800000E426E000E416E4550600FD96EDA6AD9
:10051800DF501C6E41C01DF0010E1E6E1D2A97EFA4
:1005280002F0D8901E361D2E95EF02F01E501C14B6
:100538000009D8B4A2EF02F0A4EF02F0BEEF02F077
:100548003F50080D4550F35C1C6E070E1C26010E2B
:100558001D6E1C2AB2EF02F0D8901D361C2EB0EF8B
:1005680002F03F50080DF3501F0F4124D96EDA6A8C
:100578001D50DF12414A422A42BECCEF02F04250DF
:1005880009E1080E415CD8A0CCEF02F0CEEF02F0F2
:1005980088EF02F0454A462A46BEDCEF02F0465094
:1005A80009E1200E455CD8A0DCEF02F0DEEF02F096
:1005B80076EF02F0000E446E010E436E43C00FF05A
:1005C80044C010F043C01CF0FF0E1C261C501F0F27
:1005D800D96EDA6ADF50116E3DEC04F0434A442AC2
:1005E80044BE00EF03F0445009E1210E435CD8A05B
:1005F80000EF03F002EF03F0E2EF02F01200C00E8A
:100608000C14116EFF0E0D14126E000E0E14136EE4
:10061800000E0F14146E000EF2BE010E156E000EC1
:10062800186E010E176E11500C180FE112500D18AC
:100638000CE113500E1809E114500F18D8B427EF25
:1006480003F029EF03F02BEF03F077EF03F00CC072
:1006580007F00DC008F00EC009F00FC00AF037EC23
:1006680008F00EC0F8FF0DC0F7FF0CC0F6FF000E33
:10067800166E6EEF03F0000E196E10501824D96E26
:10068800DA6ADF50F56E3F0E1918D8A44EEF03F062
:1006980050EF03F053EF03F00C0055EF03F00D009B
:1006A800182A192A3F0E19645CEF03F05EEF03F075
:1006B80041EF03F0A68EA69CA684F29E550EA76E67
:1006C800AA0EA76EA682A69415B002D0F29E01D0FB
:1006D800F28E162A1750165CD8A075EF03F077EF44
:1006E80003F03FEF03F01200ECEC08F01DEC08F00B
:1006F80001EC08F0FCEC04F030EC09F09396F28E73
:10070800F28C57EC05F057EC00F065EC07F00001AF
:10071800A451D8B492EF03F094EF03F085EF03F0FF
:10072800480E8019D8A49BEF03F09DEF03F085EFE6
:1007380003F04D0E8319D8A4A4EF03F0A6EF03F03D
:1007480085EF03F03B0E8619D8A4ADEF03F0AFEFA9
:1007580003F085EF03F081510A0DF3508225F00F65
:10076800F56F84510A0DF3508525F00FF66F180EBA
:10077800F561C1EF03F0C3EF03F0D7EF03F03C0ED0
:10078800F661C9EF03F0CBEF03F0D7EF03F0000EEB
:10079800A46FF5C0AEF0F6C0ADF057EC05F0B2ECC2
:1007A80006F085EF03F085EF03F055EF00F0000E3B
:1007B8000C6E0ABEE4EF03F0E2EF03F0EAEF03F099
:1007C800096C0A1ED8B00A2A010E0C6E08BEF1EF99
:1007D80003F0EFEF03F0F7EF03F0076C081ED8B053
:1007E800082A010E0C1A000E0E6E000E0D6E09502E
:1007F8000A10D8B402EF04F004EF04F02CEF04F070
:10080800010E0B6E0CEF04F0D89009360A360B2A4D
:100818000AAE11EF04F013EF04F008EF04F0D890DB
:100828000D360E360950075C0A500858D8A01FEF3D
:1008380004F021EF04F026EF04F00950075E0A5097
:10084800085A0D80D8900A3209320B2E13EF04F0A3
:100858000C50D8B432EF04F034EF04F038EF04F061
:100868000D6C0E1ED8B00E2A0DC007F00EC008F091
:100878001200FF0E0F24076EFF0E1020086E000EE8
:100888000A6E080E096EDBEC03F007C016F008C00C
:1008980017F016C012F017C013F0D890123613369E
:1008A800D89012361336D8901236133612C014F078
:1008B80013C015F08B94000E196E000E186E1650AA
:1008C800181807E117501918D8A46DEF04F06FEF46
:1008D80004F085EF04F014500F5C126E1550105898
:1008E800136E12C013F0126A115012101A6E1350C0
:1008F8001B6E1B50DFEC08F01A50DFEC08F08BEF92
:1009080004F0000EDFEC08F0000EDFEC08F0184AE7
:10091800192A19BE99EF04F0195009E1040E185C60
:10092800D8A099EF04F09BEF04F063EF04F08B84F8
:100938001200000E0001BC6F3C0EBB6F000EBE6FB4
:10094800000EBD6FF0EF04F081B4ADEF04F0AFEF2F
:1009580004F0C9EF04F0020E526E040E516EBA0E86
:10096800E82EFED7512EFCD7522EFAD700F000F011
:1009780081B4C1EF04F0C3EF04F0C9EF04F001EC57
:1009880008F013EC09F0FBEF04F0F90E476EFF0EC8
:10099800486EA2EC01F0010E156EF40E146EF1EC27
:1009A80006F0060E526E130E516EAE0EE82EFED7EE
:1009B800512EFCD7522EFAD701EC08F0060E526ED3
:1009C800130E516EAE0EE82EFED7512EFCD7522EC6
:1009D800FAD70001BD4BBE2BBB51BD5DBC51BE5902
:1009E800D8A0F9EF04F0FBEF04F0A8EF04F0120030
:1009F800800E076E1F0E086E000E096E000E0A6E3E
:100A080003EC09F00001AE6F810E076E1F0E086E31
:100A1800000E096E000E0A6E03EC09F00001AD6FBE
:100A2800820E076E1F0E086E000E096E000E0A6E0B
:100A380003EC09F00001AB6F830E076E1F0E086E02
:100A4800000E096E000E0A6E03EC09F00001AA6F91
:100A5800840E076E1F0E086E000E096E000E0A6ED9
:100A680003EC09F00009D8A43CEF05F03FEF05F0CE
:100A7800010E40EF05F0000E0001A96F170EAE65DC
:100A880048EF05F04AEF05F04CEF05F0000EAE6FA9
:100A98003B0EAD6552EF05F054EF05F056EF05F04B
:100AA800000EAD6F1200AEC007F0086A000E0A6EA5
:100AB8000A0E096EDBEC03F00750300F0001C06F1F
:100AC800AEC007F0086A000E0A6E0A0E096E0BEC3B
:100AD80006F00750300F0001C16FADC007F0086A7B
:100AE800000E0A6E0A0E096EDBEC03F00750300F99
:100AF8000001C26FADC007F0086A000E0A6E0A0E48
:100B0800096E0BEC06F00750300F0001C36F000EA2
:100B1800C46F000EC66F000EC56FC551C00FD96EE9
:100B2800DA6AC551BB0FE16EE26ADFCFE7FFC54B5A
:100B3800C62BC6BFA9EF05F0C65109E1050EC55D74
:100B4800D8A0A9EF05F0ABEF05F091EF05F0BB0ECB
:100B5800476E486AA2EC01F01200ABC007F0086AC1
:100B6800000E0A6E0A0E096EDBEC03F00750300F18
:100B78000001C06FABC007F0086A000E0A6E0A0ECB
:100B8800096E0BEC06F00750300F0001C16FAAC0C8
:100B980007F0086A000E0A6E0A0E096EDBEC03F015
:100BA8000750300F0001C26FAAC007F0086A000E94
:100BB8000A6E0A0E096E0BEC06F00750300F0001A2
:100BC800C36F000EC46F000EC66F000EC56FC5510F
:100BD800C00FD96EDA6AC551BB0FE16EE26ADFCF8A
:100BE800E7FFC54BC62BC6BF03EF06F0C65109E1A8
:100BF800050EC55DD8A003EF06F005EF06F0EBEF94
:100C080005F0BB0E476E486AA2EC01F01200000E18
:100C18000C6E08BE14EF06F012EF06F01AEF06F09D
:100C2800076C081ED8B0082A010E0C6E0ABE21EF08
:100C380006F01FEF06F025EF06F0096C0A1ED8B083
:100C48000A2A09500A10D8B42CEF06F02EEF06F045
:100C580052EF06F0010E0B6E36EF06F0D89009360B
:100C68000A360B2A0AAE3BEF06F03DEF06F032EFEC
:100C780006F00950075C0A500858D8A046EF06F05D
:100C880048EF06F04CEF06F00950075E0A50085A84
:100C9800D8900A3209320B2E3DEF06F00C50D8B42A
:100CA80058EF06F05AEF06F05EEF06F0076C081EE4
:100CB800D8B0082A07C007F008C008F01200016E73
:100CC800480E0118D8A46BEF06F06DEF06F07EEF22
:100CD80006F05350D8A473EF06F075EF06F07EEFD8
:100CE80006F05350800FD96EDA6A480EDF6E532A29
:100CF800B1EF06F05350D8B484EF06F086EF06F053
:100D080096EF06F0070E53608CEF06F08EEF06F0B4
:100D180096EF06F05350800FD96EDA6A01C0DFFFF4
:100D28007BEF06F0070E5318D8A49DEF06F09FEF4F
:100D380006F0B1EF06F03B0E0118D8A4A6EF06F0B6
:100D4800A8EF06F0B1EF06F03B0E0001866F000E2B
:100D5800536E010EA46FB1EF06F01200800E000171
:100D6800F06F1F0EF16F000EF26F000EF36F000EA2
:100D7800F46FF451B00FD96EDA6AF451F025076EAA
:100D8800000EF121086E000EF221096E000EF3210B
:100D98000A6E03EC09F0DF6E0001F42B3F0EF465D8
:100DA800D8EF06F0DAEF06F0BDEF06F0AEC0B0F00F
:100DB800ADC0B1F0ABC0B2F0AAC0B3F0A9C0B4F0F6
:100DC800F0C00CF0F1C00DF0F2C00EF0F3C00FF05F
:100DD800B00E106E03EC03F0120014C007F015C03B
:100DE80008F0030E0A6EE80E096EA8EC08F007C0BA
:100DF8000DF008C00EF0000E106EF40E0F6E2BEC06
:100E080007F00DC016F00EC017F0000E196E000E98
:100E1800186E1FEF07F08A86000E086E7A0E076EAE
:100E28007FEC08F08A96000E086E7A0E076E7FEC4B
:100E380008F0184A192A1650185C17501958D8A0E3
:100E480028EF07F02AEF07F00FEF07F01200000E67
:100E5800136E000E126E0F501010D8B436EF07F054
:100E680038EF07F060EF07F0010E116E40EF07F062
:100E7800D8900F361036112A10AE45EF07F047EF1D
:100E880007F03CEF07F0D890123613360F500D5C80
:100E980010500E58D8A053EF07F055EF07F05AEF4F
:100EA80007F00F500D5E10500E5A1280D890103275
:100EB8000F32112E47EF07F012C00DF013C00EF0DD
:100EC80012000001A951D8B46CEF07F06EEF07F0DB
:100ED8008DEF07F0A751D8A474EF07F076EF07F06D
:100EE8008DEF07F0AB51AE19D8A47DEF07F07FEF77
:100EF80007F08DEF07F0AA51AD19D8A486EF07F0D7
:100F080088EF07F08DEF07F09DEC04F0010E00016B
:100F1800A76F12000B6E08500BC009F00A6A09C0CF
:100F28000AF0096A09100C6E0A500D6E8B94000EB7
:100F38000F6E000E0E6E0D50DFEC08F00C50DFEC5B
:100F480008F00E4A0F2A0FBEB3EF07F00F5009E161
:100F5800040E0E5CD8A0B3EF07F0B5EF07F09FEFD3
:100F680007F08B8412009D9A9D98000E076E000E64
:100F7800086E23EC09F0000E076E000E086E28ECD0
:100F880009F0080EB86E900EAB6E240EAC6ECF0E44
:100F9800AF6E000EB06E000E586E000E576E080E43
:100FA800566E000E556E000E546E000E0001AF6FA7
:100FB8009D8A12000001AC2B3B0EAC65E6EF07F0F2
:100FC800E8EF07F000EF08F0000EAC6FAD2B3B0E1A
:100FD800AD65F1EF07F0F3EF07F000EF08F0000E52
:100FE800AD6FAE2B170EAE65FCEF07F0FEEF07F006
:100FF80000EF08F0000EAE6F1200000E486E000EF3
:10100800476E4750600FD96EDA6ADF6A474A482A46
:1010180048BE18EF08F0485009E11F0E475CD8A0F9
:1010280018EF08F01AEF08F005EF08F06CEC02F082
:101038001200000E086E090E8EEC07F0010E086E05
:101048000A0E8EEC07F0070E086E0B0E8EEC07F0FA
:10105800010E086E0C0E8EEC07F0000E086E0F0ED7
:101068008EEC07F01200000EF2BE010E0B6E09C0E6
:10107800F8FF08C0F7FF07C0F6FFA68EA69CA68457
:10108800A688F29E550EA76EAA0EA76EA6820BB072
:1010980002D0F29E01D0F28E120001EE00F0200E76
:1010A800EE6AE806FDE100EE60F0500EEE6AE80632
:1010B800FDE1586A576A566A556A546A536A5990E4
:1010C8005992000178EF03F00001F751F811D8B4F4
:1010D80070EF08F072EF08F07EEF08F002D87EEFAC
:1010E80008F00500FA6EF751FD6EF851FE6EFF6AC2
:1010F800FA5012001200000E0A6E000E096E88EFF8
:1011080008F00000094A0A2A0750095C08500A58E2
:10111800D8A091EF08F093EF08F085EF08F01200DF
:10112800CDA499EF08F09BEF08F0A3EF08F0CD905D
:101138000250CF6E01C0CEFFCD80A7EF08F002505D
:10114800CF6E01C0CEFF120007500902F3CF0BF09B
:10115800F4CF0CF007500A02F3500C26085009028D
:10116800F3500C260BC007F00CC008F01200800EDC
:10117800CF6E000ECE6ECECFA0F0CFCFA1F09E9056
:101188009D805A0E076E120E086E19EC09F00B0EB0
:10119800CD6E1200000E896E000E8A6E2C0E8B6EBC
:1011A80092689368930E946E0A0E7F6E1F0E7E6E81
:1011B8007C68F19E1200076EC69E07C0C9FFC7A0D3
:1011C800E8EF08F0EAEF08F0E3EF08F0C950120082
:1011D80032EC09F0CEEC08F01EEC09F00CEC09F04A
:1011E800BBEC08F0B7EC07F012009E90A0C001F02D
:1011F800A1C002F094EC08F068EC08F0120009C0F5
:10120800F8FF08C0F7FF07C0F6FF0800F550120006
:10121800C00EC76E300EC66E000EC86E1200000EED
:101228000001A76F000EA96F120007C0F7F008C0F1
:10123800F8F012006A0ED36E000E9B6E120007C003
:10124800FBF008C0FCF0120007C0F9F008C0FAF083
:101258001200DEEC07F01200CD801200D09E1200C2
:10F7F8000000000000000000007E8195B1B19581F5
:10F808007E7EFFEBCFCFEBFF7E0E1F3F7E3F1F0EAE
:10F8180000081C3E7F3E1C080018BAFFFFFFBA18FC
:10F828000010B8FCFFFCB810000000183C3C1800A1
:10F8380000FFFFE7C3C3E7FFFF003C664242663CA8
:10F8480000FFC399BDBD99C3FF70F88888FD7F0785
:10F858000F004E5FF1F15F4E00C0E0FF7F05050726
:10F8680007C0FF7F0505657F3F995A3CE7E73C5A8B
:10F87800997F3E3E1C1C08080008081C1C3E3E7F61
:10F8880000002466FFFF662400005F5F00005F5FE2
:10F8980000060F097F7F017F7F40DABFA5FD59036E
:10F8A8000200707070707070008094B6FFFFB6949C
:10F8B800800004067F7F0604000010307F7F301030
:10F8C800000808082A3E1C0800081C3E2A080808E8
:10F8D800003C3C202020202000081C3E08083E1C3C
:10F8E8000830383C3E3E3C3830060E1E3E3E1E0E6A
:10F8F80006000000000000000000065F5F06000030
:10F90800000007070007070000147F7F147F7F149B
:10F9180000242E6B6B3A120000466630180C6662A3
:10F9280000307A4F5D377A48000407030000000072
:10F9380000001C3E63410000000041633E1C0000C3
:10F9480000082A3E1C1C3E2A0808083E3E080800FB
:10F95800000080E0600000000008080808080800AF
:10F968000000006060000000006030180C06030111
:10F97800003E7F71594D7F3E0040427F7F404000EE
:10F9880000627359496F660000226349497F360057
:10F9980000181C16537F7F5000276745457D3900A6
:10F9A800003C7E4B4979300000030371790F070052
:10F9B80000367F49497F360000064F49693F1E00DF
:10F9C8000000006666000000000080E66600000097
:10F9D80000081C3663410000002424242424240049
:10F9E80000004163361C080000020351590F06004D
:10F9F800003E7F415D5D1F1E007C7E13137E7C00F0
:10FA080000417F7F49497F36001C3E6341416322A4
:10FA180000417F7F41633E1C00417F7F495D416318
:10FA280000417F7F491D0103001C3E6341517372F1
:10FA3800007F7F08087F7F000000417F7F41000032
:10FA480000307040417F3F0100417F7F081C776391
:10FA580000417F7F4140607000007F0E1C0E7F00D8
:10FA6800007F7F060C187F7F001C3E6341633E1CAD
:10FA780000417F7F49090F06001E3F21717F5E000C
:10FA880000417F7F09197F6600266F4D5973320048
:10FA98000003417F7F410300007F7F40407F7F005C
:10FAA800001F3F60603F1F00007F7F3018307F7F5E
:10FAB8000043673C183C674300074F78784F0700BE
:10FAC80000476371594D677300007F7F4141000013
:10FAD800000103060C183060000041417F7F0000E0
:10FAE80000080C0603060C08008080808080808057
:10FAF800800000030704000000207454543C784040
:10FB080000417F3F4848783000387C44446C2800E6
:10FB180000307848493F7F4000387C54545C1800D6
:10FB280000487E7F490302000098BCA4A4F87C0426
:10FB380000417F7F08047C780000447D7D40000000
:10FB48000060E08080FD7D0000417F7F10386C44BC
:10FB58000000417F7F400000007C7C18381C7C78C6
:10FB6800007C7C04047C780000387C44447C3800A9
:10FB78000084FCF8A4243C1800183C24A4F8FC8455
:10FB880000447C784C041C1800485C5454742400CD
:10FB98000000043E7F442400003C7C40403C7C4004
:10FBA800001C3C60603C1C00003C7C7038707C3C55
:10FBB80000446C3810386C44009CBCA0A0FC7C004D
:10FBC800004C64745C4C64000008083E77414100B6
:10FBD8000000000077770000004141773E080800E8
:10FBE80000020301030203010070784C464C787050
:10FBF800000E9F91B1FB4A00003A7A40407A7A4061
:10FC080000387C54555D19000002237555557D7BDD
:10FC180042217554547D794000217555547C7840B3
:10FC280000207457577C784000183CA4A4E4400096
:10FC380000023B7D55555D1B02397D54545D19000A
:10FC480000397D55545C18000001457C7C41010059
:10FC5800000203457D7D43020001457D7C40000094
:10FC680000797D1612167D790070782B2B7870003C
:10FC780000447C7C5555450000207454547C7C54C9
:10FC8800547C7E0B097F7F4900327B49497B3200D7
:10FC980000327A48487A320000327A4A487830008E
:10FCA800003A7B41417B7A40003A7A42407878407A
:10FCB800009ABAA0A0FA7A000001193C66663C19BD
:10FCC800013D7D40407D3D0000183C24E7E72424A9
:10FCD80000687E7F49436620002B2FFCFC2F2B00F9
:10FCE80000FFFF09092FF6F8A040C088FE7F09032E
:10FCF80002207454557D79400000447D7D41000008
:10FD0800003078484A7A320000387840427A7A409F
:10FD1800007A7A0A0A7A7000007D7D19317D7D00AB
:10FD28000000262F292F2F280000262F292F2600F4
:10FD38000030784D45602000003838080808080071
:10FD48000008080808383800004F6F3018CCEEBBA0
:10FD5800914F6F30186C76FBF90000007B7B000038
:10FD680000081C3622081C362222361C0822361CA3
:10FD780008AA005500AA005500AA55AA55AA55AACE
:10FD880055DDFFAA77DDAAFF77000000FFFF00001E
:10FD980000101010FFFF000000141414FFFF0000F3
:10FDA800001010FFFF00FFFF001010F0F010F0F03F
:10FDB80000141414FCFC0000001414F7F700FFFFF3
:10FDC800000000FFFF00FFFF001414F4F404FCFC23
:10FDD8000014141717101F1F0010101F1F101F1FCB
:10FDE800001414141F1F000000101010F0F0000081
:10FDF800000000001F1F1010101010101F1F1010FF
:10FE080010101010F0F0101010000000FFFF10107C
:10FE1800101010101010101010101010FFFF1010FC
:10FE280010000000FFFF1414140000FFFF00FFFF84
:10FE38001000001F1F101717140000FCFC04F4F436
:10FE48001414141717101717141414F4F404F4F4F2
:10FE5800140000FFFF00F7F71414141414141414FA
:10FE6800141414F7F700F7F71414141417171414CC
:10FE78001410101F1F101F1F10141414F4F414145E
:10FE8800141010F0F010F0F01000001F1F101F1FCA
:10FE9800100000001F1F141414000000FCFC1414B0
:10FEA800140000F0F010F0F0101010FFFF10FFFF2A
:10FEB80010141414FFFF1414141010101F1F000046
:10FEC80000000000F0F0101010FFFFFFFFFFFFFF21
:10FED800FFF0F0F0F0F0F0F0F0FFFFFFFF0000009F
:10FEE8000000000000FFFFFFFF0F0F0F0F0F0F0FA5
:10FEF8000F387C446C386C4400FCFE2A2A3E1400FF
:10FF0800007E7E020206060000027E7E027E7E02DF
:10FF18000063775D4963630000387C447C3C0404DB
:10FF28000080FE7E20203E1E000406027E7C060223
:10FF38000099BDE7E7BD9900001C3E6B496B3E1C6C
:10FF4800004C7E7301737E4C0030784A4F7D390037
:10FF580000183C243C3C243C1898FC643C3E273D5B
:10FF6800181C3E6B49490000007E7F01017F7E001E
:10FF7800002A2A2A2A2A2A000044445F5F444400AF
:10FF88000040515B4E4440000040444E5B514000ED
:10FF980000000000FEFF01070660E080FF7F000010
:10FFA8000008086B6B080800002436123624361245
:10FFB8000000060F090F06000000000018180000D6
:10FFC800000000001010000000103070C0FFFF019A
:10FFD80001001F1F011F1E000000191D171200003D
:10FFE8000000003C3C3C3C00000000000000000019
:08FFF80000414C41524D000094
:020000040020DA
:08000000FFFFFFFFFFFFFFFF00
:020000040030CA
:0E000000FF081F1EFF0981FF0FC00FE00F4019
:00000001FF
