:020000040000FA
:040000004CEF00F0D1
:100008005982FACF02F0FBCF03F0D9CF04F0DACF50
:1000180005F0F2AA12EF00F014EF00F01FEF00F065
:10002800F2A419EF00F01BEF00F01FEF00F07AECDC
:1000380008F042EF00F09DA824EF00F026EF00F052
:1000480030EF00F09EA82BEF00F02DEF00F030EF1E
:1000580000F09E9842EF00F09DAA35EF00F037EFD0
:1000680000F042EF00F09EAA3CEF00F03EEF00F0F7
:1000780042EF00F0AE505FEC06F09E9A05C0DAFF42
:1000880004C0D9FF03C0FBFF02C0FAFF5992110058
:100098000BEF08F081B053EF00F055EF00F096EF4A
:1000A80000F0020E516E040E506EBA0EE82EFED706
:1000B800502EFCD7512EFAD700F000F081B067EF30
:1000C80000F069EF00F096EF00F00001A051D8B4FD
:1000D80070EF00F072EF00F085EF00F0010EA92537
:1000E800066E076A000E0722000E096E180E086ECB
:1000F80007EC06F006500001A96FADEC05F096EF8D
:1001080000F0010EAC25066E076A000E0722000EED
:10011800096E180E086E07EC06F006500001AC6F69
:1001280053EC05F081B29BEF00F09DEF00F0DEEF9D
:1001380000F0020E516E040E506EBA0EE82EFED775
:10014800502EFCD7512EFAD700F000F081B2AFEF55
:1001580000F0B1EF00F0DEEF00F00001A051D8B4DC
:10016800B8EF00F0BAEF00F0CDEF00F0010EA825CF
:10017800066E076A000E0722000E096E3C0E086E16
:1001880007EC06F006500001A86FADEC05F0DEEFB5
:1001980000F0010EAB25066E076A000E0722000E5E
:1001A800096E3C0E086E07EC06F006500001AB6FB6
:1001B80053EC05F081B4E3EF00F0E5EF00F079EFE0
:1001C80001F0640E00019A27000E9B23020E516E67
:1001D800040E506EBA0EE82EFED7502EFCD7512EC4
:1001E800FAD700F000F0E80E00019A5D030E9B5963
:1001F800D8A001EF01F003EF01F06DEF01F0A55178
:10020800D8A409EF01F00BEF01F098EF01F0010E0F
:10021800A06FADEC05F05DEF01F081B016EF01F0D5
:1002280018EF01F037EF01F0020E516E040E506E18
:10023800BA0EE82EFED7502EFCD7512EFAD700F072
:1002480000F0010E0001A925066E076A000E0722BC
:10025800000E096E180E086E07EC06F00650000135
:10026800A96FADEC05F081B23CEF01F03EEF01F073
:100278005DEF01F0020E516E040E506EBA0EE82EBC
:10028800FED7502EFCD7512EFAD700F000F0010E01
:100298000001A825066E076A000E0722000E096EE7
:1002A8003C0E086E07EC06F006500001A86F0DEF33
:1002B80001F081A462EF01F064EF01F011EF01F0A9
:1002C800000E0001A06F010EA76F53EC05F098EF28
:1002D80001F0A551D8B473EF01F075EF01F098EF74
:1002E80001F090EC08F098EF01F0E80E00019A5D3B
:1002F800030E9B59D8B083EF01F085EF01F094EF1E
:1003080001F0A12B050EA119D8A48DEF01F08FEFF4
:1003180001F094EF01F0AEEC06F0000E0001A16FC1
:10032800000E9B6F000E9A6F1200000E0001B36F53
:10033800000EB26F000EB76F1F0EB66F41EF02F0DE
:10034800000E0001B06F000EAF6F000EB56F000E0B
:10035800B46F000EB16F000EB96F070EB86FB251CF
:100368004624486EB3514720496E48C0F6FF49C03D
:10037800F7FF000EF86E0F0EF76403D00800F55073
:1003880005D0F6CFE1FFF7CFE2FFE7504A6E4A50BB
:10039800080DF90EF3244B6EF70EF4204C6E000195
:1003A800AF514B26B0514C224BC0F6FF4CC0F7FF63
:1003B800F86A0800F5CF4DF0B8C04EF0010E4F6E48
:1003C8004E2AE9EF01F0D8904F364E2EE7EF01F0B4
:1003D8004F504D140009D8B4F4EF01F0F6EF01F0D6
:1003E80007EF02F00001B8510708486E010E496E88
:1003F800482A01EF02F0D8904936482EFFEF01F065
:1004080049500001B1130001B807D8A0B907B9BF16
:1004180012EF02F010EF02F0B3EF01F0B7BF19EFDF
:1004280002F017EF02F01BEF02F036EF02F0B651C0
:10043800600FD96EDA6AB1C0DFFFB607D8A0B70778
:10044800AF4BB02BB44BB52BB5BF34EF02F0B55161
:1004580009E1080EB45DD8A034EF02F036EF02F0DF
:10046800ADEF01F0B24BB32BB7BF3FEF02F03DEF5A
:1004780002F041EF02F060EF02F0B2514624486EFC
:10048800B3514720496E48C0F6FF49C0F7FF000E38
:10049800F86E0F0EF76403D00800F55005D0F6CFBC
:1004A800E1FFF7CFE2FFE7500009D8A45EEF02F0C2
:1004B80060EF02F0A4EF01F063EC02F0120020EE0E
:1004C8001EF01F0EDE6AE806FDE2000E456E000E05
:1004D800446E44C006F045C007F0000E096E080ED1
:1004E800086E36EC04F006C03EF007C03FF0000E80
:1004F800416E000E406E4450600FD96EDA6ADF50CC
:100508001B6E40C01CF0010E1D6E1C2A8EEF02F0FF
:10051800D8901D361C2E8CEF02F01D501B140009BC
:10052800D8B499EF02F09BEF02F0B5EF02F03E501D
:10053800080D4450F35C1B6E070E1B26010E1C6E43
:100548001B2AA9EF02F0D8901C361B2EA7EF02F049
:100558003E50080DF3501E0F4024D96EDA6A1C5025
:10056800DF12404A412A41BEC3EF02F0415009E17F
:10057800080E405CD8A0C3EF02F0C5EF02F07FEF91
:1005880002F0444A452A45BED3EF02F0455009E13E
:10059800200E445CD8A0D3EF02F0D5EF02F06DEF47
:1005A80002F0000E436E010E426E42C00EF043C0D0
:1005B8000FF042C01BF0FF0E1B261B501E0FD96EFA
:1005C800DA6ADF50106E98EC04F0424A432A43BEC0
:1005D800F7EF02F0435009E1210E425CD8A0F7EF93
:1005E80002F0F9EF02F0D9EF02F01200C00E0B147E
:1005F800106EFF0E0C14116E000E0D14126E000E0C
:100608000E14136E000EF2BE010E146E000E176E5D
:10061800010E166E10500B180FE111500C180CE15A
:1006280012500D1809E113500E18D8B41EEF03F03C
:1006380020EF03F022EF03F06EEF03F00BC006F09B
:100648000CC007F00DC008F00EC009F0BFEC07F0B1
:100658000DC0F8FF0CC0F7FF0BC0F6FF000E156EBB
:1006680065EF03F0000E186E0F501724D96EDA6A82
:10067800DF50F56E3F0E1818D8A445EF03F047EF8A
:1006880003F04AEF03F00C004CEF03F00D00172ABB
:10069800182A3F0E186453EF03F055EF03F038EFB4
:1006A80003F0A68EA69CA684F29E550EA76EAA0EEF
:1006B800A76EA682A69414B002D0F29E01D0F28E44
:1006C800152A1650155CD8A06CEF03F06EEF03F0F6
:1006D80036EF03F01200000E0001BB6F3C0EBA6F3C
:1006E800000EBD6F000EBC6FC8EF03F081B47FEF42
:1006F80003F081EF03F09BEF03F0020E516E040E3E
:10070800506EBA0EE82EFED7502EFCD7512EFAD7CF
:1007180000F000F081B493EF03F095EF03F09BEF46
:1007280003F089EC07F090EC08F0D3EF03F0F90E32
:10073800466EFF0E476E99EC01F0010E076EF40E3F
:10074800066EF3EC07F0060E516E130E506EAE0EE9
:10075800E82EFED7502EFCD7512EFAD789EC07F099
:10076800000E076E000E066EF3EC07F0060E516ED3
:10077800130E506EAE0EE82EFED7502EFCD7512E1B
:10078800FAD70001BC4BBD2BBA51BC5DBB51BD595A
:10079800D8A0D1EF03F0D3EF03F07AEF03F0120003
:1007A80039EC08F0A5EC07F089EC07F0F8EC04F058
:1007B800ADEC08F0F28EF28C53EC05F04EEC00F044
:1007C800EDEC06F00001A251D8B4EDEF03F0EFEF25
:1007D80003F0E0EF03F0480E8019D8A4F6EF03F019
:1007E800F8EF03F0E0EF03F04D0E8319D8A4FFEF04
:1007F80003F001EF04F0E0EF03F03B0E8619D8A4F4
:1008080008EF04F00AEF04F0E0EF03F081510A0D5D
:10081800F3508225F00FF46F84510A0DF3508525AB
:10082800F00FF56F180EF4611CEF04F01EEF04F0E2
:1008380032EF04F03C0EF56124EF04F026EF04F0EB
:1008480032EF04F0000EA26FF4C0ACF0F5C0ABF0CC
:1008580053EC05F0AEEC06F0E0EF03F0E0EF03F048
:100868004CEF00F0000E0B6E09BE3FEF04F03DEFB9
:1008780004F045EF04F0086C091ED8B0092A010EEF
:100888000B6E07BE4CEF04F04AEF04F052EF04F091
:10089800066C071ED8B0072A010E0B1A000E0D6E43
:1008A800000E0C6E08500910D8B45DEF04F05FEF2D
:1008B80004F087EF04F0010E0A6E67EF04F0D89099
:1008C800083609360A2A09AE6CEF04F06EEF04F018
:1008D80063EF04F0D8900C360D360850065C0950CA
:1008E8000758D8A07AEF04F07CEF04F081EF04F009
:1008F8000850065E0950075A0C80D8900932083211
:100908000A2E6EEF04F00B50D8B48DEF04F08FEF81
:1009180004F093EF04F00C6C0D1ED8B00D2A0CC037
:1009280006F00DC007F01200FF0E0E24066EFF0E33
:100938000F20076E000E096E080E086E36EC04F0E4
:1009480006C015F007C016F015C011F016C012F059
:10095800D89011361236D89011361236D8901136F2
:10096800123611C013F012C014F08B94000E186EDA
:10097800000E176E1550171807E116501818D8A44E
:10098800C8EF04F0CAEF04F0E0EF04F013500E5C77
:10099800116E14500F58126E11C012F0116A1050D7
:1009A8001110196E12501A6E1A505BEC08F019509B
:1009B8005BEC08F0E6EF04F0000E5BEC08F0000ECC
:1009C8005BEC08F0174A182A18BEF4EF04F0185028
:1009D80009E1040E175CD8A0F4EF04F0F6EF04F078
:1009E800BEEF04F08B841200800E066E1F0E076E99
:1009F800000E086E000E096E68EC08F00001AC6F7E
:100A0800810E066E1F0E076E000E086E000E096E30
:100A180068EC08F00001AB6F820E066E1F0E076EC1
:100A2800000E086E000E096E68EC08F00001A96F50
:100A3800830E066E1F0E076E000E086E000E096EFE
:100A480068EC08F00001A86F840E066E1F0E076E92
:100A5800000E086E000E096E68EC08F00009D8A4B4
:100A680038EF05F03BEF05F0010E3CEF05F0000E06
:100A78000001A76F170EAC6544EF05F046EF05F0CF
:100A880048EF05F0000EAC6F3B0EAB654EEF05F07E
:100A980050EF05F052EF05F0000EAB6F1200ACC03E
:100AA80006F0076A000E096E0A0E086E36EC04F0AE
:100AB8000650300F0001BF6FACC006F0076A000E89
:100AC800096E0A0E086E07EC06F00650300F00019A
:100AD800C06FABC006F0076A000E096E0A0E086EFA
:100AE80036EC04F00650300F0001C16FABC006F0C1
:100AF800076A000E096E0A0E086E07EC06F006502B
:100B0800300F0001C26F000EC36F000EC56F000EDC
:100B1800C46FC451BF0FD96EDA6AC451BA0FE16EFF
:100B2800E26ADFCFE7FFC44BC52BC5BFA5EF05F0D1
:100B3800C55109E1050EC45DD8A0A5EF05F0A7EFE2
:100B480005F08DEF05F0BA0E466E476A99EC01F094
:100B58001200A9C006F0076A000E096E0A0E086E98
:100B680036EC04F00650300F0001BF6FA9C006F044
:100B7800076A000E096E0A0E086E07EC06F00650AA
:100B8800300F0001C06FA8C006F0076A000E096E9A
:100B98000A0E086E36EC04F00650300F0001C16FE3
:100BA800A8C006F0076A000E096E0A0E086E07EC68
:100BB80006F00650300F0001C26F000EC36F000E22
:100BC800C56F000EC46FC451BF0FD96EDA6AC45125
:100BD800BA0FE16EE26ADFCFE7FFC44BC52BC5BF92
:100BE800FFEF05F0C55109E1050EC45DD8A0FFEF80
:100BF80005F001EF06F0E7EF05F0BA0E466E476A1A
:100C080099EC01F01200000E0B6E07BE10EF06F013
:100C18000EEF06F016EF06F0066C071ED8B0072A8E
:100C2800010E0B6E09BE1DEF06F01BEF06F021EF5B
:100C380006F0086C091ED8B0092A08500910D8B463
:100C480028EF06F02AEF06F04EEF06F0010E0A6EC6
:100C580032EF06F0D890083609360A2A09AE37EF7F
:100C680006F039EF06F02EEF06F00850065C095042
:100C78000758D8A042EF06F044EF06F048EF06F018
:100C88000850065E0950075AD890093208320A2ED1
:100C980039EF06F00B50D8B454EF06F056EF06F0D3
:100CA8005AEF06F0066C071ED8B0072A06C006F0F1
:100CB80007C007F01200016E480E0118D8A467EFAC
:100CC80006F069EF06F07AEF06F05450D8A46FEFFB
:100CD80006F071EF06F07AEF06F05450800FD96EE7
:100CE800DA6A480EDF6E542AADEF06F05450D8B4D5
:100CF80080EF06F082EF06F092EF06F0070E5460E0
:100D080088EF06F08AEF06F092EF06F05450800F55
:100D1800D96EDA6A01C0DFFF77EF06F0070E5418C4
:100D2800D8A499EF06F09BEF06F0ADEF06F03B0E66
:100D38000118D8A4A2EF06F0A4EF06F0ADEF06F074
:100D48003B0E0001866F000E546E010EA26FADEFD0
:100D580006F01200800E0001EF6F1F0EF06F000EFC
:100D6800F16F000EF26F000EF36FF351AF0FD96EF3
:100D7800DA6AF351EF25066E000EF021076E000EB9
:100D8800F121086E000EF221096E68EC08F0DF6EA2
:100D98000001F32B3F0EF365D4EF06F0D6EF06F013
:100DA800B9EF06F0ACC0AFF0ABC0B0F0A9C0B1F07D
:100DB800A8C0B2F0A7C0B3F0EFC00BF0F0C00CF0C1
:100DC800F1C00DF0F2C00EF0AF0E0F6EFAEC02F0AB
:100DD80012000001A751D8B4F4EF06F0F6EF06F0C0
:100DE80015EF07F0A551D8A4FCEF06F0FEEF06F0CA
:100DF80015EF07F0A951AC19D8A405EF07F007EFD4
:100E080007F015EF07F0A851AB19D8A40EEF07F0BB
:100E180010EF07F015EF07F06FEC03F0010E00017B
:100E2800A56F12000A6E07500AC008F0096A08C0C8
:100E380009F0086A08100B6E09500C6E8B94000EAE
:100E48000E6E000E0D6E0C505BEC08F00B505BEC58
:100E580008F00D4A0E2A0EBE3BEF07F00E5009E1CE
:100E6800040E0D5CD8A03BEF07F03DEF07F027EF2D
:100E780007F08B8412009D9A9D98000E066E000E56
:100E8800076EA0EC08F0000E066E000E076EA5ECCB
:100E980008F0080EB86E900EAB6E240EAC6ECF0E36
:100EA800AF6E000EB06E000E586E000E576E080E34
:100EB800566E000E556E000E0001AE6F000EAD6F3F
:100EC8009D8A12000001AA2B3B0EAA656EEF07F05F
:100ED80070EF07F088EF07F0000EAA6FAB2B3B0E00
:100EE800AB6579EF07F07BEF07F088EF07F0000EAE
:100EF800AB6FAC2B170EAC6584EF07F086EF07F0ED
:100F080088EF07F0000EAC6F1200000E476E000E5F
:100F1800466E4650600FD96EDA6ADF6A464A472A3B
:100F280047BEA0EF07F0475009E11F0E465CD8A066
:100F3800A0EF07F0A2EF07F08DEF07F063EC02F0E7
:100F48001200000E076E090E16EC07F0010E076E70
:100F58000A0E16EC07F0070E076E0B0E16EC07F0DC
:100F6800010E076E0C0E16EC07F0000E076E0F0E42
:100F780016EC07F01200000EF2BE010E0A6E08C051
:100F8800F8FF07C0F7FF06C0F6FFA68EA69CA6844A
:100F9800A688F29E550EA76EAA0EA76EA6820AB064
:100FA80002D0F29E01D0F28E12000B0ED76EDB0E2D
:100FB800D66ED650D7CF08F0096A08C009F0086A7B
:100FC8000810526E0950536EF294F28A540E066E4F
:100FD800110E076E96EC08F0940ED56E120006C03E
:100FE80008F007C009F0D89009320832D8900932C1
:100FF80008320850BB6E06C008F0030E0816083AFF
:10100800F00E0816BA50CF0B0810BA6E120001EE97
:1010180000F0200EEE6AE806FDE100EE60F04F0EEB
:10102800EE6AE806FDE100EE52F0070EEE6AE80609
:10103800FDE1599059920001D4EF03F00001F651F7
:10104800F711D8B42AEF08F02CEF08F038EF08F0C1
:1010580002D838EF08F00500FA6EF651FD6EF75128
:10106800FE6EFF6AFA5012001200AFEC08F04AEC6C
:1010780008F09BEC08F082EC08F089EC08F071ECC1
:1010880008F0D9EC07F03FEC07F01200000E896E6B
:10109800000E8A6E2C0E8B6E92689368910E946E79
:1010A8000A0E7F6E1F0E7E6E7C68F19E1200066E21
:1010B800C69E06C0C9FFC7A064EF08F066EF08F037
:1010C8005FEF08F0C950120008C0F8FF07C0F7FF2B
:1010D80006C0F6FF0800F55012007C0ECB6E000E1D
:1010E800CC6E9E921D0ECA6ECA841200F2945350A2
:1010F800D76E52C0D6FF22EC08F01200C00EC76EA1
:10110800300EC66E000EC86E12001C0EBA6E000EAF
:10111800BB6ECF0EBA161200000E0001A56F000EAE
:10112800A76F120006C0F6F007C0F7F01200620EB3
:10113800D36EC40E9B6E120006C0FAF007C0FBF017
:10114800120006C0F8F007C0F9F0120066EC07F0CC
:0A1158001200D58E1200D09E120086
:10F7F8000000000000000000007E8195B1B19581F5
:10F808007E7EFFEBCFCFEBFF7E0E1F3F7E3F1F0EAE
:10F8180000081C3E7F3E1C080018BAFFFFFFBA18FC
:10F828000010B8FCFFFCB810000000183C3C1800A1
:10F8380000FFFFE7C3C3E7FFFF003C664242663CA8
:10F8480000FFC399BDBD99C3FF70F88888FD7F0785
:10F858000F004E5FF1F15F4E00C0E0FF7F05050726
:10F8680007C0FF7F0505657F3F995A3CE7E73C5A8B
:10F87800997F3E3E1C1C08080008081C1C3E3E7F61
:10F8880000002466FFFF662400005F5F00005F5FE2
:10F8980000060F097F7F017F7F40DABFA5FD59036E
:10F8A8000200707070707070008094B6FFFFB6949C
:10F8B800800004067F7F0604000010307F7F301030
:10F8C800000808082A3E1C0800081C3E2A080808E8
:10F8D800003C3C202020202000081C3E08083E1C3C
:10F8E8000830383C3E3E3C3830060E1E3E3E1E0E6A
:10F8F80006000000000000000000065F5F06000030
:10F90800000007070007070000147F7F147F7F149B
:10F9180000242E6B6B3A120000466630180C6662A3
:10F9280000307A4F5D377A48000407030000000072
:10F9380000001C3E63410000000041633E1C0000C3
:10F9480000082A3E1C1C3E2A0808083E3E080800FB
:10F95800000080E0600000000008080808080800AF
:10F968000000006060000000006030180C06030111
:10F97800003E7F71594D7F3E0040427F7F404000EE
:10F9880000627359496F660000226349497F360057
:10F9980000181C16537F7F5000276745457D3900A6
:10F9A800003C7E4B4979300000030371790F070052
:10F9B80000367F49497F360000064F49693F1E00DF
:10F9C8000000006666000000000080E66600000097
:10F9D80000081C3663410000002424242424240049
:10F9E80000004163361C080000020351590F06004D
:10F9F800003E7F415D5D1F1E007C7E13137E7C00F0
:10FA080000417F7F49497F36001C3E6341416322A4
:10FA180000417F7F41633E1C00417F7F495D416318
:10FA280000417F7F491D0103001C3E6341517372F1
:10FA3800007F7F08087F7F000000417F7F41000032
:10FA480000307040417F3F0100417F7F081C776391
:10FA580000417F7F4140607000007F0E1C0E7F00D8
:10FA6800007F7F060C187F7F001C3E6341633E1CAD
:10FA780000417F7F49090F06001E3F21717F5E000C
:10FA880000417F7F09197F6600266F4D5973320048
:10FA98000003417F7F410300007F7F40407F7F005C
:10FAA800001F3F60603F1F00007F7F3018307F7F5E
:10FAB8000043673C183C674300074F78784F0700BE
:10FAC80000476371594D677300007F7F4141000013
:10FAD800000103060C183060000041417F7F0000E0
:10FAE80000080C0603060C08008080808080808057
:10FAF800800000030704000000207454543C784040
:10FB080000417F3F4848783000387C44446C2800E6
:10FB180000307848493F7F4000387C54545C1800D6
:10FB280000487E7F490302000098BCA4A4F87C0426
:10FB380000417F7F08047C780000447D7D40000000
:10FB48000060E08080FD7D0000417F7F10386C44BC
:10FB58000000417F7F400000007C7C18381C7C78C6
:10FB6800007C7C04047C780000387C44447C3800A9
:10FB78000084FCF8A4243C1800183C24A4F8FC8455
:10FB880000447C784C041C1800485C5454742400CD
:10FB98000000043E7F442400003C7C40403C7C4004
:10FBA800001C3C60603C1C00003C7C7038707C3C55
:10FBB80000446C3810386C44009CBCA0A0FC7C004D
:10FBC800004C64745C4C64000008083E77414100B6
:10FBD8000000000077770000004141773E080800E8
:10FBE80000020301030203010070784C464C787050
:10FBF800000E9F91B1FB4A00003A7A40407A7A4061
:10FC080000387C54555D19000002237555557D7BDD
:10FC180042217554547D794000217555547C7840B3
:10FC280000207457577C784000183CA4A4E4400096
:10FC380000023B7D55555D1B02397D54545D19000A
:10FC480000397D55545C18000001457C7C41010059
:10FC5800000203457D7D43020001457D7C40000094
:10FC680000797D1612167D790070782B2B7870003C
:10FC780000447C7C5555450000207454547C7C54C9
:10FC8800547C7E0B097F7F4900327B49497B3200D7
:10FC980000327A48487A320000327A4A487830008E
:10FCA800003A7B41417B7A40003A7A42407878407A
:10FCB800009ABAA0A0FA7A000001193C66663C19BD
:10FCC800013D7D40407D3D0000183C24E7E72424A9
:10FCD80000687E7F49436620002B2FFCFC2F2B00F9
:10FCE80000FFFF09092FF6F8A040C088FE7F09032E
:10FCF80002207454557D79400000447D7D41000008
:10FD0800003078484A7A320000387840427A7A409F
:10FD1800007A7A0A0A7A7000007D7D19317D7D00AB
:10FD28000000262F292F2F280000262F292F2600F4
:10FD38000030784D45602000003838080808080071
:10FD48000008080808383800004F6F3018CCEEBBA0
:10FD5800914F6F30186C76FBF90000007B7B000038
:10FD680000081C3622081C362222361C0822361CA3
:10FD780008AA005500AA005500AA55AA55AA55AACE
:10FD880055DDFFAA77DDAAFF77000000FFFF00001E
:10FD980000101010FFFF000000141414FFFF0000F3
:10FDA800001010FFFF00FFFF001010F0F010F0F03F
:10FDB80000141414FCFC0000001414F7F700FFFFF3
:10FDC800000000FFFF00FFFF001414F4F404FCFC23
:10FDD8000014141717101F1F0010101F1F101F1FCB
:10FDE800001414141F1F000000101010F0F0000081
:10FDF800000000001F1F1010101010101F1F1010FF
:10FE080010101010F0F0101010000000FFFF10107C
:10FE1800101010101010101010101010FFFF1010FC
:10FE280010000000FFFF1414140000FFFF00FFFF84
:10FE38001000001F1F101717140000FCFC04F4F436
:10FE48001414141717101717141414F4F404F4F4F2
:10FE5800140000FFFF00F7F71414141414141414FA
:10FE6800141414F7F700F7F71414141417171414CC
:10FE78001410101F1F101F1F10141414F4F414145E
:10FE8800141010F0F010F0F01000001F1F101F1FCA
:10FE9800100000001F1F141414000000FCFC1414B0
:10FEA800140000F0F010F0F0101010FFFF10FFFF2A
:10FEB80010141414FFFF1414141010101F1F000046
:10FEC80000000000F0F0101010FFFFFFFFFFFFFF21
:10FED800FFF0F0F0F0F0F0F0F0FFFFFFFF0000009F
:10FEE8000000000000FFFFFFFF0F0F0F0F0F0F0FA5
:10FEF8000F387C446C386C4400FCFE2A2A3E1400FF
:10FF0800007E7E020206060000027E7E027E7E02DF
:10FF18000063775D4963630000387C447C3C0404DB
:10FF28000080FE7E20203E1E000406027E7C060223
:10FF38000099BDE7E7BD9900001C3E6B496B3E1C6C
:10FF4800004C7E7301737E4C0030784A4F7D390037
:10FF580000183C243C3C243C1898FC643C3E273D5B
:10FF6800181C3E6B49490000007E7F01017F7E001E
:10FF7800002A2A2A2A2A2A000044445F5F444400AF
:10FF88000040515B4E4440000040444E5B514000ED
:10FF980000000000FEFF01070660E080FF7F000010
:10FFA8000008086B6B080800002436123624361245
:10FFB8000000060F090F06000000000018180000D6
:10FFC800000000001010000000103070C0FFFF019A
:10FFD80001001F1F011F1E000000191D171200003D
:10FFE8000000003C3C3C3C00000000000000000019
:08FFF80000414C41524D000094
:020000040020DA
:08000000FFFFFFFFFFFFFFFF00
:020000040030CA
:0E000000FF081F1EFF0981FF0FC00FE00F4019
:00000001FF
