:020000040000FA
:0400000055EF00F0C8
:100008005582FACF07F0FBCF08F0D9CF09F0DACF45
:100018000AF0F2AC12EF00F014EF00F04BEF00F032
:100028009DA019EF00F01BEF00F026EF00F09EA056
:1000380020EF00F022EF00F026EF00F068EC08F067
:100048004BEF00F09DA82BEF00F02DEF00F037EFFD
:1000580000F09EA832EF00F034EF00F037EF00F028
:100068009E984BEF00F09DAA3CEF00F03EEF00F0A9
:100078004BEF00F09EAA43EF00F045EF00F04BEF86
:1000880000F0AE50D1EC06F09E9A4BEF00F00AC09B
:10009800DAFF09C0D9FF08C0FBFF07C0FAFF559275
:1000A8001100B8EF08F081B05CEF00F05EEF00F0EF
:1000B8009FEF00F0020E0001F26F040EF16FBA0E0E
:1000C800E82EFED7F12FFCD7F22FFAD7000081B027
:1000D80070EF00F072EF00F09FEF00F00001A05108
:1000E800D8B479EF00F07BEF00F08EEF00F0010E4E
:1000F800A9250B6E0C6A000E0C22000E0E6E180E4F
:100108000D6E79EC06F00B500001A96F1FEC06F09C
:100118009FEF00F0010EAB250B6E0C6A000E0C224F
:10012800000E0E6E180E0D6E79EC06F00B500001E5
:10013800AB6FC5EC05F081B2A4EF00F0A6EF00F0BC
:10014800E7EF00F0020E0001F26F040EF16FBA0E35
:10015800E82EFED7F12FFCD7F22FFAD7000081B294
:10016800B8EF00F0BAEF00F0E7EF00F00001A0519F
:10017800D8B4C1EF00F0C3EF00F0D6EF00F0010EE5
:10018800A8250B6E0C6A000E0C22000E0E6E3C0E9B
:100198000D6E79EC06F00B500001A86F1FEC06F00D
:1001A800E7EF00F0010EAA250B6E0C6A000E0C2278
:1001B800000E0E6E3C0E0D6E79EC06F00B50000131
:1001C800AA6FC5EC05F081B4ECEF00F0EEEF00F09B
:1001D80082EF01F0640E00019A27000E9B23020EA5
:1001E8000001F26F040EF16FBA0EE82EFED7F12F60
:1001F800FCD7F22FFAD70000E80E00019A5D030E33
:100208009B59D8A00AEF01F00CEF01F076EF01F04E
:10021800A551D8A412EF01F014EF01F0A1EF01F0FD
:10022800010EA06F1FEC06F066EF01F081B01FEF22
:1002380001F021EF01F040EF01F0020E0001F26F32
:10024800040EF16FBA0EE82EFED7F12FFCD7F22F6D
:10025800FAD70000010E0001A9250B6E0C6A000EEA
:100268000C22000E0E6E180E0D6E79EC06F00B5077
:100278000001A96F1FEC06F081B245EF01F047EFCE
:1002880001F066EF01F0020E0001F26F040EF16F4B
:10029800BA0EE82EFED7F12FFCD7F22FFAD70000BE
:1002A800010E0001A8250B6E0C6A000E0C22000E30
:1002B8000E6E3C0E0D6E79EC06F00B500001A86F27
:1002C80016EF01F081A46BEF01F06DEF01F01AEF6A
:1002D80001F0000E0001A06F010EA76FC5EC05F03C
:1002E800A1EF01F0A551D8B47CEF01F07EEF01F049
:1002F800A1EF01F045EC09F0A1EF01F0E80E0001D3
:100308009A5D030E9B59D8B08CEF01F08EEF01F087
:100318009DEF01F0A12B050EA119D8A496EF01F0CD
:1003280098EF01F09DEF01F020EC07F0000E0001BE
:10033800A16F000E9B6F000E9A6F1200000E000155
:10034800BA6F000EB96F000EBE6F1F0EBD6F49EF7A
:1003580002F0000E0001B76F000EB66F000EBC6F02
:10036800000EBB6F000EB86F000EC06F070EBF6F98
:10037800B951AC25AE6FBA51AD21AF6FAEC0F6FF23
:10038800AFC0F7FF000EF86E0F0EF76403D0080039
:10039800F55005D0F6CFE1FFF7CFE2FFE7500001B7
:1003A800B06FB051080DF90EF324B16FF70EF420B9
:1003B800B26FB651B127B751B223B1C0F6FFB2C080
:1003C800F7FFF86A0800F5CFB3F0BFC0B4F0010E2C
:1003D800B56FB42BF2EF01F0D890B537B42FF0EF2A
:1003E80001F00001B551B3150009D8B4FEEF01F0D2
:1003F80000EF02F010EF02F0BF510708AE6F010ED8
:10040800AF6FAE2B0AEF02F0D890AF37AE2F08EFE0
:1004180002F00001AF51B813BF07D8A0C007C0BF92
:100428001AEF02F018EF02F0BCEF01F0BEBF21EFA7
:1004380002F01FEF02F023EF02F03EEF02F0BD5191
:10044800600FD96EDA6AB8C0DFFFBD07D8A0BE0753
:10045800B64BB72BBB4BBC2BBCBF3CEF02F0BC511F
:1004680009E1080EBB5DD8A03CEF02F03EEF02F0B8
:10047800B6EF01F0B94BBA2BBEBF47EF02F045EF1C
:1004880002F049EF02F068EF02F0B951AC25AE6F07
:10049800BA51AD21AF6FAEC0F6FFAFC0F7FF000E87
:1004A800F86E0F0EF76403D00800F55005D0F6CFAC
:1004B800E1FFF7CFE2FFE7500009D8A466EF02F0AA
:1004C80068EF02F0ADEF01F06BEC02F0120020EEE5
:1004D80023F01F0EDE6AE806FDE2000E4A6E000EEB
:1004E800496E49C00BF04AC00CF0000E0E6E080EA3
:1004F8000D6E4BEC04F00BC043F00CC044F0000E42
:10050800466E000E456E4950600FD96EDA6ADF50AC
:10051800206E45C021F0010E226E212A96EF02F0CE
:10052800D8902236212E94EF02F022502014000990
:10053800D8B4A1EF02F0A3EF02F0BDEF02F04350F0
:10054800080D4950F35C206E070E2026010E216E1F
:10055800202AB1EF02F0D8902136202EAFEF02F01A
:100568004350080DF350230F4524D96EDA6A215001
:10057800DF12454A462A46BECBEF02F0465009E153
:10058800080E455CD8A0CBEF02F0CDEF02F087EF64
:1005980002F0494A4A2A4ABEDBEF02F04A5009E112
:1005A800200E495CD8A0DBEF02F0DDEF02F075EF1A
:1005B80002F0000E486E010E476E47C013F048C0A7
:1005C80014F047C020F0FF0E20262050230FD96ECC
:1005D800DA6ADF50156EADEC04F0474A482A48BE87
:1005E800FFEF02F0485009E1210E475CD8A0FFEF69
:1005F80002F001EF03F0E1EF02F01200C00E101458
:10060800156EFF0E1114166E000E1214176E000EE2
:100618001314186E000EF2BE010E196E000E1C6E39
:10062800010E1B6E155010180FE1165011180CE131
:100638001750121809E118501318D8B426EF03F010
:1006480028EF03F02AEF03F076EF03F010C00BF069
:1006580011C00CF012C00DF013C00EF09EEC08F0A3
:1006680012C0F8FF11C0F7FF10C0F6FF000E1A6E97
:100678006DEF03F0000E1D6E14501C24D96EDA6A5B
:10068800DF50F56E3F0E1D18D8A44DEF03F04FEF65
:1006980003F052EF03F00C0054EF03F00D001C2A96
:1006A8001D2A3F0E1D645BEF03F05DEF03F040EF82
:1006B80003F0A68EA69CA684F29E550EA76EAA0EDF
:1006C800A76EA682A69419B002D0F29E01D0F28E2F
:1006D8001A2A1B501A5CD8A074EF03F076EF03F0C7
:1006E8003EEF03F0120028EC09F0000E0001AB6F9A
:1006F800000EAA6F000E4E6E000EA96F000EA86FB6
:1007080084EC08F04BEC08F06AEC05F09396F28E56
:10071800F28C62EC09F0C5EC05F057EC00F0D3EC74
:1007280007F00001A251D8B49CEF03F09EEF03F04C
:100738008FEF03F0480E8019D8A4A5EF03F0A7EFB8
:1007480003F08FEF03F04D0E8319D8A4AEEF03F03A
:10075800B0EF03F08FEF03F03B0E8619D8A4B7EF84
:1007680003F0B9EF03F08FEF03F081510A0DF35056
:100778008225F00FF36F84510A0DF3508525F00F91
:10078800F46F180EF361CBEF03F0CDEF03F0E1EF58
:1007980003F03C0EF461D3EF03F0D5EF03F0E1EF83
:1007A80003F0000EA26FF3C0ABF0F4C0AAF0C5ECE2
:1007B80005F020EC07F08FEF03F08FEF03F055EF13
:1007C80000F0000E0001C46F3C0EC36F000EC66F30
:1007D800000EC56F3FEF04F081B4F5EF03F0F7EFBB
:1007E80003F011EF04F0020E0001C26F040EC16F96
:1007F800BA0EE82EFED7C12FFCD7C22FFAD70000B9
:1008080081B409EF04F00BEF04F011EF04F04BECA6
:1008180008F045EC09F04AEF04F0F90E0001AC6F5E
:10082800FF0EAD6FA2EC01F0010E196EF40E186EFA
:100838005FEC07F0060E0001C26F130EC16FAD0E1C
:10084800E82EFED7C12FFCD7C22FFAD700F000F050
:100858004BEC08F0060E0001C26F130EC16FAD0E0F
:10086800E82EFED7C12FFCD7C22FFAD700F000F030
:100878000001C54BC62BC351C55DC451C659D8A08C
:1008880048EF04F04AEF04F0F0EF03F01200000E16
:10089800106E0EBE54EF04F052EF04F05AEF04F05D
:1008A8000D6C0E1ED8B00E2A010E106E0CBE61EF34
:1008B80004F05FEF04F067EF04F00B6C0C1ED8B087
:1008C8000C2A010E101A000E126E000E116E0D5039
:1008D8000E10D8B472EF04F074EF04F09CEF04F03B
:1008E800010E0F6E7CEF04F0D8900D360E360F2AED
:1008F8000EAE81EF04F083EF04F078EF04F0D890A7
:10090800113612360D500B5C0E500C58D8A08FEFD4
:1009180004F091EF04F096EF04F00D500B5E0E50CA
:100928000C5A1180D8900E320D320F2E83EF04F03E
:100938001050D8B4A2EF04F0A4EF04F0A8EF04F02C
:10094800116C121ED8B0122A11C00BF012C00CF094
:100958001200FF0E13240B6EFF0E14200C6E000EF7
:100968000E6E080E0D6E4BEC04F00BC01AF00CC0A6
:100978001BF01AC016F01BC017F0D89016361736A1
:10098800D89016361736D8901636173616C018F07F
:1009980017C019F08B94000E1D6E000E1C6E1A50B5
:1009A8001C1807E11B501D18D8A4DDEF04F0DFEF79
:1009B80004F0F5EF04F01850135C166E1950145833
:1009C800176E16C017F0166A155016101E6E1750BF
:1009D8001F6E1F501BEC09F01E501BEC09F0FBEFBB
:1009E80004F0000E1BEC09F0000E1BEC09F01C4A89
:1009F8001D2A1DBE09EF05F01D5009E1040E1C5CFF
:100A0800D8A009EF05F00BEF05F0D3EF04F08B84C5
:100A180012004E2A3B0E4E6414EF05F016EF05F057
:100A28002FEF05F0000E4E6E0001AA2B3B0EAA65B3
:100A380020EF05F022EF05F02FEF05F0000EAA6F6A
:100A4800AB2B170EAB652BEF05F02DEF05F02FEF55
:100A580005F0000EAB6F3B0E4E6435EF05F037EF37
:100A680005F03DEF05F0000E026E000E016E40EF3E
:100A780005F04EC001F0026A01C04EF03B0E0001C5
:100A8800AA6549EF05F04BEF05F051EF05F0000EB0
:100A9800046E000E036E54EF05F0AAC003F0046A5A
:100AA80003C0AAF0170EAB655CEF05F05EEF05F02A
:100AB80064EF05F0000E066E000E056E67EF05F098
:100AC800ABC005F0066A05C0ABF01200800E0B6ED5
:100AD8001F0E0C6E000E0D6E000E0E6E35EC09F03A
:100AE8000001AB6F810E0B6E1F0E0C6E000E0D6EAB
:100AF800000E0E6E35EC09F00001AA6F820E0B6E27
:100B08001F0E0C6E000E0D6E000E0E6E35EC09F009
:100B18000001A96F830E0B6E1F0E0C6E000E0D6E7A
:100B2800000E0E6E35EC09F00001A86F840E0B6EF6
:100B38001F0E0C6E000E0D6E000E0E6E35EC09F0D9
:100B48000009D8A4AAEF05F0ADEF05F0010EAEEF4D
:100B580005F0000E0001A76F170EAB65B6EF05F0A4
:100B6800B8EF05F0BAEF05F0000EAB6F3B0EAA65C3
:100B7800C0EF05F0C2EF05F0C4EF05F0000EAA6F54
:100B88001200ABC00BF00C6A000E0E6E0A0E0D6E52
:100B98004BEC04F00B50300F0001C66FABC00BF0EC
:100BA8000C6A000E0E6E0A0E0D6E79EC06F00B50F4
:100BB800300F0001C76FAAC00BF00C6A000E0E6E52
:100BC8000A0E0D6E4BEC04F00B50300F0001C86F8D
:100BD800AAC00BF00C6A000E0E6E0A0E0D6E79ECB0
:100BE80006F00B50300F0001C96F000ECA6F000EDF
:100BF800CC6F000ECB6FCB51C60FD96EDA6ACB51D2
:100C0800C10FE16EE26ADFCFE7FFCB4BCC2BCCBF45
:100C180017EF06F0CC5109E1050ECB5DD8A017EF10
:100C280006F019EF06F0FFEF05F0C10EAC6FAD6BE3
:100C3800A2EC01F01200A9C00BF00C6A000E0E6EB7
:100C48000A0E0D6E4BEC04F00B50300F0001C66F0E
:100C5800A9C00BF00C6A000E0E6E0A0E0D6E79EC30
:100C680006F00B50300F0001C76FA8C00BF00C6ADC
:100C7800000E0E6E0A0E0D6E4BEC04F00B50300F8A
:100C88000001C86FA8C00BF00C6A000E0E6E0A0EA9
:100C98000D6E79EC06F00B50300F0001C96F000E95
:100CA800CA6F000ECC6F000ECB6FCB51C60FD96E3A
:100CB800DA6ACB51C10FE16EE26ADFCFE7FFCB4BB7
:100CC800CC2BCCBF71EF06F0CC5109E1050ECB5D02
:100CD800D8A071EF06F073EF06F059EF06F0C10ED9
:100CE800AC6FAD6BA2EC01F01200000E106E0CBEE2
:100CF80082EF06F080EF06F088EF06F00B6C0C1E12
:100D0800D8B00C2A010E106E0EBE8FEF06F08DEFD4
:100D180006F093EF06F00D6C0E1ED8B00E2A0D509B
:100D28000E10D8B49AEF06F09CEF06F0C0EF06F06C
:100D3800010E0F6EA4EF06F0D8900D360E360F2A6E
:100D48000EAEA9EF06F0ABEF06F0A0EF06F00D50DF
:100D58000B5C0E500C58D8A0B4EF06F0B6EF06F0B6
:100D6800BAEF06F00D500B5E0E500C5AD8900E32AA
:100D78000D320F2EABEF06F01050D8B4C6EF06F0C8
:100D8800C8EF06F0CCEF06F00B6C0C1ED8B00C2A9E
:100D98000BC00BF00CC00CF01200016E480E0118CD
:100DA800D8A4D9EF06F0DBEF06F0ECEF06F04D50D3
:100DB800D8A4E1EF06F0E3EF06F0ECEF06F04D50B3
:100DC800800FD96EDA6A480EDF6E4D2A1FEF07F0E2
:100DD8004D50D8B4F2EF06F0F4EF06F004EF07F048
:100DE800070E4D60FAEF06F0FCEF06F004EF07F08F
:100DF8004D50800FD96EDA6A01C0DFFFE9EF06F0C7
:100E0800070E4D18D8A40BEF07F00DEF07F01FEFF2
:100E180007F03B0E0118D8A414EF07F016EF07F0FF
:100E28001FEF07F03B0E0001866F000E4D6E010E9E
:100E3800A26F1FEF07F01200800E0001EC6F1F0E6B
:100E4800ED6F000EEE6F000EEF6F000EF06FF051B9
:100E5800AC0FD96EDA6AF051EC250B6E000EED215D
:100E68000C6E000EEE210D6E000EEF210E6E35ECAD
:100E780009F0DF6E0001F02B3F0EF06546EF07F03A
:100E880048EF07F02BEF07F0ABC0ACF0AAC0ADF00D
:100E9800A9C0AEF0A8C0AFF0A7C0B0F0ECC010F089
:100EA800EDC011F0EEC012F0EFC013F0AC0E146EEE
:100EB80002EC03F0120018C00BF019C00CF0030E7E
:100EC8000E6EE80E0D6EE4EC08F00BC011F00CC0CD
:100ED80012F0000E146EF40E136E99EC07F011C0A8
:100EE8001AF012C01BF0000E1D6E000E1C6E8DEF66
:100EF80007F08A86000E0C6E7A0E0B6ECFEC08F0A7
:100F08008A96000E0C6E7A0E0B6ECFEC08F01C4A17
:100F18001D2A1A501C5C1B501D58D8A096EF07F0CC
:100F280098EF07F07DEF07F01200000E166E000E26
:100F3800156E13501410D8B4A4EF07F0A6EF07F0FD
:100F4800CEEF07F0010E176EAEEF07F0D89013360C
:100F58001436172A14AEB3EF07F0B5EF07F0AAEF6F
:100F680007F0D890153616361350115C14501258E5
:100F7800D8A0C1EF07F0C3EF07F0C8EF07F0135090
:100F8800115E1450125A1580D89014321332172E4D
:100F9800B5EF07F015C011F016C012F012000001ED
:100FA800A751D8B4DAEF07F0DCEF07F0FBEF07F052
:100FB800A551D8A4E2EF07F0E4EF07F0FBEF07F044
:100FC800A951AB19D8A4EBEF07F0EDEF07F0FBEF51
:100FD80007F0A851AA19D8A4F4EF07F0F6EF07F024
:100FE800FBEF07F0E5EC03F0010E0001A56F12001E
:100FF8000F6E0C500FC00DF00E6A0DC00EF00D6A8A
:101008000D10106E0E50116E8B94000E136E000EA4
:10101800126E11501BEC09F010501BEC09F0124A2B
:10102800132A13BE21EF08F0135009E1040E125CD5
:10103800D8A021EF08F023EF08F00DEF08F08B841B
:1010480012009D9A9D98000E0B6E000E0C6E55ECCA
:1010580009F0000E0B6E000E0C6E5AEC09F0080E2B
:10106800B86E900EAB6E240EAC6ECF0EAF6E000E47
:10107800B06E000E546E000E536E080E526E000EC7
:10108800516E000E506E000E4F6E9D8A1200000EBB
:101098000001AD6F000EAC6FAC51600FD96EDA6A0B
:1010A800DF6AAC4BAD2BADBF63EF08F0AD5109E182
:1010B8001F0EAC5DD8A063EF08F065EF08F050EFA5
:1010C80008F06BEC02F012009E904C50CF6E4BC0B3
:1010D800CEFF0001F551F611D8B475EF08F077EF9F
:1010E80008F083EF08F002D883EF08F00500FA6EE5
:1010F800F551FD6EF651FE6EFF6AFA5012001200AD
:10110800000E0C6E090EFCEC07F0010E0C6E0A0EB8
:10111800FCEC07F0070E0C6E0B0EFCEC07F0010E52
:101128000C6E0C0EFCEC07F0000E0C6E0F0EFCECB7
:1011380007F01200000EF2BE010E0F6E0DC0F8FF90
:101148000CC0F7FF0BC0F6FFA68EA69CA684A68847
:10115800F29E550EA76EAA0EA76EA6820FB002D0F9
:10116800F29E01D0F28E120001EE00F0200EEE6A1F
:10117800E806FDE100EE60F04C0EEE6AE806FDE1DF
:1011880000EE4BF00A0EEE6AE806FDE15590559226
:10119800000177EF03F0000E0E6E000E0D6ED8EF13
:1011A80008F000000D4A0E2A0B500D5C0C500E582A
:1011B800D8A0E1EF08F0E3EF08F0D5EF08F012004F
:1011C8000B500D02F3CF0FF0F4CF10F00B500E02BE
:1011D800F35010260C500D02F35010260FC00BF0E0
:1011E80010C00CF012007F0ECF6E3E0ECE6ECECF2A
:1011F8004BF0CFCF4CF09E909D80BE0E0B6E120E22
:101208000C6E4BEC09F00E0ECD6E1200000E896EBE
:10121800000E8A6E2C0E8B6E92689368920E946EF6
:101228000A0E7F6E1F0E7E6E7C68F19E12000B6E9A
:10123800C69E0BC0C9FFC7A024EF09F026EF09F02E
:101248001FEF09F0C950120064EC09F00AEC09F02C
:1012580050EC09F03EEC09F0F7EC08F025EC08F04A
:1012680012000DC0F8FF0CC0F7FF0BC0F6FF080016
:10127800F5501200C00EC76E300EC66E000EC86E56
:101288001200000E0001A56F000EA76F12000BC020
:10129800F5F00CC0F6F012006A0ED36E000E9B6ECD
:1012A80012000BC0F9F00CC0FAF012000BC0F7F0F6
:1012B8000CC0F8F012000DEC05F01200CD80120001
:0412C800D09E1200A2
:10F7F8000000000000000000007E8195B1B19581F5
:10F808007E7EFFEBCFCFEBFF7E0E1F3F7E3F1F0EAE
:10F8180000081C3E7F3E1C080018BAFFFFFFBA18FC
:10F828000010B8FCFFFCB810000000183C3C1800A1
:10F8380000FFFFE7C3C3E7FFFF003C664242663CA8
:10F8480000FFC399BDBD99C3FF70F88888FD7F0785
:10F858000F004E5FF1F15F4E00C0E0FF7F05050726
:10F8680007C0FF7F0505657F3F995A3CE7E73C5A8B
:10F87800997F3E3E1C1C08080008081C1C3E3E7F61
:10F8880000002466FFFF662400005F5F00005F5FE2
:10F8980000060F097F7F017F7F40DABFA5FD59036E
:10F8A8000200707070707070008094B6FFFFB6949C
:10F8B800800004067F7F0604000010307F7F301030
:10F8C800000808082A3E1C0800081C3E2A080808E8
:10F8D800003C3C202020202000081C3E08083E1C3C
:10F8E8000830383C3E3E3C3830060E1E3E3E1E0E6A
:10F8F80006000000000000000000065F5F06000030
:10F90800000007070007070000147F7F147F7F149B
:10F9180000242E6B6B3A120000466630180C6662A3
:10F9280000307A4F5D377A48000407030000000072
:10F9380000001C3E63410000000041633E1C0000C3
:10F9480000082A3E1C1C3E2A0808083E3E080800FB
:10F95800000080E0600000000008080808080800AF
:10F968000000006060000000006030180C06030111
:10F97800003E7F71594D7F3E0040427F7F404000EE
:10F9880000627359496F660000226349497F360057
:10F9980000181C16537F7F5000276745457D3900A6
:10F9A800003C7E4B4979300000030371790F070052
:10F9B80000367F49497F360000064F49693F1E00DF
:10F9C8000000006666000000000080E66600000097
:10F9D80000081C3663410000002424242424240049
:10F9E80000004163361C080000020351590F06004D
:10F9F800003E7F415D5D1F1E007C7E13137E7C00F0
:10FA080000417F7F49497F36001C3E6341416322A4
:10FA180000417F7F41633E1C00417F7F495D416318
:10FA280000417F7F491D0103001C3E6341517372F1
:10FA3800007F7F08087F7F000000417F7F41000032
:10FA480000307040417F3F0100417F7F081C776391
:10FA580000417F7F4140607000007F0E1C0E7F00D8
:10FA6800007F7F060C187F7F001C3E6341633E1CAD
:10FA780000417F7F49090F06001E3F21717F5E000C
:10FA880000417F7F09197F6600266F4D5973320048
:10FA98000003417F7F410300007F7F40407F7F005C
:10FAA800001F3F60603F1F00007F7F3018307F7F5E
:10FAB8000043673C183C674300074F78784F0700BE
:10FAC80000476371594D677300007F7F4141000013
:10FAD800000103060C183060000041417F7F0000E0
:10FAE80000080C0603060C08008080808080808057
:10FAF800800000030704000000207454543C784040
:10FB080000417F3F4848783000387C44446C2800E6
:10FB180000307848493F7F4000387C54545C1800D6
:10FB280000487E7F490302000098BCA4A4F87C0426
:10FB380000417F7F08047C780000447D7D40000000
:10FB48000060E08080FD7D0000417F7F10386C44BC
:10FB58000000417F7F400000007C7C18381C7C78C6
:10FB6800007C7C04047C780000387C44447C3800A9
:10FB78000084FCF8A4243C1800183C24A4F8FC8455
:10FB880000447C784C041C1800485C5454742400CD
:10FB98000000043E7F442400003C7C40403C7C4004
:10FBA800001C3C60603C1C00003C7C7038707C3C55
:10FBB80000446C3810386C44009CBCA0A0FC7C004D
:10FBC800004C64745C4C64000008083E77414100B6
:10FBD8000000000077770000004141773E080800E8
:10FBE80000020301030203010070784C464C787050
:10FBF800000E9F91B1FB4A00003A7A40407A7A4061
:10FC080000387C54555D19000002237555557D7BDD
:10FC180042217554547D794000217555547C7840B3
:10FC280000207457577C784000183CA4A4E4400096
:10FC380000023B7D55555D1B02397D54545D19000A
:10FC480000397D55545C18000001457C7C41010059
:10FC5800000203457D7D43020001457D7C40000094
:10FC680000797D1612167D790070782B2B7870003C
:10FC780000447C7C5555450000207454547C7C54C9
:10FC8800547C7E0B097F7F4900327B49497B3200D7
:10FC980000327A48487A320000327A4A487830008E
:10FCA800003A7B41417B7A40003A7A42407878407A
:10FCB800009ABAA0A0FA7A000001193C66663C19BD
:10FCC800013D7D40407D3D0000183C24E7E72424A9
:10FCD80000687E7F49436620002B2FFCFC2F2B00F9
:10FCE80000FFFF09092FF6F8A040C088FE7F09032E
:10FCF80002207454557D79400000447D7D41000008
:10FD0800003078484A7A320000387840427A7A409F
:10FD1800007A7A0A0A7A7000007D7D19317D7D00AB
:10FD28000000262F292F2F280000262F292F2600F4
:10FD38000030784D45602000003838080808080071
:10FD48000008080808383800004F6F3018CCEEBBA0
:10FD5800914F6F30186C76FBF90000007B7B000038
:10FD680000081C3622081C362222361C0822361CA3
:10FD780008AA005500AA005500AA55AA55AA55AACE
:10FD880055DDFFAA77DDAAFF77000000FFFF00001E
:10FD980000101010FFFF000000141414FFFF0000F3
:10FDA800001010FFFF00FFFF001010F0F010F0F03F
:10FDB80000141414FCFC0000001414F7F700FFFFF3
:10FDC800000000FFFF00FFFF001414F4F404FCFC23
:10FDD8000014141717101F1F0010101F1F101F1FCB
:10FDE800001414141F1F000000101010F0F0000081
:10FDF800000000001F1F1010101010101F1F1010FF
:10FE080010101010F0F0101010000000FFFF10107C
:10FE1800101010101010101010101010FFFF1010FC
:10FE280010000000FFFF1414140000FFFF00FFFF84
:10FE38001000001F1F101717140000FCFC04F4F436
:10FE48001414141717101717141414F4F404F4F4F2
:10FE5800140000FFFF00F7F71414141414141414FA
:10FE6800141414F7F700F7F71414141417171414CC
:10FE78001410101F1F101F1F10141414F4F414145E
:10FE8800141010F0F010F0F01000001F1F101F1FCA
:10FE9800100000001F1F141414000000FCFC1414B0
:10FEA800140000F0F010F0F0101010FFFF10FFFF2A
:10FEB80010141414FFFF1414141010101F1F000046
:10FEC80000000000F0F0101010FFFFFFFFFFFFFF21
:10FED800FFF0F0F0F0F0F0F0F0FFFFFFFF0000009F
:10FEE8000000000000FFFFFFFF0F0F0F0F0F0F0FA5
:10FEF8000F387C446C386C4400FCFE2A2A3E1400FF
:10FF0800007E7E020206060000027E7E027E7E02DF
:10FF18000063775D4963630000387C447C3C0404DB
:10FF28000080FE7E20203E1E000406027E7C060223
:10FF38000099BDE7E7BD9900001C3E6B496B3E1C6C
:10FF4800004C7E7301737E4C0030784A4F7D390037
:10FF580000183C243C3C243C1898FC643C3E273D5B
:10FF6800181C3E6B49490000007E7F01017F7E001E
:10FF7800002A2A2A2A2A2A000044445F5F444400AF
:10FF88000040515B4E4440000040444E5B514000ED
:10FF980000000000FEFF01070660E080FF7F000010
:10FFA8000008086B6B080800002436123624361245
:10FFB8000000060F090F06000000000018180000D6
:10FFC800000000001010000000103070C0FFFF019A
:10FFD80001001F1F011F1E000000191D171200003D
:10FFE8000000003C3C3C3C00000000000000000019
:08FFF80000414C41524D000094
:020000040020DA
:08000000FFFFFFFFFFFFFFFF00
:020000040030CA
:0E000000FF081F1EFF0981FF0FC00FE00F4019
:00000001FF
