:020000040000FA
:0400000055EF00F0C8
:100008005982FACF02F0FBCF03F0D9CF04F0DACF50
:1000180005F0F2AC12EF00F014EF00F04BEF00F037
:100028009DA019EF00F01BEF00F026EF00F09EA056
:1000380020EF00F022EF00F026EF00F064EC0DF066
:100048004BEF00F09DA82BEF00F02DEF00F037EFFD
:1000580000F09EA832EF00F034EF00F037EF00F028
:100068009E984BEF00F09DAA3CEF00F03EEF00F0A9
:100078004BEF00F09EAA43EF00F045EF00F04BEF86
:1000880000F0AE5033EC0BF09E9A4BEF00F005C039
:10009800DAFF04C0D9FF03C0FBFF02C0FAFF599280
:1000A8001100B4EF0DF00950800B126E09500924AD
:1000B800146E08AE62EF00F064EF00F065EF00F038
:1000C80014801450D8B46BEF00F06DEF00F082EF9D
:1000D80000F01428D8A473EF00F075EF00F07DEF5E
:1000E80000F0000E066E000E076E000E086E000E81
:1000F800096E088E000E096E8AEF00F0000E066E7B
:10010800000E076E000E086E000E096E0D50800B73
:10011800136E12501318D8B494EF00F096EF00F055
:1001280097EF00F0128C0D500D24136E0CAE9FEF5C
:1001380000F0A1EF00F0A2EF00F013801350D8B444
:10014800A8EF00F0AAEF00F0BFEF00F01328D8A442
:10015800B0EF00F0B2EF00F0BAEF00F0000E0A6E58
:10016800000E0B6E000E0C6E000E0D6E0C8E000E47
:100178000D6EC7EF00F0000E0A6E000E0B6E000E3B
:100188000C6E000E0D6E1450135CD8B0CEEF00F05C
:10019800D0EF00F0F7EF00F012ACD5EF00F0D7EF9A
:1001A80000F0D9EF00F0800E121A14C015F013C039
:1001B80014F015C013F006C015F00AC006F015C0FB
:1001C8000AF007C015F00BC007F015C00BF008C007
:1001D80015F00CC008F015C00CF009C015F00DC0E2
:1001E80009F015C00DF0000E156E145013C00EF076
:1001F8000F6A0E5E000E0F5A0FBE0CEF01F00F5083
:1002080009E11A0E0E5CD8A00CEF01F00EEF01F018
:1002180045EF01F00650071008100910D8A417EF91
:1002280001F01AEF01F0010E1BEF01F0000E156E40
:10023800000E066E000E076E000E086E000E096EA8
:1002480013C014F04EEF01F015A02DEF01F02FEFC1
:1002580001F035EF01F0D89015300109156E37EF30
:1002680001F0D890153206A03CEF01F03EEF01F006
:100278003FEF01F0158E0934093208320732063291
:10028800142A1350145CD8A04CEF01F04EEF01F083
:1002980028EF01F012BC53EF01F055EF01F095EF94
:1002A80001F01450D8A45BEF01F05DEF01F067EFA7
:1002B80001F0000E066E000E076E000E086E000EAE
:1002C800096EB6EF02F00A5006260B5007220C50B2
:1002D80008220D50092209A074EF01F076EF01F011
:1002E80022EF02F015A07BEF01F07DEF01F083EF24
:1002F80001F0D89015300109156E85EF01F0D890FE
:10030800153206A08AEF01F08CEF01F08DEF01F0B5
:10031800158E09340932083207320632142A22EFC0
:1003280002F00A50065C0B5007580C500858095048
:10033800800A0E6E0D50800A0E58D8B0A6EF01F054
:10034800A8EF01F0D3EF01F006500A5C0E6E0750DB
:100358000B580F6E08500C58106E09500D58116E3E
:10036800FF0E0E24066EFF0E0F20076EFF0E1020E4
:10037800086EFF0E1120096E800E121A156C1550AA
:10038800D8A4C9EF01F0CBEF01F0DBEF01F0010ECB
:100398000626000E072208220922DBEF01F00A5088
:1003A800065E0B50075A0C50085A0D50095A065051
:1003B800071008100910D8A4E4EF01F0E6EF01F0E7
:1003C8001BEF02F01550D8A4ECEF01F0EEEF01F0AE
:1003D8001BEF02F0000E066E000E076E000E086E90
:1003E800000E096EB6EF02F0D890063607360836CA
:1003F800093615AE02EF02F004EF02F005EF02F045
:10040800068015A00AEF02F00CEF02F010EF02F0E0
:10041800D880153612EF02F0D89015361450D8B49B
:1004280018EF02F01AEF02F01BEF02F0140608AE04
:1004380020EF02F022EF02F0F8EF01F0000E136E49
:1004480015AE29EF02F02BEF02F043EF02F015C0D2
:100458000EF07F0E0E16D8B434EF02F036EF02F02D
:100468003AEF02F0010E136E43EF02F006A03FEFE1
:1004780002F041EF02F043EF02F036EF02F01350C2
:10048800D8B449EF02F04BEF02F076EF02F0010E1C
:100498000626000E07220822092209A056EF02F0BC
:1004A80058EF02F076EF02F006C00EF007C00FF02A
:1004B80008C010F009C011F01134113210320F3297
:1004C8000E320EC006F00FC007F010C008F011C0C1
:1004D80009F01428D8B473EF02F075EF02F076EF44
:1004E80002F0142A1428D8B47CEF02F07EEF02F050
:1004F80086EF02F01450D8A484EF02F086EF02F0E1
:1005080098EF02F0000E066E000E076E000E086EE1
:10051800000E096E1450D8A494EF02F096EF02F082
:1005280098EF02F0000E126E14A09DEF02F09FEFFC
:1005380002F0A2EF02F0088EA3EF02F0089ED89016
:100548001430096E12AEABEF02F0ADEF02F0AEEF71
:1005580002F0098E06C006F007C007F008C008F0D0
:1005680009C009F012009AC030F09BC031F09CC05D
:1005780032F09DC033F01EC030F01FC031F020C0F3
:1005880032F021C033F030C022F031C023F032C045
:1005980024F033C025F0180ED7EF02F0D89025329A
:1005A800243223322232E82ED2EF02F022502E6E6D
:1005B8002F6A2FBEE9EF02F02F5009E1960E2E5C4C
:1005C800D8A0E9EF02F0EBEF02F0F5EF02F01EC061
:1005D8001EF01FC01FF020C020F021C021F021EF25
:1005E80004F033BEFAEF02F0FDEF02F0010EFEEF69
:1005F80002F0000E386E3850D8B405EF03F007EF5C
:1006080003F019EF03F01EC006F01FC007F020C06A
:1006180008F021C009F048EC0DF006C01EF007C034
:100628001FF008C020F009C021F02FBE27EF03F00B
:100638002F5007E17E0E2E5CD8B025EF03F027EF90
:1006480003F031EF03F0000E1E6E000E1F6E000E59
:10065800206E000E216E21EF04F0000E0A6E000ECF
:100668000B6E000E0C6E4B0E0D6E1EC006F01FC0FA
:1006780007F020C008F021C009F057EC00F006C0D0
:1006880034F007C035F008C036F009C037F0000E66
:100698000A6E000E0B6E000E0C6ECB0E0D6E34C083
:1006A80006F035C007F036C008F037C009F057EC3F
:1006B80000F006C026F007C027F008C028F009C0DF
:1006C80029F026C016F027C017F028C018F029C056
:1006D80019F01EC01AF01FC01BF020C01CF021C06A
:1006E8001DF0E6EC0CF016C039F017C03AF018C04F
:1006F8003BF019C03CF0000E2A6E000E2B6E000E67
:100708002C6E000E2D6E000E066E000E076E000E8B
:10071800086E3F0E096E39C00AF03AC00BF03BC0B4
:100728000CF03CC00DF051EC07F0D8B09EEF03F090
:10073800A0EF03F0AAEF03F0000E2A6E000E2B6E56
:10074800800E2C6EBF0E2D6ECBEF03F0000E066EE2
:10075800000E076E000E086EBF0E096E39C00AF053
:100768003AC00BF03BC00CF03CC00DF051EC07F068
:10077800D8A0C1EF03F0C3EF03F0CBEF03F0000EF6
:100788002A6E000E2B6E800E2C6E3F0E2D6E1EC034
:100798000AF01FC00BF020C00CF021C00DF039C0CA
:1007A80006F03AC007F03BC008F03CC009F057EC2F
:1007B80000F006C034F007C035F008C036F009C0B4
:1007C80037F034C006F035C007F036C008F037C03F
:1007D80009F02AC00AF02BC00BF02CC00CF02DC079
:1007E8000DF057EC00F006C039F007C03AF008C029
:1007F8003BF009C03CF03850D8B405EF04F007EFDF
:1008080004F019EF04F039C006F03AC007F03BC015
:1008180008F03CC009F048EC0DF006C039F007C0FC
:100828003AF008C03BF009C03CF039C01EF03AC0AD
:100838001FF03BC020F03CC021F0120081B027EF30
:1008480004F029EF04F06AEF04F0020E516E040E72
:10085800506EBA0EE82EFED7502EFCD7512EFAD77E
:1008680000F000F081B03BEF04F03DEF04F06AEFD8
:1008780004F00001A451D8B444EF04F046EF04F0AA
:1008880059EF04F0010EAD25066E076A000E072227
:10089800000E096E180E086EDBEC0AF00650000117
:1008A800AD6F81EC0AF06AEF04F0010EB025066E18
:1008B800076A000E0722000E096E180E086EDBECA0
:1008C8000AF006500001B06F27EC0AF081B26FEF12
:1008D80004F071EF04F0B2EF04F0020E516E040E52
:1008E800506EBA0EE82EFED7502EFCD7512EFAD7EE
:1008F80000F000F081B283EF04F085EF04F0B2EF6E
:1009080004F00001A451D8B48CEF04F08EEF04F089
:10091800A1EF04F0010EAC25066E076A000E07224F
:10092800000E096E3C0E086EDBEC0AF00650000162
:10093800AC6F81EC0AF0B2EF04F0010EAF25066E41
:10094800076A000E0722000E096E3C0E086EDBECEB
:100958000AF006500001AF6F27EC0AF081B4B7EF38
:1009680004F0B9EF04F04DEF05F0640E00019E2786
:10097800000E9F23020E516E040E506EBA0EE82E22
:10098800FED7502EFCD7512EFAD700F000F0E80E13
:1009980000019E5D030E9F59D8A0D5EF04F0D7EF54
:1009A80004F041EF05F0A951D8A4DDEF04F0DFEF22
:1009B80004F06CEF05F0010EA46F81EC0AF031EF42
:1009C80005F081B0EAEF04F0ECEF04F00BEF05F06E
:1009D800020E516E040E506EBA0EE82EFED7502E3F
:1009E800FCD7512EFAD700F000F0010E0001AD251A
:1009F800066E076A000E0722000E096E180E086EB2
:100A0800DBEC0AF006500001AD6F81EC0AF081B210
:100A180010EF05F012EF05F031EF05F0020E516E00
:100A2800040E506EBA0EE82EFED7502EFCD7512E6B
:100A3800FAD700F000F0010E0001AC25066E076A37
:100A4800000E0722000E096E3C0E086EDBEC0AF061
:100A580006500001AC6FE1EF04F081A436EF05F019
:100A680038EF05F0E5EF04F0000E0001A46F010E69
:100A7800AB6F27EC0AF06CEF05F0A951D8B447EF3B
:100A880005F049EF05F06CEF05F02EEC0EF06CEF79
:100A980005F0E80E00019E5D030E9F59D8B057EF90
:100AA80005F059EF05F068EF05F0A52B050EA5191F
:100AB800D8A461EF05F063EF05F068EF05F082EC6C
:100AC8000BF0000E0001A56F000E9F6F000E9E6FC9
:100AD8001200000E0001B76F000EB66F000EBB6F5C
:100AE8001F0EBA6F15EF06F0000E0001B46F000E6E
:100AF800B36F000EB96F000EB86F000EB56F000E21
:100B0800BD6F070EBC6FB6514624486EB7514720DB
:100B1800496E48C0F6FF49C0F7FF000EF86E0F0E89
:100B2800F76403D00800F55005D0F6CFE1FFF7CF02
:100B3800E2FFE7504A6E4A50080DF50EF3244B6E5B
:100B4800F70EF4204C6E0001B3514B26B4514C22E1
:100B58004BC0F6FF4CC0F7FFF86A0800F5CF4DF020
:100B6800BCC04EF0010E4F6E4E2ABDEF05F0D89076
:100B78004F364E2EBBEF05F04F504D140009D8B438
:100B8800C8EF05F0CAEF05F0DBEF05F00001BC5136
:100B98000708486E010E496E482AD5EF05F0D8902F
:100BA8004936482ED3EF05F049500001B51300012E
:100BB800BC07D8A0BD07BDBFE6EF05F0E4EF05F020
:100BC80087EF05F0BBBFEDEF05F0EBEF05F0EFEFBA
:100BD80005F00AEF06F0BA51600FD96EDA6AB5C0AF
:100BE800DFFFBA07D8A0BB07B34BB42BB84BB92B60
:100BF800B9BF08EF06F0B95109E1080EB85DD8A0F1
:100C080008EF06F00AEF06F081EF05F0B64BB72BB8
:100C1800BBBF13EF06F011EF06F015EF06F034EF47
:100C280006F0B6514624486EB7514720496E48C071
:100C3800F6FF49C0F7FF000EF86E0F0EF76403D0F9
:100C48000800F55005D0F6CFE1FFF7CFE2FFE750F7
:100C58000009D8A432EF06F034EF06F078EF05F07B
:100C680037EC06F0120020EE1EF01F0EDE6AE806D2
:100C7800FDE2000E456E000E446E44C006F045C00D
:100C880007F0000E096E080E086EABEC08F006C0FF
:100C98003EF007C03FF0000E416E000E406E44501B
:100CA800600FD96EDA6ADF501B6E40C01CF0010E6F
:100CB8001D6E1C2A62EF06F0D8901D361C2E60EFC0
:100CC80006F01D501B140009D8B46DEF06F06FEF45
:100CD80006F089EF06F03E50080D4450F35C1B6E99
:100CE800070E1B26010E1C6E1B2A7DEF06F0D890FE
:100CF8001C361B2E7BEF06F03E50080DF3501E0FDE
:100D08004024D96EDA6A1C50DF12404A412A41BE9B
:100D180097EF06F0415009E1080E405CD8A097EF24
:100D280006F099EF06F053EF06F0444A452A45BE0F
:100D3800A7EF06F0455009E1200E445CD8A0A7EFC4
:100D480006F0A9EF06F041EF06F0000E436E010E23
:100D5800426E42C00EF043C00FF042C01BF0FF0EBF
:100D68001B261B501E0FD96EDA6ADF50106E0DEC71
:100D780009F0424A432A43BECBEF06F0435009E14B
:100D8800210E425CD8A0CBEF06F0CDEF06F0ADEF18
:100D980006F012003F344034466E4650D8A4D7EFD0
:100DA80006F0D9EF06F0E3EF06F0000E3D6E000EF8
:100DB8003E6E000E3F6E000E406E50EF07F03DC0D5
:100DC80041F03EC042F03FC043F040C044F0200E26
:100DD800F3EF06F0D8904432433242324132E82EE3
:100DE800EEEF06F04150456E3F8EFF0E3D16FF0EAA
:100DF8003E16FF0E3F16000E4016960E465E46BE85
:100E08000AEF07F008EF07F020EF07F04650800AD6
:100E1800970FD8B012EF07F014EF07F016EF07F0AE
:100E2800D9EF06F0D89040323F323E323D32463E4E
:100E380016EF07F038EF07F01F0E466426EF07F0AD
:100E480028EF07F030EF07F0D9EF06F0D8903D36DD
:100E58003E363F36403646064650D8A436EF07F0B1
:100E680038EF07F02AEF07F04550D8B43EEF07F007
:100E780040EF07F048EF07F0401E3F1E3E1E3D6C56
:100E8800000E3E223F2240223DC03DF03EC03EF0D3
:100E98003FC03FF040C040F01200000E06140E6E36
:100EA800000E07140F6E800E0814106E7F0E0914C2
:100EB800116E0E500F1010101110D8A466EF07F025
:100EC80068EF07F070EF07F0000E066E000E076E71
:100ED800000E086E000E096E000E0A140E6E000E4B
:100EE8000B140F6E800E0C14106E7F0E0D14116E05
:100EF8000E500F1010101110D8A485EF07F087EFCF
:100F080007F08FEF07F0000E0A6E000E0B6E000E52
:100F18000C6E000E0D6E09AE94EF07F096EF07F019
:100F28009FEF07F0066C071ED8B0072A081ED8B036
:100F3800082A800E09560DAEA4EF07F0A6EF07F0B9
:100F4800AFEF07F00A6C0B1ED8B00B2A0C1ED8B0F6
:100F58000C2A800E0D56000E061A000E071A000EF7
:100F6800081A800E091A000E0A1A000E0B1A000E33
:100F78000C1A800E0D1A0A50065C0B5007580C50BC
:100F880008580D500958D8B0CCEF07F0CEEF07F04D
:100F9800D1EF07F0D890D2EF07F0D8801200C00E3A
:100FA8000B14106EFF0E0C14116E000E0D14126E41
:100FB800000E0E14136E000EF2BE010E146E000E1B
:100FC800176E010E166E10500B180FE111500C1809
:100FD8000CE112500D1809E113500E18D8B4F7EFB0
:100FE80007F0F9EF07F0FBEF07F047EF08F00BC049
:100FF80006F00CC007F00DC008F00EC009F09AEC1E
:101008000DF00DC0F8FF0CC0F7FF0BC0F6FF000E87
:10101800156E3EEF08F0000E186E0F501724D96EAB
:10102800DA6ADF50F56E3F0E1818D8A41EEF08F0E4
:1010380020EF08F023EF08F00C0025EF08F00D0072
:10104800172A182A3F0E18642CEF08F02EEF08F024
:1010580011EF08F0A68EA69CA684F29E550EA76EE8
:10106800AA0EA76EA682A69414B002D0F29E01D052
:10107800F28E152A1650155CD8A045EF08F047EFF8
:1010880008F00FEF08F0120011EC0EF080EC0DF0F4
:101098002CEC0DF0CCEC09F09396F28EF28C4BEC24
:1010A8000EF027EC0AF022EC04F06DEC0CF00001D5
:1010B800A651D8B462EF08F064EF08F055EF08F0D5
:1010C800480E8019D8A46BEF08F06DEF08F055EFC3
:1010D80008F04D0E8319D8A474EF08F076EF08F0E5
:1010E80055EF08F03B0E8619D8A47DEF08F07FEF86
:1010F80008F055EF08F081510A0DF3508225F00FE2
:10110800F86F84510A0DF3508525F00FF96F180E0A
:10111800F86191EF08F093EF08F0A7EF08F03C0EA4
:10112800F96199EF08F09BEF08F0A7EF08F0000EBF
:10113800A66FF8C0B0F0F9C0AFF027EC0AF082EC67
:101148000BF055EF08F055EF08F055EF00F0000EE2
:101158000B6E09BEB4EF08F0B2EF08F0BAEF08F072
:10116800086C091ED8B0092A010E0B6E07BEC1EF24
:1011780008F0BFEF08F0C7EF08F0066C071ED8B0FC
:10118800072A010E0B1A000E0D6E000E0C6E085089
:101198000910D8B4D2EF08F0D4EF08F0FCEF08F04B
:1011A800010E0A6EDCEF08F0D890083609360A2AD4
:1011B80009AEE1EF08F0E3EF08F0D8EF08F0D890B7
:1011C8000C360D360850065C09500758D8A0EFEFCA
:1011D80008F0F1EF08F0F6EF08F00850065E095045
:1011E800075A0C80D890093208320A2EE3EF08F02B
:1011F8000B50D8B402EF09F004EF09F008EF09F03A
:101208000C6C0D1ED8B00D2A0CC006F00DC007F0EE
:101218001200FF0E0E24066EFF0E0F20076E000E42
:10122800096E080E086EABEC08F006C015F007C092
:1012380016F015C011F016C012F0D89011361236FB
:10124800D89011361236D8901136123611C013F0D4
:1012580012C014F08B94000E186E000E176E155005
:10126800171807E116501818D8A43DEF09F03FEFFA
:1012780009F055EF09F013500E5C116E14500F5819
:10128800126E11C012F0116A10501110196E12501E
:101298001A6E1A5004EC0EF0195004EC0EF05BEFC5
:1012A80009F0000E04EC0EF0000E04EC0EF0174AE4
:1012B800182A18BE69EF09F0185009E1040E175CE6
:1012C800D8A069EF09F06BEF09F033EF09F08B84D0
:1012D8001200000E0001BF6F3C0EBE6F000EC16F02
:1012E800000EC06FC0EF09F081B47DEF09F07FEF09
:1012F80009F099EF09F0020E516E040E506EBA0E05
:10130800E82EFED7502EFCD7512EFAD700F000F069
:1013180081B491EF09F093EF09F099EF09F02CEC03
:101328000DF02EEC0EF0CBEF09F0F90E466EFF0E25
:10133800476E6DEC05F0010E146EF40E136EC1ECE1
:101348000BF0060E516E130E506EAE0EE82EFED741
:10135800502EFCD7512EFAD72CEC0DF0060E516EFC
:10136800130E506EAE0EE82EFED7502EFCD7512E1F
:10137800FAD70001C04BC12BBE51C05DBF51C15946
:10138800D8A0C9EF09F0CBEF09F078EF09F0120007
:10139800800E066E1F0E076E000E086E000E096E98
:1013A8001EEC0EF00001B06F810E066E1F0E076E68
:1013B800000E086E000E096E1EEC0EF00001AF6FF5
:1013C800820E066E1F0E076E000E086E000E096E66
:1013D8001EEC0EF00001AD6F830E066E1F0E076E39
:1013E800000E086E000E096E1EEC0EF00001AC6FC8
:1013F800840E066E1F0E076E000E086E000E096E34
:101408001EEC0EF00009D8A40CEF0AF00FEF0AF05A
:10141800010E10EF0AF0000E0001AB6F170EB06559
:1014280018EF0AF01AEF0AF01CEF0AF0000EB06F7E
:101438003B0EAF6522EF0AF024EF0AF026EF0AF020
:10144800000EAF6F1200B0C006F0076A000E096EFA
:101458000A0E086EABEC08F00650300F0001C36F9F
:10146800B0C006F0076A000E096E0A0E086EDBECC3
:101478000AF00650300F0001C46FAFC006F0076ACB
:10148800000E096E0A0E086EABEC08F00650300F1D
:101498000001C56FAFC006F0076A000E096E0A0E9C
:1014A800086EDBEC0AF00650300F0001C66F000E24
:1014B800C76F000EC96F000EC86FC851C30FD96E31
:1014C800DA6AC851BE0FE16EE26ADFCFE7FFC84BA8
:1014D800C92BC9BF79EF0AF0C95109E1050EC85DEA
:1014E800D8A079EF0AF07BEF0AF061EF0AF0BE0EA0
:1014F800466E476A6DEC05F01200ADC006F0076A4B
:10150800000E096E0A0E086EABEC08F00650300F9C
:101518000001C36FADC006F0076A000E096E0A0E1F
:10152800086EDBEC0AF00650300F0001C46FACC047
:1015380006F0076A000E096E0A0E086EABEC08F09A
:101548000650300F0001C56FACC006F0076A000EE8
:10155800096E0A0E086EDBEC0AF00650300F000127
:10156800C66F000EC76F000EC96F000EC86FC85156
:10157800C30FD96EDA6AC851BE0FE16EE26ADFCFD7
:10158800E7FFC84BC92BC9BFD3EF0AF0C95109E11E
:10159800050EC85DD8A0D3EF0AF0D5EF0AF0BBEF6F
:1015A8000AF0BE0E466E476A6DEC05F01200000E9A
:1015B8000B6E07BEE4EF0AF0E2EF0AF0EAEF0AF07A
:1015C800066C071ED8B0072A010E0B6E09BEF1EF94
:1015D8000AF0EFEF0AF0F5EF0AF0086C091ED8B030
:1015E800092A08500910D8B4FCEF0AF0FEEF0AF0F7
:1015F80022EF0BF0010E0A6E06EF0BF0D8900836BA
:1016080009360A2A09AE0BEF0BF00DEF0BF002EFCB
:101618000BF00850065C09500758D8A016EF0BF0DD
:1016280018EF0BF01CEF0BF00850065E0950075A34
:10163800D890093208320A2E0DEF0BF00B50D8B4AF
:1016480028EF0BF02AEF0BF02EEF0BF0066C071EBD
:10165800D8B0072A06C006F007C007F01200016ECE
:10166800480E0118D8A43BEF0BF03DEF0BF04EEFFE
:101678000BF05450D8A443EF0BF045EF0BF04EEFAE
:101688000BF05450800FD96EDA6A480EDF6E542A78
:1016980081EF0BF05450D8B454EF0BF056EF0BF029
:1016A80066EF0BF0070E54605CEF0BF05EEF0BF08B
:1016B80066EF0BF05450800FD96EDA6A01C0DFFF75
:1016C8004BEF0BF0070E5418D8A46DEF0BF06FEF2B
:1016D8000BF081EF0BF03B0E0118D8A476EF0BF05E
:1016E80078EF0BF081EF0BF03B0E0001866F000ED8
:1016F800546E010EA66F81EF0BF01200800E0001F0
:10170800F36F1F0EF46F000EF56F000EF66F000EEC
:10171800F76FF751B30FD96EDA6AF751F325066EF2
:10172800000EF421076E000EF521086E000EF6215A
:10173800096E1EEC0EF0DF6E0001F72B3F0EF76509
:10174800A8EF0BF0AAEF0BF08DEF0BF0B0C0B3F0E1
:10175800AFC0B4F0ADC0B5F0ACC0B6F0ABC0B7F038
:10176800F3C00BF0F4C00CF0F5C00DF0F6C00EF0AD
:10177800B30E0F6ED3EC07F0120013C006F014C0BE
:1017880007F0030E096EE80E086EE0EC0DF006C0D7
:101798000CF007C00DF0000E0F6EF40E0E6EFBEC91
:1017A8000BF00CC015F00DC016F0000E186E000EF0
:1017B800176EEFEF0BF08A86000E076E7A0E066E34
:1017C800CBEC0DF08A96000E076E7A0E066ECBEC07
:1017D8000DF0174A182A1550175C16501858D8A03B
:1017E800F8EF0BF0FAEF0BF0DFEF0BF01200000E42
:1017F800126E000E116E0E500F10D8B406EF0CF0DA
:1018080008EF0CF030EF0CF0010E106E10EF0CF03A
:10181800D8900E360F36102A0FAE15EF0CF017EFD2
:101828000CF00CEF0CF0D890113612360E500C5C00
:101838000F500D58D8A023EF0CF025EF0CF02AEF2D
:101848000CF00E500C5E0F500D5A1180D8900F32CC
:101858000E32102E17EF0CF011C00CF012C00DF064
:101868001200800ECF6E000ECE6ECE50CFCF47F056
:10187800486A47C048F0476A4710526E4850536E4E
:10188800B50E1E6EFE0E1F6E160E206E3F0E216EDA
:10189800B7EC02F01EC03DF01FC03EF020C03FF084
:1018A80021C040F0CEEC06F03D50496E495052261A
:1018B800000E5322C10E5226000E53229E909D8088
:1018C800900E066E1C0E076E34EC0EF00E0ECD6EEA
:1018D80012000001AB51D8B474EF0CF076EF0CF0A5
:1018E80095EF0CF0A951D8A47CEF0CF07EEF0CF02A
:1018F80095EF0CF0AD51B019D8A485EF0CF087EF37
:101908000CF095EF0CF0AC51AF19D8A48EEF0CF099
:1019180090EF0CF095EF0CF06DEC09F0010E000162
:10192800A96F12000A6E07500AC008F0096A08C0B9
:1019380009F0086A08100B6E09500C6E8B94000EA3
:101948000E6E000E0D6E0C5004EC0EF00B5004ECF5
:101958000EF00D4A0E2A0EBEBBEF0CF00E5009E138
:10196800040E0D5CD8A0BBEF0CF0BDEF0CF0A7EF98
:101978000CF08B8412009D9A9D98000E066E000E46
:10198800076E3EEC0EF0000E066E000E076E43EC7E
:101998000EF0080EB86E900EAB6E240EAC6ECF0E25
:1019A800AF6E000EB06E000E586E000E576E080E29
:1019B800566E000E556E000E0001B26F000EB16F2C
:1019C8009D8A1200000E1A1A000E1B1A000E1C1A0D
:1019D800800E1D1A16C006F017C007F018C008F0D0
:1019E80019C009F01AC00AF01BC00BF01CC00CF09B
:1019F8001DC00DF057EC00F006C016F007C017F038
:101A080008C018F009C019F012000001AE2B3B0EF7
:101A1800AE6511EF0DF013EF0DF02BEF0DF0000E8A
:101A2800AE6FAF2B3B0EAF651CEF0DF01EEF0DF048
:101A38002BEF0DF0000EAF6FB02B170EB06527EF30
:101A48000DF029EF0DF02BEF0DF0000EB06F120026
:101A5800000E476E000E466E4650600FD96EDA6A69
:101A6800DF6A464A472A47BE43EF0DF0475009E16F
:101A78001F0E465CD8A043EF0DF045EF0DF030EF98
:101A88000DF037EC06F01200065007100810091088
:101A9800D8B451EF0DF053EF0DF05BEF0DF0000EE1
:101AA800061A000E071A000E081A800E091A06C038
:101AB80006F007C007F008C008F009C009F01200D6
:101AC8009E905350CF6E52C0CEFF0001FA51FB11C9
:101AD800D8B471EF0DF073EF0DF07FEF0DF002D871
:101AE8007FEF0DF00500FA6EFA51FD6EFB51FE6EA8
:101AF800FF6AFA5012001200000E076E090E96ECEB
:101B08000CF0010E076E0A0E96EC0CF0070E076E2D
:101B18000B0E96EC0CF0010E076E0C0E96EC0CF00A
:101B2800000E076E0F0E96EC0CF01200000EF2BEBF
:101B3800010E0A6E08C0F8FF07C0F7FF06C0F6FFDF
:101B4800A68EA69CA684A688F29E550EA76EAA0EFF
:101B5800A76EA6820AB002D0F29E01D0F28E1200C1
:101B680001EE00F0200EEE6AE806FDE100EE60F0FE
:101B7800530EEE6AE806FDE100EE52F0070EEE6A3B
:101B8800E806FDE159905992000148EF08F0000E6F
:101B9800096E000E086ED4EF0DF00000084A092AFD
:101BA8000650085C07500958D8A0DDEF0DF0DFEFAC
:101BB8000DF0D1EF0DF0120006500802F3CF0AF035
:101BC800F4CF0BF006500902F3500B260750080219
:101BD800F3500B260AC006F00BC007F01200000EE7
:101BE800896E000E8A6E2C0E8B6E92689368920E28
:101BF800946E0A0E7F6E1F0E7E6E7C68F19E120038
:101C0800066EC69E06C0C9FFC7A00DEF0EF00FEF07
:101C18000EF008EF0EF0C95012004DEC0EF0F3EC88
:101C28000DF039EC0EF027EC0EF035EC0CF0BFECB3
:101C38000CF0120008C0F8FF07C0F7FF06C0F6FF57
:101C48000800F5501200C00EC76E300EC66E000EAA
:101C5800C86E1200000E0001A96F000EAB6F1200D3
:101C680006C0FAF007C0FBF012006A0ED36E000E31
:101C78009B6E120006C0FEF007C0FFF0120006C0FF
:101C8800FCF007C0FDF0120009EC0DF01200CD8049
:061C98001200D09E1200B4
:10F7F4000000000000000000007E8195B1B19581F9
:10F804007E7EFFEBCFCFEBFF7E0E1F3F7E3F1F0EB2
:10F8140000081C3E7F3E1C080018BAFFFFFFBA1800
:10F824000010B8FCFFFCB810000000183C3C1800A5
:10F8340000FFFFE7C3C3E7FFFF003C664242663CAC
:10F8440000FFC399BDBD99C3FF70F88888FD7F0789
:10F854000F004E5FF1F15F4E00C0E0FF7F0505072A
:10F8640007C0FF7F0505657F3F995A3CE7E73C5A8F
:10F87400997F3E3E1C1C08080008081C1C3E3E7F65
:10F8840000002466FFFF662400005F5F00005F5FE6
:10F8940000060F097F7F017F7F40DABFA5FD590372
:10F8A4000200707070707070008094B6FFFFB694A0
:10F8B400800004067F7F0604000010307F7F301034
:10F8C400000808082A3E1C0800081C3E2A080808EC
:10F8D400003C3C202020202000081C3E08083E1C40
:10F8E4000830383C3E3E3C3830060E1E3E3E1E0E6E
:10F8F40006000000000000000000065F5F06000034
:10F90400000007070007070000147F7F147F7F149F
:10F9140000242E6B6B3A120000466630180C6662A7
:10F9240000307A4F5D377A48000407030000000076
:10F9340000001C3E63410000000041633E1C0000C7
:10F9440000082A3E1C1C3E2A0808083E3E080800FF
:10F95400000080E0600000000008080808080800B3
:10F964000000006060000000006030180C06030115
:10F97400003E7F71594D7F3E0040427F7F404000F2
:10F9840000627359496F660000226349497F36005B
:10F9940000181C16537F7F5000276745457D3900AA
:10F9A400003C7E4B4979300000030371790F070056
:10F9B40000367F49497F360000064F49693F1E00E3
:10F9C4000000006666000000000080E6660000009B
:10F9D40000081C366341000000242424242424004D
:10F9E40000004163361C080000020351590F060051
:10F9F400003E7F415D5D1F1E007C7E13137E7C00F4
:10FA040000417F7F49497F36001C3E6341416322A8
:10FA140000417F7F41633E1C00417F7F495D41631C
:10FA240000417F7F491D0103001C3E6341517372F5
:10FA3400007F7F08087F7F000000417F7F41000036
:10FA440000307040417F3F0100417F7F081C776395
:10FA540000417F7F4140607000007F0E1C0E7F00DC
:10FA6400007F7F060C187F7F001C3E6341633E1CB1
:10FA740000417F7F49090F06001E3F21717F5E0010
:10FA840000417F7F09197F6600266F4D597332004C
:10FA94000003417F7F410300007F7F40407F7F0060
:10FAA400001F3F60603F1F00007F7F3018307F7F62
:10FAB4000043673C183C674300074F78784F0700C2
:10FAC40000476371594D677300007F7F4141000017
:10FAD400000103060C183060000041417F7F0000E4
:10FAE40000080C0603060C0800808080808080805B
:10FAF400800000030704000000207454543C784044
:10FB040000417F3F4848783000387C44446C2800EA
:10FB140000307848493F7F4000387C54545C1800DA
:10FB240000487E7F490302000098BCA4A4F87C042A
:10FB340000417F7F08047C780000447D7D40000004
:10FB44000060E08080FD7D0000417F7F10386C44C0
:10FB54000000417F7F400000007C7C18381C7C78CA
:10FB6400007C7C04047C780000387C44447C3800AD
:10FB74000084FCF8A4243C1800183C24A4F8FC8459
:10FB840000447C784C041C1800485C5454742400D1
:10FB94000000043E7F442400003C7C40403C7C4008
:10FBA400001C3C60603C1C00003C7C7038707C3C59
:10FBB40000446C3810386C44009CBCA0A0FC7C0051
:10FBC400004C64745C4C64000008083E77414100BA
:10FBD4000000000077770000004141773E080800EC
:10FBE40000020301030203010070784C464C787054
:10FBF400000E9F91B1FB4A00003A7A40407A7A4065
:10FC040000387C54555D19000002237555557D7BE1
:10FC140042217554547D794000217555547C7840B7
:10FC240000207457577C784000183CA4A4E440009A
:10FC340000023B7D55555D1B02397D54545D19000E
:10FC440000397D55545C18000001457C7C4101005D
:10FC5400000203457D7D43020001457D7C40000098
:10FC640000797D1612167D790070782B2B78700040
:10FC740000447C7C5555450000207454547C7C54CD
:10FC8400547C7E0B097F7F4900327B49497B3200DB
:10FC940000327A48487A320000327A4A4878300092
:10FCA400003A7B41417B7A40003A7A42407878407E
:10FCB400009ABAA0A0FA7A000001193C66663C19C1
:10FCC400013D7D40407D3D0000183C24E7E72424AD
:10FCD40000687E7F49436620002B2FFCFC2F2B00FD
:10FCE40000FFFF09092FF6F8A040C088FE7F090332
:10FCF40002207454557D79400000447D7D4100000C
:10FD0400003078484A7A320000387840427A7A40A3
:10FD1400007A7A0A0A7A7000007D7D19317D7D00AF
:10FD24000000262F292F2F280000262F292F2600F8
:10FD34000030784D45602000003838080808080075
:10FD44000008080808383800004F6F3018CCEEBBA4
:10FD5400914F6F30186C76FBF90000007B7B00003C
:10FD640000081C3622081C362222361C0822361CA7
:10FD740008AA005500AA005500AA55AA55AA55AAD2
:10FD840055DDFFAA77DDAAFF77000000FFFF000022
:10FD940000101010FFFF000000141414FFFF0000F7
:10FDA400001010FFFF00FFFF001010F0F010F0F043
:10FDB40000141414FCFC0000001414F7F700FFFFF7
:10FDC400000000FFFF00FFFF001414F4F404FCFC27
:10FDD4000014141717101F1F0010101F1F101F1FCF
:10FDE400001414141F1F000000101010F0F0000085
:10FDF400000000001F1F1010101010101F1F101003
:10FE040010101010F0F0101010000000FFFF101080
:10FE1400101010101010101010101010FFFF101000
:10FE240010000000FFFF1414140000FFFF00FFFF88
:10FE34001000001F1F101717140000FCFC04F4F43A
:10FE44001414141717101717141414F4F404F4F4F6
:10FE5400140000FFFF00F7F71414141414141414FE
:10FE6400141414F7F700F7F71414141417171414D0
:10FE74001410101F1F101F1F10141414F4F4141462
:10FE8400141010F0F010F0F01000001F1F101F1FCE
:10FE9400100000001F1F141414000000FCFC1414B4
:10FEA400140000F0F010F0F0101010FFFF10FFFF2E
:10FEB40010141414FFFF1414141010101F1F00004A
:10FEC40000000000F0F0101010FFFFFFFFFFFFFF25
:10FED400FFF0F0F0F0F0F0F0F0FFFFFFFF000000A3
:10FEE4000000000000FFFFFFFF0F0F0F0F0F0F0FA9
:10FEF4000F387C446C386C4400FCFE2A2A3E140003
:10FF0400007E7E020206060000027E7E027E7E02E3
:10FF14000063775D4963630000387C447C3C0404DF
:10FF24000080FE7E20203E1E000406027E7C060227
:10FF34000099BDE7E7BD9900001C3E6B496B3E1C70
:10FF4400004C7E7301737E4C0030784A4F7D39003B
:10FF540000183C243C3C243C1898FC643C3E273D5F
:10FF6400181C3E6B49490000007E7F01017F7E0022
:10FF7400002A2A2A2A2A2A000044445F5F444400B3
:10FF84000040515B4E4440000040444E5B514000F1
:10FF940000000000FEFF01070660E080FF7F000014
:10FFA4000008086B6B080800002436123624361249
:10FFB4000000060F090F06000000000018180000DA
:10FFC400000000001010000000103070C0FFFF019E
:10FFD40001001F1F011F1E000000191D1712000041
:10FFE4000000003C3C3C3C0000000000000000001D
:0CFFF400000000004B414C41524D000049
:020000040020DA
:08000000FFFFFFFFFFFFFFFF00
:020000040030CA
:0E000000FF081F1EFF0981FF0FC00FE00F4019
:00000001FF
