:020000040000FA
:0400000055EF00F0C8
:100008005982FACF02F0FBCF03F0D9CF04F0DACF50
:1000180005F0F2AC12EF00F014EF00F04BEF00F037
:100028009DA019EF00F01BEF00F026EF00F09EA056
:1000380020EF00F022EF00F026EF00F094EC08F03B
:100048004BEF00F09DA82BEF00F02DEF00F037EFFD
:1000580000F09EA832EF00F034EF00F037EF00F028
:100068009E984BEF00F09DAA3CEF00F03EEF00F0A9
:100078004BEF00F09EAA43EF00F045EF00F04BEF86
:1000880000F0AE5063EC06F09E9A4BEF00F005C00E
:10009800DAFF04C0D9FF03C0FBFF02C0FAFF599280
:1000A800110051EF08F081B05CEF00F05EEF00F056
:1000B8009FEF00F0020E516E040E506EBA0EE82E3D
:1000C800FED7502EFCD7512EFAD700F000F081B0A1
:1000D80070EF00F072EF00F09FEF00F00001A05108
:1000E800D8B479EF00F07BEF00F08EEF00F0010E4E
:1000F800A925066E076A000E0722000E096E180E63
:10010800086E0BEC06F006500001A96FB1EC05F083
:100118009FEF00F0010EAC25066E076A000E07225D
:10012800000E096E180E086E0BEC06F00650000162
:10013800AC6F57EC05F081B2A4EF00F0A6EF00F029
:10014800E7EF00F0020E516E040E506EBA0EE82E64
:10015800FED7502EFCD7512EFAD700F000F081B20E
:10016800B8EF00F0BAEF00F0E7EF00F00001A0519F
:10017800D8B4C1EF00F0C3EF00F0D6EF00F0010EE5
:10018800A825066E076A000E0722000E096E3C0EAF
:10019800086E0BEC06F006500001A86FB1EC05F0F4
:1001A800E7EF00F0010EAB25066E076A000E072286
:1001B800000E096E3C0E086E0BEC06F006500001AE
:1001C800AB6F57EC05F081B4ECEF00F0EEEF00F008
:1001D80082EF01F0640E00019A27000E9B23020EA5
:1001E800516E040E506EBA0EE82EFED7502EFCD774
:1001F800512EFAD700F000F0E80E00019A5D030EC8
:100208009B59D8A00AEF01F00CEF01F076EF01F04E
:10021800A551D8A412EF01F014EF01F0A1EF01F0FD
:10022800010EA06FB1EC05F066EF01F081B01FEF91
:1002380001F021EF01F040EF01F0020E516E040EC3
:10024800506EBA0EE82EFED7502EFCD7512EFAD794
:1002580000F000F0010E0001A925066E076A000EE5
:100268000722000E096E180E086E0BEC06F00650F9
:100278000001A96FB1EC05F081B245EF01F047EF3D
:1002880001F066EF01F0020E516E040E506EBA0EC8
:10029800E82EFED7502EFCD7512EFAD700F000F0EA
:1002A800010E0001A825066E076A000E0722000E3F
:1002B800096E3C0E086E0BEC06F006500001A86FA4
:1002C80016EF01F081A46BEF01F06DEF01F01AEF6A
:1002D80001F0000E0001A06F010EA76F57EC05F0AA
:1002E800A1EF01F0A551D8B47CEF01F07EEF01F049
:1002F800A1EF01F00AEC09F0A1EF01F0E80E00010E
:100308009A5D030E9B59D8B08CEF01F08EEF01F087
:100318009DEF01F0A12B050EA119D8A496EF01F0CD
:1003280098EF01F09DEF01F0B2EC06F0000E00012D
:10033800A16F000E9B6F000E9A6F1200000E000155
:10034800B46F000EB36F000EB86F1F0EB76F4AEF91
:1003580002F0000E0001B16F000EB06F000EB66F14
:10036800000EB56F000EB26F000EBA6F070EB96FB0
:10037800B3514624486EB4514720496E48C0F6FF31
:1003880049C0F7FF000EF86E0F0EF76403D008009F
:10039800F55005D0F6CFE1FFF7CFE2FFE7504A6E00
:1003A8004A50080DF90EF3244B6EF70EF4204C6EEC
:1003B8000001B0514B26B1514C224BC0F6FF4CC046
:1003C800F7FFF86A0800F5CF4DF0B9C04EF0010EFE
:1003D8004F6E4E2AF2EF01F0D8904F364E2EF0EFC6
:1003E80001F04F504D140009D8B4FDEF01F0FFEFB4
:1003F80001F010EF02F00001B9510708486E010E34
:10040800496E482A0AEF02F0D8904936482E08EF7C
:1004180002F049500001B2130001B907D8A0BA0789
:10042800BABF1BEF02F019EF02F0BCEF01F0B8BF42
:1004380022EF02F020EF02F024EF02F03FEF02F08B
:10044800B751600FD96EDA6AB2C0DFFFB707D8A01C
:10045800B807B04BB12BB54BB62BB6BF3DEF02F08A
:10046800B65109E1080EB55DD8A03DEF02F03FEFA7
:1004780002F0B6EF01F0B34BB42BB8BF48EF02F06F
:1004880046EF02F04AEF02F069EF02F0B35146245A
:10049800486EB4514720496E48C0F6FF49C0F7FF7F
:1004A800000EF86E0F0EF76403D00800F55005D063
:1004B800F6CFE1FFF7CFE2FFE7500009D8A467EFD6
:1004C80002F069EF02F0ADEF01F06CEC02F01200FF
:1004D80020EE1EF01F0EDE6AE806FDE2000E456EF5
:1004E800000E446E44C006F045C007F0000E096EC9
:1004F800080E086EDBEC03F006C03EF007C03FF0C4
:10050800000E416E000E406E4450600FD96EDA6ADC
:10051800DF501B6E40C01CF0010E1D6E1C2A97EFA9
:1005280002F0D8901D361C2E95EF02F01D501B14BA
:100538000009D8B4A2EF02F0A4EF02F0BEEF02F077
:100548003E50080D4450F35C1B6E070E1B26010E2F
:100558001C6E1B2AB2EF02F0D8901C361B2EB0EF8F
:1005680002F03E50080DF3501E0F4024D96EDA6A8F
:100578001C50DF12404A412A41BECCEF02F04150E4
:1005880009E1080E405CD8A0CCEF02F0CEEF02F0F3
:1005980088EF02F0444A452A45BEDCEF02F0455098
:1005A80009E1200E445CD8A0DCEF02F0DEEF02F097
:1005B80076EF02F0000E436E010E426E42C00EF05E
:1005C80043C00FF042C01BF0FF0E1B261B501E0F2E
:1005D800D96EDA6ADF50106E3DEC04F0424A432AC5
:1005E80043BE00EF03F0435009E1210E425CD8A05E
:1005F80000EF03F002EF03F0E2EF02F01200C00E8A
:100608000B14106EFF0E0C14116E000E0D14126EEA
:10061800000E0E14136E000EF2BE010E146E000EC4
:10062800176E010E166E10500B180FE111500C18B2
:100638000CE112500D1809E113500E18D8B427EF29
:1006480003F029EF03F02BEF03F077EF03F00BC073
:1006580006F00CC007F00DC008F00EC009F037EC2A
:1006680008F00DC0F8FF0CC0F7FF0BC0F6FF000E36
:10067800156E6EEF03F0000E186E0F501724D96E2A
:10068800DA6ADF50F56E3F0E1818D8A44EEF03F063
:1006980050EF03F053EF03F00C0055EF03F00D009B
:1006A800172A182A3F0E18645CEF03F05EEF03F078
:1006B80041EF03F0A68EA69CA684F29E550EA76E67
:1006C800AA0EA76EA682A69414B002D0F29E01D0FC
:1006D800F28E152A1650155CD8A075EF03F077EF47
:1006E80003F03FEF03F01200EDEC08F01DEC08F00A
:1006F80001EC08F0FCEC04F027EC09F09396F28E7C
:10070800F28C57EC05F057EC00F065EC07F00001AF
:10071800A251D8B492EF03F094EF03F085EF03F001
:10072800480E8019D8A49BEF03F09DEF03F085EFE6
:1007380003F04D0E8319D8A4A4EF03F0A6EF03F03D
:1007480085EF03F03B0E8619D8A4ADEF03F0AFEFA9
:1007580003F085EF03F081510A0DF3508225F00F65
:10076800F56F84510A0DF3508525F00FF66F180EBA
:10077800F561C1EF03F0C3EF03F0D7EF03F03C0ED0
:10078800F661C9EF03F0CBEF03F0D7EF03F0000EEB
:10079800A26FF5C0ACF0F6C0ABF057EC05F0B2ECC8
:1007A80006F085EF03F085EF03F055EF00F0000E3B
:1007B8000B6E09BEE4EF03F0E2EF03F0EAEF03F09B
:1007C800086C091ED8B0092A010E0B6E07BEF1EF9E
:1007D80003F0EFEF03F0F7EF03F0066C071ED8B055
:1007E800072A010E0B1A000E0D6E000E0C6E085033
:1007F8000910D8B402EF04F004EF04F02CEF04F071
:10080800010E0A6E0CEF04F0D890083609360A2A51
:1008180009AE11EF04F013EF04F008EF04F0D890DC
:100828000C360D360850065C09500758D8A01FEF43
:1008380004F021EF04F026EF04F00850065E09509A
:10084800075A0C80D890093208320A2E13EF04F0A8
:100858000B50D8B432EF04F034EF04F038EF04F062
:100868000C6C0D1ED8B00D2A0CC006F00DC007F098
:100878001200FF0E0E24066EFF0E0F20076E000EEC
:10088800096E080E086EDBEC03F006C015F007C011
:1008980016F015C011F016C012F0D89011361236A5
:1008A800D89011361236D8901136123611C013F07E
:1008B80012C014F08B94000E186E000E176E1550AF
:1008C800171807E116501818D8A46DEF04F06FEF49
:1008D80004F085EF04F013500E5C116E14500F589D
:1008E800126E11C012F0116A10501110196E1250C8
:1008F8001A6E1A50E0EC08F01950E0EC08F08BEF93
:1009080004F0000EE0EC08F0000EE0EC08F0174AE6
:10091800182A18BE99EF04F0185009E1040E175C64
:10092800D8A099EF04F09BEF04F063EF04F08B84F8
:100938001200000E0001BC6F3C0EBB6F000EBE6FB4
:10094800000EBD6FF0EF04F081B4ADEF04F0AFEF2F
:1009580004F0C9EF04F0020E516E040E506EBA0E88
:10096800E82EFED7502EFCD7512EFAD700F000F013
:1009780081B4C1EF04F0C3EF04F0C9EF04F001EC57
:1009880008F00AEC09F0FBEF04F0F90E466EFF0ED2
:10099800476EA2EC01F0010E146EF40E136EF1EC2A
:1009A80006F0060E516E130E506EAE0EE82EFED7F0
:1009B800502EFCD7512EFAD701EC08F0060E516ED6
:1009C800130E506EAE0EE82EFED7502EFCD7512EC9
:1009D800FAD70001BD4BBE2BBB51BD5DBC51BE5902
:1009E800D8A0F9EF04F0FBEF04F0A8EF04F0120030
:1009F800800E066E1F0E076E000E086E000E096E42
:100A0800FAEC08F00001AC6F810E066E1F0E076E3F
:100A1800000E086E000E096EFAEC08F00001AB6FCC
:100A2800820E066E1F0E076E000E086E000E096E0F
:100A3800FAEC08F00001A96F830E066E1F0E076E10
:100A4800000E086E000E096EFAEC08F00001A86F9F
:100A5800840E066E1F0E076E000E086E000E096EDD
:100A6800FAEC08F00009D8A43CEF05F03FEF05F0D8
:100A7800010E40EF05F0000E0001A76F170EAC65E0
:100A880048EF05F04AEF05F04CEF05F0000EAC6FAB
:100A98003B0EAB6552EF05F054EF05F056EF05F04D
:100AA800000EAB6F1200ACC006F0076A000E096EAC
:100AB8000A0E086EDBEC03F00650300F0001C06F21
:100AC800ACC006F0076A000E096E0A0E086E0BEC41
:100AD80006F00650300F0001C16FABC006F0076A80
:100AE800000E096E0A0E086EDBEC03F00650300F9C
:100AF8000001C26FABC006F0076A000E096E0A0E4D
:100B0800086E0BEC06F00650300F0001C36F000EA4
:100B1800C46F000EC66F000EC56FC551C00FD96EE9
:100B2800DA6AC551BB0FE16EE26ADFCFE7FFC54B5A
:100B3800C62BC6BFA9EF05F0C65109E1050EC55D74
:100B4800D8A0A9EF05F0ABEF05F091EF05F0BB0ECB
:100B5800466E476AA2EC01F01200A9C006F0076AC7
:100B6800000E096E0A0E086EDBEC03F00650300F1B
:100B78000001C06FA9C006F0076A000E096E0A0ED0
:100B8800086E0BEC06F00650300F0001C16FA8C0CC
:100B980006F0076A000E096E0A0E086EDBEC03F019
:100BA8000650300F0001C26FA8C006F0076A000E99
:100BB800096E0A0E086E0BEC06F00650300F0001A5
:100BC800C36F000EC46F000EC66F000EC56FC5510F
:100BD800C00FD96EDA6AC551BB0FE16EE26ADFCF8A
:100BE800E7FFC54BC62BC6BF03EF06F0C65109E1A8
:100BF800050EC55DD8A003EF06F005EF06F0EBEF94
:100C080005F0BB0E466E476AA2EC01F01200000E1A
:100C18000B6E07BE14EF06F012EF06F01AEF06F09F
:100C2800066C071ED8B0072A010E0B6E09BE21EF0D
:100C380006F01FEF06F025EF06F0086C091ED8B085
:100C4800092A08500910D8B42CEF06F02EEF06F048
:100C580052EF06F0010E0A6E36EF06F0D89008360D
:100C680009360A2A09AE3BEF06F03DEF06F032EFEF
:100C780006F00850065C09500758D8A046EF06F061
:100C880048EF06F04CEF06F00850065E0950075A88
:100C9800D890093208320A2E3DEF06F00B50D8B42E
:100CA80058EF06F05AEF06F05EEF06F0066C071EE6
:100CB800D8B0072A06C006F007C007F01200016E78
:100CC800480E0118D8A46BEF06F06DEF06F07EEF22
:100CD80006F05450D8A473EF06F075EF06F07EEFD7
:100CE80006F05450800FD96EDA6A480EDF6E542A27
:100CF800B1EF06F05450D8B484EF06F086EF06F052
:100D080096EF06F0070E54608CEF06F08EEF06F0B3
:100D180096EF06F05450800FD96EDA6A01C0DFFFF3
:100D28007BEF06F0070E5418D8A49DEF06F09FEF4E
:100D380006F0B1EF06F03B0E0118D8A4A6EF06F0B6
:100D4800A8EF06F0B1EF06F03B0E0001866F000E2B
:100D5800546E010EA26FB1EF06F01200800E000172
:100D6800F06F1F0EF16F000EF26F000EF36F000EA2
:100D7800F46FF451B00FD96EDA6AF451F025066EAB
:100D8800000EF121076E000EF221086E000EF3210D
:100D9800096EFAEC08F0DF6E0001F42B3F0EF465E3
:100DA800D8EF06F0DAEF06F0BDEF06F0ACC0B0F011
:100DB800ABC0B1F0A9C0B2F0A8C0B3F0A7C0B4F0FE
:100DC800F0C00BF0F1C00CF0F2C00DF0F3C00EF063
:100DD800B00E0F6E03EC03F0120013C006F014C03F
:100DE80007F0030E096EE80E086EA9EC08F006C0BD
:100DF8000CF007C00DF0000E0F6EF40E0E6E2BEC0B
:100E080007F00CC015F00DC016F0000E186E000E9D
:100E1800176E1FEF07F08A86000E076E7A0E066EB1
:100E28007FEC08F08A96000E076E7A0E066E7FEC4D
:100E380008F0174A182A1550175C16501858D8A0E9
:100E480028EF07F02AEF07F00FEF07F01200000E67
:100E5800126E000E116E0E500F10D8B436EF07F058
:100E680038EF07F060EF07F0010E106E40EF07F063
:100E7800D8900E360F36102A0FAE45EF07F047EF21
:100E880007F03CEF07F0D890113612360E500C5C84
:100E98000F500D58D8A053EF07F055EF07F05AEF51
:100EA80007F00E500C5E0F500D5A1180D8900F327B
:100EB8000E32102E47EF07F011C00CF012C00DF0E3
:100EC80012000001A751D8B46CEF07F06EEF07F0DD
:100ED8008DEF07F0A551D8A474EF07F076EF07F06F
:100EE8008DEF07F0A951AC19D8A47DEF07F07FEF7B
:100EF80007F08DEF07F0A851AB19D8A486EF07F0DB
:100F080088EF07F08DEF07F09DEC04F0010E00016B
:100F1800A56F12000A6E07500AC008F0096A08C0D7
:100F280009F0086A08100B6E09500C6E8B94000EBD
:100F38000E6E000E0D6E0C50E0EC08F00B50E0EC5D
:100F480008F00D4A0E2A0EBEB3EF07F00E5009E165
:100F5800040E0D5CD8A0B3EF07F0B5EF07F09FEFD4
:100F680007F08B8412009D9A9D98000E066E000E65
:100F7800076E1AEC09F0000E066E000E076E1FECE5
:100F880009F0080EB86E900EAB6E240EAC6ECF0E44
:100F9800AF6E000EB06E000E586E000E576E080E43
:100FA800566E000E556E000E0001AF6F000EAE6F4C
:100FB8009D8A12000001AA2B3B0EAA65E6EF07F0F6
:100FC800E8EF07F000EF08F0000EAA6FAB2B3B0E1E
:100FD800AB65F1EF07F0F3EF07F000EF08F0000E54
:100FE800AB6FAC2B170EAC65FCEF07F0FEEF07F00C
:100FF80000EF08F0000EAC6F1200000E476E000EF6
:10100800466E4650600FD96EDA6ADF6A464A472A4A
:1010180047BE18EF08F0475009E11F0E465CD8A0FC
:1010280018EF08F01AEF08F005EF08F06CEC02F082
:101038001200000E076E090E8EEC07F0010E076E07
:101048000A0E8EEC07F0070E076E0B0E8EEC07F0FB
:10105800010E076E0C0E8EEC07F0000E076E0F0ED9
:101068008EEC07F01200000EF2BE010E0A6E08C0E8
:10107800F8FF07C0F7FF06C0F6FFA68EA69CA68459
:10108800A688F29E550EA76EAA0EA76EA6820AB073
:1010980002D0F29E01D0F28E120001EE00F0200E76
:1010A800EE6AE806FDE100EE60F0500EEE6AE80632
:1010B800FDE100EE52F0070EEE6AE806FDE15990F8
:1010C8005992000178EF03F00001F751F811D8B4F4
:1010D80070EF08F072EF08F07EEF08F002D87EEFAC
:1010E80008F00500FA6EF751FD6EF851FE6EFF6AC2
:1010F800FA5012001200000E096E000E086E88EFFA
:1011080008F00000084A092A0650085C07500958E8
:10111800D8A091EF08F093EF08F085EF08F01200DF
:101128009E905350CF6E52C0CEFF0001AD2B0F0ED4
:10113800AD65A1EF08F0A3EF08F0A8EF08F068ECA0
:1011480008F0000E0001AD6F120006500802F3CF40
:101158000AF0F4CF0BF006500902F3500B260750A3
:101168000802F3500B260AC006F00BC007F0120065
:10117800F00ECF6E000ECE6ECECF52F0CFCF53F022
:101188009E909D80480E066E120E076E10EC09F0B8
:101198008F0ECD6E1200000E896E000E8A6E2C0E18
:1011A8008B6E92689368930E946E0A0E7F6E1F0E74
:1011B8007E6E7C68F19E1200066EC69E06C0C9FF50
:1011C800C7A0E9EF08F0EBEF08F0E4EF08F0C9502A
:1011D800120029EC09F0CFEC08F015EC09F003EC4B
:1011E80009F0BCEC08F0B7EC07F0120008C0F8FFF3
:1011F80007C0F7FF06C0F6FF0800F5501200C00E42
:10120800C76E300EC66E000EC86E1200000E0001CA
:10121800A56F000EA76F120006C0F7F007C0F8F020
:1012280012006A0ED36E000E9B6E120006C0FBF011
:1012380007C0FCF0120006C0F9F007C0FAF012006F
:0E124800DEEC07F01200CD801200D09E1200E6
:10F7F8000000000000000000007E8195B1B19581F5
:10F808007E7EFFEBCFCFEBFF7E0E1F3F7E3F1F0EAE
:10F8180000081C3E7F3E1C080018BAFFFFFFBA18FC
:10F828000010B8FCFFFCB810000000183C3C1800A1
:10F8380000FFFFE7C3C3E7FFFF003C664242663CA8
:10F8480000FFC399BDBD99C3FF70F88888FD7F0785
:10F858000F004E5FF1F15F4E00C0E0FF7F05050726
:10F8680007C0FF7F0505657F3F995A3CE7E73C5A8B
:10F87800997F3E3E1C1C08080008081C1C3E3E7F61
:10F8880000002466FFFF662400005F5F00005F5FE2
:10F8980000060F097F7F017F7F40DABFA5FD59036E
:10F8A8000200707070707070008094B6FFFFB6949C
:10F8B800800004067F7F0604000010307F7F301030
:10F8C800000808082A3E1C0800081C3E2A080808E8
:10F8D800003C3C202020202000081C3E08083E1C3C
:10F8E8000830383C3E3E3C3830060E1E3E3E1E0E6A
:10F8F80006000000000000000000065F5F06000030
:10F90800000007070007070000147F7F147F7F149B
:10F9180000242E6B6B3A120000466630180C6662A3
:10F9280000307A4F5D377A48000407030000000072
:10F9380000001C3E63410000000041633E1C0000C3
:10F9480000082A3E1C1C3E2A0808083E3E080800FB
:10F95800000080E0600000000008080808080800AF
:10F968000000006060000000006030180C06030111
:10F97800003E7F71594D7F3E0040427F7F404000EE
:10F9880000627359496F660000226349497F360057
:10F9980000181C16537F7F5000276745457D3900A6
:10F9A800003C7E4B4979300000030371790F070052
:10F9B80000367F49497F360000064F49693F1E00DF
:10F9C8000000006666000000000080E66600000097
:10F9D80000081C3663410000002424242424240049
:10F9E80000004163361C080000020351590F06004D
:10F9F800003E7F415D5D1F1E007C7E13137E7C00F0
:10FA080000417F7F49497F36001C3E6341416322A4
:10FA180000417F7F41633E1C00417F7F495D416318
:10FA280000417F7F491D0103001C3E6341517372F1
:10FA3800007F7F08087F7F000000417F7F41000032
:10FA480000307040417F3F0100417F7F081C776391
:10FA580000417F7F4140607000007F0E1C0E7F00D8
:10FA6800007F7F060C187F7F001C3E6341633E1CAD
:10FA780000417F7F49090F06001E3F21717F5E000C
:10FA880000417F7F09197F6600266F4D5973320048
:10FA98000003417F7F410300007F7F40407F7F005C
:10FAA800001F3F60603F1F00007F7F3018307F7F5E
:10FAB8000043673C183C674300074F78784F0700BE
:10FAC80000476371594D677300007F7F4141000013
:10FAD800000103060C183060000041417F7F0000E0
:10FAE80000080C0603060C08008080808080808057
:10FAF800800000030704000000207454543C784040
:10FB080000417F3F4848783000387C44446C2800E6
:10FB180000307848493F7F4000387C54545C1800D6
:10FB280000487E7F490302000098BCA4A4F87C0426
:10FB380000417F7F08047C780000447D7D40000000
:10FB48000060E08080FD7D0000417F7F10386C44BC
:10FB58000000417F7F400000007C7C18381C7C78C6
:10FB6800007C7C04047C780000387C44447C3800A9
:10FB78000084FCF8A4243C1800183C24A4F8FC8455
:10FB880000447C784C041C1800485C5454742400CD
:10FB98000000043E7F442400003C7C40403C7C4004
:10FBA800001C3C60603C1C00003C7C7038707C3C55
:10FBB80000446C3810386C44009CBCA0A0FC7C004D
:10FBC800004C64745C4C64000008083E77414100B6
:10FBD8000000000077770000004141773E080800E8
:10FBE80000020301030203010070784C464C787050
:10FBF800000E9F91B1FB4A00003A7A40407A7A4061
:10FC080000387C54555D19000002237555557D7BDD
:10FC180042217554547D794000217555547C7840B3
:10FC280000207457577C784000183CA4A4E4400096
:10FC380000023B7D55555D1B02397D54545D19000A
:10FC480000397D55545C18000001457C7C41010059
:10FC5800000203457D7D43020001457D7C40000094
:10FC680000797D1612167D790070782B2B7870003C
:10FC780000447C7C5555450000207454547C7C54C9
:10FC8800547C7E0B097F7F4900327B49497B3200D7
:10FC980000327A48487A320000327A4A487830008E
:10FCA800003A7B41417B7A40003A7A42407878407A
:10FCB800009ABAA0A0FA7A000001193C66663C19BD
:10FCC800013D7D40407D3D0000183C24E7E72424A9
:10FCD80000687E7F49436620002B2FFCFC2F2B00F9
:10FCE80000FFFF09092FF6F8A040C088FE7F09032E
:10FCF80002207454557D79400000447D7D41000008
:10FD0800003078484A7A320000387840427A7A409F
:10FD1800007A7A0A0A7A7000007D7D19317D7D00AB
:10FD28000000262F292F2F280000262F292F2600F4
:10FD38000030784D45602000003838080808080071
:10FD48000008080808383800004F6F3018CCEEBBA0
:10FD5800914F6F30186C76FBF90000007B7B000038
:10FD680000081C3622081C362222361C0822361CA3
:10FD780008AA005500AA005500AA55AA55AA55AACE
:10FD880055DDFFAA77DDAAFF77000000FFFF00001E
:10FD980000101010FFFF000000141414FFFF0000F3
:10FDA800001010FFFF00FFFF001010F0F010F0F03F
:10FDB80000141414FCFC0000001414F7F700FFFFF3
:10FDC800000000FFFF00FFFF001414F4F404FCFC23
:10FDD8000014141717101F1F0010101F1F101F1FCB
:10FDE800001414141F1F000000101010F0F0000081
:10FDF800000000001F1F1010101010101F1F1010FF
:10FE080010101010F0F0101010000000FFFF10107C
:10FE1800101010101010101010101010FFFF1010FC
:10FE280010000000FFFF1414140000FFFF00FFFF84
:10FE38001000001F1F101717140000FCFC04F4F436
:10FE48001414141717101717141414F4F404F4F4F2
:10FE5800140000FFFF00F7F71414141414141414FA
:10FE6800141414F7F700F7F71414141417171414CC
:10FE78001410101F1F101F1F10141414F4F414145E
:10FE8800141010F0F010F0F01000001F1F101F1FCA
:10FE9800100000001F1F141414000000FCFC1414B0
:10FEA800140000F0F010F0F0101010FFFF10FFFF2A
:10FEB80010141414FFFF1414141010101F1F000046
:10FEC80000000000F0F0101010FFFFFFFFFFFFFF21
:10FED800FFF0F0F0F0F0F0F0F0FFFFFFFF0000009F
:10FEE8000000000000FFFFFFFF0F0F0F0F0F0F0FA5
:10FEF8000F387C446C386C4400FCFE2A2A3E1400FF
:10FF0800007E7E020206060000027E7E027E7E02DF
:10FF18000063775D4963630000387C447C3C0404DB
:10FF28000080FE7E20203E1E000406027E7C060223
:10FF38000099BDE7E7BD9900001C3E6B496B3E1C6C
:10FF4800004C7E7301737E4C0030784A4F7D390037
:10FF580000183C243C3C243C1898FC643C3E273D5B
:10FF6800181C3E6B49490000007E7F01017F7E001E
:10FF7800002A2A2A2A2A2A000044445F5F444400AF
:10FF88000040515B4E4440000040444E5B514000ED
:10FF980000000000FEFF01070660E080FF7F000010
:10FFA8000008086B6B080800002436123624361245
:10FFB8000000060F090F06000000000018180000D6
:10FFC800000000001010000000103070C0FFFF019A
:10FFD80001001F1F011F1E000000191D171200003D
:10FFE8000000003C3C3C3C00000000000000000019
:08FFF80000414C41524D000094
:020000040020DA
:08000000FFFFFFFFFFFFFFFF00
:020000040030CA
:0E000000FF081F1EFF0981FF0FC00FE00F4019
:00000001FF
