:020000040000FA
:0400000032EF00F0EB
:100008005C82D9CF02F0DACF03F09DA80EEF00F0A2
:1000180010EF00F01AEF00F09EA815EF00F017EFB0
:1000280000F01AEF00F09E982CEF00F09DAA1FEF49
:1000380000F021EF00F02CEF00F09EAA26EF00F070
:1000480028EF00F02CEF00F0AE5011EC06F09E9A6D
:1000580003C0DAFF02C0D9FF5C921100C9EF07F0B4
:1000680081B039EF00F03BEF00F07CEF00F0020EBA
:100078000001E06F040EDF6FBA0EE82EFED7DF2F07
:10008800FCD7E02FFAD7000081B04DEF00F04FEF1A
:1000980000F07CEF00F00001C251D8B456EF00F038
:1000A80058EF00F06BEF00F0010ECB25046E056AE7
:1000B800000E0522000E076E180E066EB9EC05F04C
:1000C80004500001CB6F5FEC05F07CEF00F0010EEF
:1000D800CE25046E056A000E0522000E076E180E66
:1000E800066EB9EC05F004500001CE6F05EC05F082
:1000F80081B281EF00F083EF00F0C4EF00F0020E50
:100108000001E06F040EDF6FBA0EE82EFED7DF2F76
:10011800FCD7E02FFAD7000081B295EF00F097EFF7
:1001280000F0C4EF00F00001C251D8B49EEF00F017
:10013800A0EF00F0B3EF00F0010ECA25046E056AC7
:10014800000E0522000E076E3C0E066EB9EC05F097
:1001580004500001CA6F5FEC05F0C4EF00F0010E17
:10016800CD25046E056A000E0522000E076E3C0EB2
:10017800066EB9EC05F004500001CD6F05EC05F0F2
:1001880081B4C9EF00F0CBEF00F05FEF01F0640E2F
:100198000001BA27000EBB23020E0001E06F040E17
:1001A800DF6FBA0EE82EFED7DF2FFCD7E02FFAD785
:1001B8000000B80E0001BA5D0B0EBB59D8A0E7EFDE
:1001C80000F0E9EF00F053EF01F0C751D8A4EFEFCA
:1001D80000F0F1EF00F07EEF01F0010EC26F5FEC6E
:1001E80005F043EF01F081B0FCEF00F0FEEF00F006
:1001F8001DEF01F0020E0001E06F040EDF6FBA0E72
:10020800E82EFED7DF2FFCD7E02FFAD70000010E2B
:100218000001CB25046E056A000E0522000E076E4C
:10022800180E066EB9EC05F004500001CB6F5FECB8
:1002380005F081B222EF01F024EF01F043EF01F065
:10024800020E0001E06F040EDF6FBA0EE82EFED733
:10025800DF2FFCD7E02FFAD70000010E0001CA25D6
:10026800046E056A000E0522000E076E3C0E066E2F
:10027800B9EC05F004500001CA6FF3EF00F081A457
:1002880048EF01F04AEF01F0F7EF00F0000E00012F
:10029800C26F010EC96F05EC05F07EEF01F0C75182
:1002A800D8B459EF01F05BEF01F07EEF01F00EECEE
:1002B80008F07EEF01F0B80E0001BA5D0B0EBB59D5
:1002C800D8B069EF01F06BEF01F07AEF01F0C32BC2
:1002D800050EC319D8A473EF01F075EF01F07AEF9A
:1002E80001F060EC06F0000E0001C36F000EBB6F5A
:1002F800000EBA6F1200000E526E000E516E000E04
:10030800566E1F0E556E21EF02F0000E4F6E000E56
:100318004E6E000E546E000E536E000E506E000EA0
:10032800586E070E576E51504424466E5250452061
:10033800476E46C0F6FF47C0F7FF000EF86E0F0E77
:10034800F76403D00800F55005D0F6CFE1FFF7CFEA
:10035800E2FFE750486E4850080DF90EF324496E45
:10036800F70EF4204A6E4E5049264F504A2249C093
:10037800F6FF4AC0F7FFF86A0800F5CF4BF057C000
:100388004CF0010E4D6E4C2ACCEF01F0D8904D3652
:100398004C2ECAEF01F04D504B140009D8B4D7EFDA
:1003A80001F0D9EF01F0E8EF01F057500708466E69
:1003B800010E476E462AE3EF01F0D8904736462EE5
:1003C800E1EF01F0475050125706D8A0580658BE22
:1003D800F2EF01F0F0EF01F097EF01F056BEF9EF00
:1003E80001F0F7EF01F0FBEF01F016EF02F05550C6
:1003F800800FD96EDA6A50C0DFFF5506D8A05606BE
:100408004E4A4F2A534A542A54BE14EF02F054500D
:1004180009E1080E535CD8A014EF02F016EF02F0C1
:1004280091EF01F0514A522A56BE1FEF02F01DEF1C
:1004380002F021EF02F040EF02F051504424466EE2
:1004480052504520476E46C0F6FF47C0F7FF000EE2
:10045800F86E0F0EF76403D00800F55005D0F6CFFC
:10046800E1FFF7CFE2FFE7500009D8A43EEF02F022
:1004780040EF02F089EF01F043EC02F0120020EEA9
:100488001CF01F0EDE6AE806FDE2000E436E000E49
:10049800426E42C004F043C005F0000E076E080E1D
:1004A800066EE6EC03F004C03CF005C03DF0000E1B
:1004B8003F6E000E3E6E4250800FD96EDA6ADF50F2
:1004C800196E3EC01AF0010E1B6E1A2A6EEF02F06A
:1004D800D8901B361A2E6CEF02F01B501914000925
:1004E800D8B479EF02F07BEF02F095EF02F03C50C0
:1004F800080D4250F35C196E070E1926010E1A6E8C
:10050800192A89EF02F0D8901A36192E87EF02F0CF
:100518003C50080DF3501C0F3E24D96EDA6A1A506D
:10052800DF123E4A3F2A3FBEA3EF02F03F5009E1E7
:10053800080E3E5CD8A0A3EF02F0A5EF02F05FEF33
:1005480002F0424A432A43BEB3EF02F0435009E1A6
:10055800200E425CD8A0B3EF02F0B5EF02F04DEFE9
:1005680002F0000E416E010E406E40C00CF041C01A
:100578000DF040C019F0FF0E192619501C0FD96E46
:10058800DA6ADF500E6E48EC04F0404A412A41BE58
:10059800D7EF02F0415009E1210E405CD8A0D7EF17
:1005A80002F0D9EF02F0B9EF02F01200A7EC07F061
:1005B8005FEC07F043EC07F09DEC06F029EC08F03F
:1005C800F28EF28CE4EC07F00009D8B4EEEF02F0FA
:1005D800F0EF02F019EF03F005EC05F00001CC2B69
:1005E8003B0ECC65FAEF02F0FCEF02F014EF03F0DB
:1005F800000ECC6FCD2B3B0ECD6505EF03F007EF5A
:1006080003F014EF03F0000ECD6FCE2B170ECE655E
:1006180010EF03F012EF03F014EF03F0000ECE6FAB
:1006280014EC08F0F29429EC08F005EC05F034EC31
:1006380000F0CAEC06F00001C451D8B426EF03F06C
:1006480028EF03F0E6EF02F0480EA019D8A42FEF28
:1006580003F031EF03F0E6EF02F04D0EA319D8A432
:1006680038EF03F03AEF03F0E6EF02F03B0EA6197D
:10067800D8A441EF03F043EF03F0E6EF02F0A151F5
:100688000A0DF350A225F00FE16FA4510A0DF350A3
:10069800A525F00FE26F180EE16155EF03F057EF53
:1006A80003F06BEF03F03C0EE2615DEF03F05FEFE8
:1006B80003F06BEF03F0000EC46FE1C0CEF0E2C0B0
:1006C800CDF005EC05F060EC06F0E6EF02F0E6EFA1
:1006D80002F032EF00F0C00E09140F6EFF0E0A147C
:1006E800106E000E0B14116E000E0C14126E000E1C
:1006F800F2BE010E136E000E166E010E156E0F502F
:1007080009180FE110500A180CE111500B1809E1F3
:1007180012500C18D8B493EF03F095EF03F097EF4D
:1007280003F0E5EF03F009C004F00AC005F00BC0C0
:1007380006F00CC007F079EC07F00BC0F8FF0AC010
:10074800F7FF09C0F6FF000E146EDCEF03F0000E91
:10075800176E16500D24D96E000E0E20DA6EDF507B
:10076800F56E3F0E1718D8A4BCEF03F0BEEF03F0E8
:10077800C1EF03F00C00C3EF03F00D00162A172A8F
:100788003F0E1764CAEF03F0CCEF03F0ADEF03F0B0
:10079800A68EA69CA684F29E550EA76EAA0EA76EDC
:1007A800A682A69413B002D0F29E01D0F28E142A2B
:1007B8001550145CD8A0E3EF03F0E5EF03F0ABEFBE
:1007C80003F01200000E096E07BEEFEF03F0EDEF25
:1007D80003F0F5EF03F0066C071ED8B0072A010EE8
:1007E800096E05BEFCEF03F0FAEF03F002EF04F028
:1007F800046C051ED8B0052A010E091A000E0B6EEE
:10080800000E0A6E06500710D8B40DEF04F00FEF73
:1008180004F037EF04F0010E086E17EF04F0D890DB
:1008280006360736082A07AE1CEF04F01EEF04F060
:1008380013EF04F0D8900A360B360650045C0750C4
:100848000558D8A02AEF04F02CEF04F031EF04F09B
:100858000650045E0750055A0A80D89007320632BF
:10086800082E1EEF04F00950D8B43DEF04F03FEF16
:1008780004F043EF04F00A6C0B1ED8B00B2A0AC030
:1008880004F00BC005F01200FF0E0C24046EFF0EDE
:100898000D20056E000E076E080E066EE6EC03F0DE
:1008A80004C013F005C014F013C00FF014C010F00A
:1008B800D8900F361036D8900F361036D8900F369D
:1008C80010360FC011F010C012F08B94000E166E87
:1008D800000E156E1350151807E114501618D8A4F9
:1008E80078EF04F07AEF04F090EF04F011500C5C0C
:1008F8000F6E12500D58106E0FC010F00F6A0E5088
:100908000F10176E1050186E1850D7EC07F01750CC
:10091800D7EC07F096EF04F0000ED7EC07F0000EC6
:10092800D7EC07F0154A162A16BEA4EF04F01650A5
:1009380009E1040E155CD8A0A4EF04F0A6EF04F0BA
:100948006EEF04F08B841200000E0001D66F3C0E8F
:10095800D56F000ED86F000ED76FF9EF04F081B491
:10096800B8EF04F0BAEF04F0D2EF04F0020E000181
:10097800D46F040ED36FBA0EE82EFED7D32FFCD750
:10098800D42FFAD7000081B4CCEF04F0CEEF04F0F6
:10099800D2EF04F043EC07F004EF05F0F90E446ED3
:1009A800FF0E456E7FEC01F0060E0001D46F130EAA
:1009B800D36FAD0EE82EFED7D32FFCD7D42FFAD79E
:1009C80000F000F043EC07F0060E0001D46F130EA0
:1009D800D36FAD0EE82EFED7D32FFCD7D42FFAD77E
:1009E80000F000F00001D74BD82BD551D75DD65178
:1009F800D859D8A002EF05F004EF05F0B3EF04F0E2
:100A08001200CEC004F0056A000E076E0A0E066ECC
:100A1800E6EC03F00450300F0001D86FCEC004F0AC
:100A2800056A000E076E0A0E066EB9EC05F0045052
:100A3800300F0001D96FCDC004F0056A000E076EB3
:100A48000A0E066EE6EC03F00450300F0001DA6F70
:100A5800CDC004F0056A000E076E0A0E066EB9ECEA
:100A680005F00450300F0001DB6F000EDC6F000E44
:100A7800DE6F000EDD6FDD51D80FD96EDA6ADD51F9
:100A8800D30FE16EE26ADFCFE7FFDD4BDE2BDEBF7F
:100A980057EF05F0DE5109E1050EDD5DD8A057EFEF
:100AA80005F059EF05F03FEF05F0D30E446E456AA7
:100AB8007FEC01F01200CBC004F0056A000E076E4F
:100AC8000A0E066EE6EC03F00450300F0001D86FF2
:100AD800CBC004F0056A000E076E0A0E066EB9EC6C
:100AE80005F00450300F0001D96FCAC004F0056A40
:100AF800000E076E0A0E066EE6EC03F00450300F87
:100B08000001DA6FCAC004F0056A000E076E0A0E0B
:100B1800066EB9EC05F00450300F0001DB6F000ED3
:100B2800DC6F000EDE6F000EDD6FDD51D80FD96E61
:100B3800DA6ADD51D30FE16EE26ADFCFE7FFDD4B02
:100B4800DE2BDEBFB1EF05F0DE5109E1050EDD5DFC
:100B5800D8A0B1EF05F0B3EF05F099EF05F0D30E8B
:100B6800446E456A7FEC01F01200000E096E05BE66
:100B7800C2EF05F0C0EF05F0C8EF05F0046C051EE4
:100B8800D8B0052A010E096E07BECFEF05F0CDEFEC
:100B980005F0D3EF05F0066C071ED8B0072A0650FB
:100BA8000710D8B4DAEF05F0DCEF05F000EF06F037
:100BB800010E086EE4EF05F0D89006360736082ACD
:100BC80007AEE9EF05F0EBEF05F0E0EF05F00650B2
:100BD800045C07500558D8A0F4EF05F0F6EF05F0CF
:100BE800FAEF05F00650045E0750055AD890073210
:100BF8000632082EEBEF05F00950D8B406EF06F0E0
:100C080008EF06F00CEF06F0046C051ED8B0052AB4
:100C180004C004F005C005F01200016E480E01186A
:100C2800D8A419EF06F01BEF06F02CEF06F0595088
:100C3800D8A421EF06F023EF06F02CEF06F0595068
:100C4800A00FD96EDA6A480EDF6E592A5FEF06F0F8
:100C58005950D8B432EF06F034EF06F044EF06F0FE
:100C6800070E59603AEF06F03CEF06F044EF06F045
:100C78005950A00FD96EDA6A01C0DFFF29EF06F0DC
:100C8800070E5918D8A44BEF06F04DEF06F05FEFAA
:100C980006F03B0E0118D8A454EF06F056EF06F004
:100CA8005FEF06F03B0E0001A66F000E596E010EB5
:100CB800C46F5FEF06F01200800E0101406F1F0E37
:100CC800416F000E426F000E436F000E446F000E1E
:100CD8004425D96EDA6A010EDA2244514025046EA1
:100CE800000E4121056E000E4221066E000E4321C2
:100CF800076EEEEC07F0DF6E0101442B3F0E4465F2
:100D080088EF06F08AEF06F06BEF06F0CEC000F130
:100D1800CDC001F140C109F041C10AF042C10BF058
:100D280043C10CF0000E0D6E010E0E6E6FEC03F059
:100D38001200800E046E1F0E056E000E066E000E69
:100D4800076EEEEC07F00001CE6F810E046E1F0EE9
:100D5800056E000E066E000E076EEEEC07F0000141
:100D6800CD6F170ECE65BBEF06F0BDEF06F0BFEFF7
:100D780006F0000ECE6F3B0ECD65C5EF06F0C7EF4F
:100D880006F0C9EF06F0000ECD6F12000001C95140
:100D9800D8B4D1EF06F0D3EF06F0F2EF06F0C75162
:100DA800D8A4D9EF06F0DBEF06F0F2EF06F0CB514E
:100DB800CE19D8A4E2EF06F0E4EF06F0F2EF06F061
:100DC800CA51CD19D8A4EBEF06F0EDEF06F0F2EF1B
:100DD80006F0A8EC04F0010E0001C76F1200086EBF
:100DE800055008C006F0076A06C007F0066A061034
:100DF800096E07500A6E8B94000E0C6E000E0B6E77
:100E08000A50D7EC07F00950D7EC07F00B4A0C2A28
:100E18000CBE18EF07F00C5009E1040E0B5CD8A0CB
:100E280018EF07F01AEF07F004EF07F08B841200B1
:100E38009D9A9D98000E046E000E056E1FEC08F03A
:100E4800000E046E000E056E24EC08F0080EB86E55
:100E5800900EAB6E240EAC6ECF0EAF6E000EB06E61
:100E6800000E5B6E000E5A6E080E0001D26F000E67
:100E7800D16F000ED06F000ECF6F9D8A1200000E4A
:100E8800456E000E446E4450800FD96EDA6ADF6AF0
:100E9800444A452A45BE5AEF07F0455009E11F0E5E
:100EA800445CD8A05AEF07F05CEF07F047EF07F073
:100EB80043EC02F01200000E056E090EF3EC06F08A
:100EC800010E056E0A0EF3EC06F0070E056E0B0E0A
:100ED800F3EC06F0010E056E0C0EF3EC06F0000EB6
:100EE800056E0F0EF3EC06F01200000EF2BE010EB6
:100EF800086E06C0F8FF05C0F7FF04C0F6FFA68E0F
:100F0800A69CA684A688F29E550EA76EAA0EA76E6A
:100F1800A68208B002D0F29E01D0F28E12000B0E0B
:100F2800D76EDB0ED66ED650D7CF04F0056A04C054
:100F380005F0046A04100001C06F0550C16FF294F7
:100F4800940ED56E12002BEC08F0B8EC07F01AECF2
:100F580008F000EC08F007EC08F0F7EC07F093EC69
:100F680007F01CEC07F01200000E896E000E8A6E66
:100F78002C0E8B6E92689368910E946E0A0E7F6E9B
:100F88001F0E7E6E7C68F19E120000EE60F0730EFC
:100F9800EE6AE806FDE15B6A5A6A596A5C905C92FF
:100FA8000001DAEF02F0046EC69E04C0C9FFC7A0B4
:100FB800E0EF07F0E2EF07F0DBEF07F0C9501200AF
:100FC800F2B4E9EF07F0ECEF07F0010EEDEF07F0F0
:100FD800000E120006C0F8FF05C0F7FF04C0F6FFB8
:100FE8000800F55012007C0ECB6E000ECC6E9E925F
:100FF8001D0ECA6ECA841200C00EC76E300EC66EB1
:10100800000EC86E12001C0EBA6E3E0EBB6E000EAD
:10101800BC6E1200000E0001C76F000EC96F1200EF
:101028000001C151D76EC0C0D6FF1200620ED36E48
:10103800000E9B6E120004C0E5F005C0E6F0120039
:1010480004C0E3F005C0E4F01200D58E1200D09E73
:02105800120084
:10F7F8000000000000000000007E8195B1B19581F5
:10F808007E7EFFEBCFCFEBFF7E0E1F3F7E3F1F0EAE
:10F8180000081C3E7F3E1C080018BAFFFFFFBA18FC
:10F828000010B8FCFFFCB810000000183C3C1800A1
:10F8380000FFFFE7C3C3E7FFFF003C664242663CA8
:10F8480000FFC399BDBD99C3FF70F88888FD7F0785
:10F858000F004E5FF1F15F4E00C0E0FF7F05050726
:10F8680007C0FF7F0505657F3F995A3CE7E73C5A8B
:10F87800997F3E3E1C1C08080008081C1C3E3E7F61
:10F8880000002466FFFF662400005F5F00005F5FE2
:10F8980000060F097F7F017F7F40DABFA5FD59036E
:10F8A8000200707070707070008094B6FFFFB6949C
:10F8B800800004067F7F0604000010307F7F301030
:10F8C800000808082A3E1C0800081C3E2A080808E8
:10F8D800003C3C202020202000081C3E08083E1C3C
:10F8E8000830383C3E3E3C3830060E1E3E3E1E0E6A
:10F8F80006000000000000000000065F5F06000030
:10F90800000007070007070000147F7F147F7F149B
:10F9180000242E6B6B3A120000466630180C6662A3
:10F9280000307A4F5D377A48000407030000000072
:10F9380000001C3E63410000000041633E1C0000C3
:10F9480000082A3E1C1C3E2A0808083E3E080800FB
:10F95800000080E0600000000008080808080800AF
:10F968000000006060000000006030180C06030111
:10F97800003E7F71594D7F3E0040427F7F404000EE
:10F9880000627359496F660000226349497F360057
:10F9980000181C16537F7F5000276745457D3900A6
:10F9A800003C7E4B4979300000030371790F070052
:10F9B80000367F49497F360000064F49693F1E00DF
:10F9C8000000006666000000000080E66600000097
:10F9D80000081C3663410000002424242424240049
:10F9E80000004163361C080000020351590F06004D
:10F9F800003E7F415D5D1F1E007C7E13137E7C00F0
:10FA080000417F7F49497F36001C3E6341416322A4
:10FA180000417F7F41633E1C00417F7F495D416318
:10FA280000417F7F491D0103001C3E6341517372F1
:10FA3800007F7F08087F7F000000417F7F41000032
:10FA480000307040417F3F0100417F7F081C776391
:10FA580000417F7F4140607000007F0E1C0E7F00D8
:10FA6800007F7F060C187F7F001C3E6341633E1CAD
:10FA780000417F7F49090F06001E3F21717F5E000C
:10FA880000417F7F09197F6600266F4D5973320048
:10FA98000003417F7F410300007F7F40407F7F005C
:10FAA800001F3F60603F1F00007F7F3018307F7F5E
:10FAB8000043673C183C674300074F78784F0700BE
:10FAC80000476371594D677300007F7F4141000013
:10FAD800000103060C183060000041417F7F0000E0
:10FAE80000080C0603060C08008080808080808057
:10FAF800800000030704000000207454543C784040
:10FB080000417F3F4848783000387C44446C2800E6
:10FB180000307848493F7F4000387C54545C1800D6
:10FB280000487E7F490302000098BCA4A4F87C0426
:10FB380000417F7F08047C780000447D7D40000000
:10FB48000060E08080FD7D0000417F7F10386C44BC
:10FB58000000417F7F400000007C7C18381C7C78C6
:10FB6800007C7C04047C780000387C44447C3800A9
:10FB78000084FCF8A4243C1800183C24A4F8FC8455
:10FB880000447C784C041C1800485C5454742400CD
:10FB98000000043E7F442400003C7C40403C7C4004
:10FBA800001C3C60603C1C00003C7C7038707C3C55
:10FBB80000446C3810386C44009CBCA0A0FC7C004D
:10FBC800004C64745C4C64000008083E77414100B6
:10FBD8000000000077770000004141773E080800E8
:10FBE80000020301030203010070784C464C787050
:10FBF800000E9F91B1FB4A00003A7A40407A7A4061
:10FC080000387C54555D19000002237555557D7BDD
:10FC180042217554547D794000217555547C7840B3
:10FC280000207457577C784000183CA4A4E4400096
:10FC380000023B7D55555D1B02397D54545D19000A
:10FC480000397D55545C18000001457C7C41010059
:10FC5800000203457D7D43020001457D7C40000094
:10FC680000797D1612167D790070782B2B7870003C
:10FC780000447C7C5555450000207454547C7C54C9
:10FC8800547C7E0B097F7F4900327B49497B3200D7
:10FC980000327A48487A320000327A4A487830008E
:10FCA800003A7B41417B7A40003A7A42407878407A
:10FCB800009ABAA0A0FA7A000001193C66663C19BD
:10FCC800013D7D40407D3D0000183C24E7E72424A9
:10FCD80000687E7F49436620002B2FFCFC2F2B00F9
:10FCE80000FFFF09092FF6F8A040C088FE7F09032E
:10FCF80002207454557D79400000447D7D41000008
:10FD0800003078484A7A320000387840427A7A409F
:10FD1800007A7A0A0A7A7000007D7D19317D7D00AB
:10FD28000000262F292F2F280000262F292F2600F4
:10FD38000030784D45602000003838080808080071
:10FD48000008080808383800004F6F3018CCEEBBA0
:10FD5800914F6F30186C76FBF90000007B7B000038
:10FD680000081C3622081C362222361C0822361CA3
:10FD780008AA005500AA005500AA55AA55AA55AACE
:10FD880055DDFFAA77DDAAFF77000000FFFF00001E
:10FD980000101010FFFF000000141414FFFF0000F3
:10FDA800001010FFFF00FFFF001010F0F010F0F03F
:10FDB80000141414FCFC0000001414F7F700FFFFF3
:10FDC800000000FFFF00FFFF001414F4F404FCFC23
:10FDD8000014141717101F1F0010101F1F101F1FCB
:10FDE800001414141F1F000000101010F0F0000081
:10FDF800000000001F1F1010101010101F1F1010FF
:10FE080010101010F0F0101010000000FFFF10107C
:10FE1800101010101010101010101010FFFF1010FC
:10FE280010000000FFFF1414140000FFFF00FFFF84
:10FE38001000001F1F101717140000FCFC04F4F436
:10FE48001414141717101717141414F4F404F4F4F2
:10FE5800140000FFFF00F7F71414141414141414FA
:10FE6800141414F7F700F7F71414141417171414CC
:10FE78001410101F1F101F1F10141414F4F414145E
:10FE8800141010F0F010F0F01000001F1F101F1FCA
:10FE9800100000001F1F141414000000FCFC1414B0
:10FEA800140000F0F010F0F0101010FFFF10FFFF2A
:10FEB80010141414FFFF1414141010101F1F000046
:10FEC80000000000F0F0101010FFFFFFFFFFFFFF21
:10FED800FFF0F0F0F0F0F0F0F0FFFFFFFF0000009F
:10FEE8000000000000FFFFFFFF0F0F0F0F0F0F0FA5
:10FEF8000F387C446C386C4400FCFE2A2A3E1400FF
:10FF0800007E7E020206060000027E7E027E7E02DF
:10FF18000063775D4963630000387C447C3C0404DB
:10FF28000080FE7E20203E1E000406027E7C060223
:10FF38000099BDE7E7BD9900001C3E6B496B3E1C6C
:10FF4800004C7E7301737E4C0030784A4F7D390037
:10FF580000183C243C3C243C1898FC643C3E273D5B
:10FF6800181C3E6B49490000007E7F01017F7E001E
:10FF7800002A2A2A2A2A2A000044445F5F444400AF
:10FF88000040515B4E4440000040444E5B514000ED
:10FF980000000000FEFF01070660E080FF7F000010
:10FFA8000008086B6B080800002436123624361245
:10FFB8000000060F090F06000000000018180000D6
:10FFC800000000001010000000103070C0FFFF019A
:10FFD80001001F1F011F1E000000191D171200003D
:10FFE8000000003C3C3C3C00000000000000000019
:08FFF80000414C41524D000094
:020000040020DA
:08000000FFFFFFFFFFFFFFFF00
:020000040030CA
:0E000000FF081F1EFF0981FF0FC00FE00F4019
:00000001FF
