:020000040000FA
:0400000043EF75F065
:10E9BE00D58E1200620ED36E000E9B6E12000001F9
:10E9CE00A151D76EA0C0D6FF1200000E5D6E000ED4
:10E9DE000001AC6F12001C0EBA6E3E0EBB6E000E26
:10E9EE00BC6E1200C00EC76E300EC66E000EC86E24
:10E9FE0012007C0ECB6E000ECC6E9E921D0ECA6E59
:10EA0E00CA84120003C0F8FF02C0F7FF01C0F6FF70
:10EA1E000800F5501200F2B417EF75F01AEF75F00A
:10EA2E00010E1BEF75F0000E12000A0EB86E900E5E
:10EA3E00AB6E240EAC6ECF0EAF6E000EB06E12002B
:10EA4E00016EC69E01C0C9FFC7A030EF75F032EF50
:10EA5E0075F02BEF75F0C950120052EC75F0E1EC29
:10EA6E0074F0F9EC74F0F2EC74F000EC75F063EC09
:10EA7E0075F01CEC75F0120000EE60F0500EEE6AB0
:10EA8E00E806FDE15F6A5E6A5D6A5C6A000EF86E1A
:10EA9E0000017AEF76F0000E896E000E8A6E2C0E53
:10EAAE008B6E92689368910E946E0A0E7F6E1F0E97
:10EABE007E6E7C68F19E12000B0ED76EDB0ED66E4C
:10EACE00D650D7CF01F0026A01C002F0016A0110E0
:10EADE000001A06F0250A16FF294940ED56E120039
:10EAEE00000EF2BE010E056E03C0F8FF02C0F7FF66
:10EAFE0001C0F6FFA68EA69CA684A688F29E550E91
:10EB0E00A76EAA0EA76EA68205B002D0F29E01D005
:10EB1E00F28E1200000E026E090EEFEC75F0010E71
:10EB2E00026E0A0EEFEC75F0070E026E0B0EEFEC96
:10EB3E0075F0010E026E0C0EEFEC75F0000E026E0B
:10EB4E000F0EEFEC75F01200000E426E000E416ECD
:10EB5E004150800FD96EDA6ADF6A414A422A42BEBC
:10EB6E00C2EF75F0425009E11F0E415CD8A0C2EF12
:10EB7E0075F0C4EF75F0AFEF75F059EC79F0120047
:10EB8E000001AC51D8B4CEEF75F0D0EF75F0EEEFCA
:10EB9E0075F05D50D8A4D6EF75F0D8EF75F0EEEFA6
:10EBAE0075F0AE515F18D8A4DFEF75F0E1EF75F098
:10EBBE00EEEF75F0AD515E18D8A4E8EF75F0EAEF00
:10EBCE0075F0EEEF75F0C1EC76F0010E5D6E120091
:10EBDE00056E025005C003F0046A03C004F0036A18
:10EBEE000310066E0450076E8B94000E096E000E15
:10EBFE00086E075027EC75F0065027EC75F0084AA2
:10EC0E00092A09BE14EF76F0095009E1040E085CDA
:10EC1E00D8A014EF76F016EF76F000EF76F08B8436
:10EC2E001200800E016E1F0E026E000E036E000E9D
:10EC3E00046E09EC75F05F6E810E016E1F0E026E92
:10EC4E00000E036E000E046E09EC75F05E6E170E6C
:10EC5E005F6434EF76F036EF76F038EF76F0000E34
:10EC6E005F6E3B0E5E643EEF76F040EF76F042EF65
:10EC7E0076F0000E5E6E1200800E546E1F0E556EF4
:10EC8E00000E566E000E576E000E586E5850140F32
:10EC9E00D96EDA6A58505424016E000E5520026E59
:10ECAE00000E5620036E000E5720046E09EC75F010
:10ECBE00DF6E582A3F0E586467EF76F069EF76F0F4
:10ECCE004DEF76F05FC014F05EC015F054C006F044
:10ECDE0055C007F056C008F057C009F0140E0A6E62
:10ECEE00E4EC78F0120034EC75F091EC75F0ABECCE
:10ECFE0075F018EC76F0DFEC74F012EC75F000099C
:10ED0E00D8B48CEF76F08EEF76F0B7EF76F0C8ECE5
:10ED1E0077F00001AF2B3B0EAF6598EF76F09AEFD0
:10ED2E0076F0B2EF76F0000EAF6F5E2A3B0E5E64A9
:10ED3E00A3EF76F0A5EF76F0B2EF76F0000E5E6EF2
:10ED4E005F2A170E5F64AEEF76F0B0EF76F0B2EF9B
:10ED5E0076F0000E5F6EE6EC74F0F294DFEC74F079
:10ED6E00C8EC77F0B3EC7AF0C7EC75F084EF76F080
:10ED7E0000EF00F0000E596E3C0E586E000E5B6EEA
:10ED8E00000E5A6E0AEF77F081B4D0EF76F0D2EF24
:10ED9E0076F0EAEF76F0020E576E040E566EBA0E4D
:10EDAE00E82EFED7562EFCD7572EFAD700F000F0DD
:10EDBE0081B4E4EF76F0E6EF76F0EAEF76F0ABECC6
:10EDCE0075F015EF77F0F90E416EFF0E426EF0EC16
:10EDDE0079F0060E576E130E566EAE0EE82EFED757
:10EDEE00562EFCD7572EFAD7ABEC75F0060E576E93
:10EDFE00130E566EAE0EE82EFED7562EFCD7572E9D
:10EE0E00FAD75A4A5B2A58505A5C59505B58D8A0C8
:10EE1E0013EF77F015EF77F0CBEF76F01200000ED0
:10EE2E00066E02BE1FEF77F01DEF77F025EF77F03D
:10EE3E00016C021ED8B0022A010E066E04BE2CEF23
:10EE4E0077F02AEF77F030EF77F0036C041ED8B02E
:10EE5E00042A03500410D8B437EF77F039EF77F067
:10EE6E005DEF77F0010E056E41EF77F0D890033627
:10EE7E000436052A04AE46EF77F048EF77F03DEF03
:10EE8E0077F00350015C04500258D8A051EF77F090
:10EE9E0053EF77F057EF77F00350015E0450025AAC
:10EEAE00D89004320332052E48EF77F00650D8B4CE
:10EEBE0063EF77F065EF77F069EF77F0016C021E84
:10EECE00D8B0022A01C001F002C002F01200AEC09A
:10EEDE0001F0026A000E046E0A0E036E82EC78F0E8
:10EEEE000150300F0001B56FAEC001F0026A000E86
:10EEFE00046E0A0E036E16EC77F00150300F00010F
:10EF0E00B66FADC001F0026A000E046E0A0E036EFB
:10EF1E0082EC78F00150300F0001B76FADC001F0F8
:10EF2E00026A000E046E0A0E036E16EC77F00150A4
:10EF3E00300F0001B86F000EB96F000EBB6F000EE0
:10EF4E00BA6FBA51B50FD96EDA6ABA51B00FE16E17
:10EF5E00E26ADFCFE7FFBA4BBB2BBBBFC0EF77F048
:10EF6E00BB5109E1050EBA5DD8A0C0EF77F0C2EF34
:10EF7E0077F0A8EF77F0B00E416E426AF0EC79F0C0
:10EF8E0012005FC001F0026A000E046E0A0E036EDC
:10EF9E0082EC78F00150300F0001B56F5FC001F0C8
:10EFAE00026A000E046E0A0E036E16EC77F0015024
:10EFBE00300F0001B66F5EC001F0026A000E046EE3
:10EFCE000A0E036E82EC78F00150300F0001B76F1D
:10EFDE005EC001F0026A000E046E0A0E036E16EC9D
:10EFEE0077F00150300F0001B86F000EB96F000EB0
:10EFFE00BB6F000EBA6FBA51B50FD96EDA6ABA513D
:10F00E00B00FE16EE26ADFCFE7FFBA4BBB2BBBBF9F
:10F01E001AEF78F0BB5109E1050EBA5DD8A01AEFD0
:10F02E0078F01CEF78F002EF78F0B00E416E426A85
:10F03E00F0EC79F01200FF0E0924016EFF0E0A208B
:10F04E00026E000E046E080E036E82EC78F001C0A4
:10F05E0010F002C011F010C00CF011C00DF0D890DD
:10F06E000C360D36D8900C360D36D8900C360D3633
:10F07E000CC00EF00DC00FF08B94000E136E000E30
:10F08E00126E1050121807E111501318D8A452EF37
:10F09E0078F054EF78F06AEF78F00E50095C0C6E51
:10F0AE000F500A580D6E0CC00DF00C6A0B500C1060
:10F0BE00146E0D50156E155027EC75F0145027EC8C
:10F0CE0075F070EF78F0000E27EC75F0000E27EC5F
:10F0DE0075F0124A132A13BE7EEF78F0135009E131
:10F0EE00040E125CD8A07EEF78F080EF78F048EF37
:10F0FE0078F08B841200000E066E04BE8BEF78F053
:10F10E0089EF78F091EF78F0036C041ED8B0042AE2
:10F11E00010E066E02BE98EF78F096EF78F09EEF35
:10F12E0078F0016C021ED8B0022A010E061A000EEB
:10F13E00086E000E076E03500410D8B4A9EF78F0D5
:10F14E00ABEF78F0D3EF78F0010E056EB3EF78F0F9
:10F15E00D89003360436052A04AEB8EF78F0BAEF2D
:10F16E0078F0AFEF78F0D890073608360350015C90
:10F17E0004500258D8A0C6EF78F0C8EF78F0CDEF63
:10F18E0078F00350015E0450025A0780D890043282
:10F19E000332052EBAEF78F00650D8B4D9EF78F0D6
:10F1AE00DBEF78F0DFEF78F0076C081ED8B0082A96
:10F1BE0007C001F008C002F01200C00E06140B6E5C
:10F1CE00FF0E07140C6E000E08140D6E000E0914BF
:10F1DE000E6E000EF2BE010E0F6E000E126E010EBE
:10F1EE00116E0B5006180FE10C5007180CE10D5064
:10F1FE00081809E10E500918D8B408EF79F00AEF93
:10F20E0079F00CEF79F058EF79F006C001F007C0F5
:10F21E0002F008C003F009C004F077EC75F008C0E6
:10F22E00F8FF07C0F7FF06C0F6FF000E106E4FEF97
:10F23E0079F0000E136E0A501224D96EDA6ADF507E
:10F24E00F56E3F0E1318D8A42FEF79F031EF79F049
:10F25E0034EF79F00C0036EF79F00D00122A132AF4
:10F26E003F0E13643DEF79F03FEF79F022EF79F026
:10F27E00A68EA69CA684F29E550EA76EAA0EA76E0B
:10F28E00A682A6940FB002D0F29E01D0F28E102A62
:10F29E001150105CD8A056EF79F058EF79F020EFAE
:10F2AE0079F0120020EE19F01F0EDE6AE806FDE27C
:10F2BE00000E406E000E3F6E3FC001F040C002F0E7
:10F2CE00000E046E080E036E82EC78F001C039F069
:10F2DE0002C03AF0000E3C6E000E3B6E3F50800FA7
:10F2EE00D96EDA6ADF50166E3BC017F0010E186E3B
:10F2FE00172A84EF79F0D8901836172E82EF79F00E
:10F30E00185016140009D8B48FEF79F091EF79F0F8
:10F31E00ABEF79F03950080D3F50F35C166E070EC7
:10F32E001626010E176E162A9FEF79F0D890173613
:10F33E00162E9DEF79F03950080DF350190F3B241E
:10F34E00D96EDA6A1750DF123B4A3C2A3CBEB9EF3F
:10F35E0079F03C5009E1080E3B5CD8A0B9EF79F08A
:10F36E00BBEF79F075EF79F03F4A402A40BEC9EF06
:10F37E0079F0405009E1200E3F5CD8A0C9EF79F03A
:10F38E00CBEF79F063EF79F0000E3E6E010E3D6E1D
:10F39E003DC009F03EC00AF03DC016F0FF0E162625
:10F3AE001650190FD96EDA6ADF500B6E22EC78F018
:10F3BE003D4A3E2A3EBEEDEF79F03E5009E1210E68
:10F3CE003D5CD8A0EDEF79F0EFEF79F0CFEF79F06B
:10F3DE001200000E4F6E000E4E6E000E536E1F0E7C
:10F3EE00526E91EF7AF0000E4C6E000E4B6E000EC8
:10F3FE00516E000E506E000E4D6E000E556E070EC5
:10F40E00546E4E504124436E4F504220446E43C0C2
:10F41E00F6FF44C0F7FF000EF86E0F0EF76403D030
:10F42E000800F55005D0F6CFE1FFF7CFE2FFE75029
:10F43E00456E4550080DF90EF324466EF70EF42076
:10F44E00476E4B5046264C50472246C0F6FF47C0EB
:10F45E00F7FF0800F5CF48F054C049F0010E4A6E90
:10F46E00492A3CEF7AF0D8904A36492E3AEF7AF094
:10F47E004A5048140009D8B447EF7AF049EF7AF0B1
:10F48E0058EF7AF054500708436E010E446E432A2B
:10F49E0053EF7AF0D8904436432E51EF7AF0445021
:10F4AE004D125406D8A0550655BE62EF7AF060EFA5
:10F4BE007AF008EF7AF053BE69EF7AF067EF7AF0E0
:10F4CE006BEF7AF086EF7AF05250800FD96EDA6ACF
:10F4DE004DC0DFFF5206D8A053064B4A4C2A504A65
:10F4EE00512A51BE84EF7AF0515009E1080E505C5A
:10F4FE00D8A084EF7AF086EF7AF002EF7AF04E4AD7
:10F50E004F2A53BE8FEF7AF08DEF7AF091EF7AF0AB
:10F51E00B0EF7AF04E504124436E4F504220446E6D
:10F52E0043C0F6FF44C0F7FF000EF86E0F0EF764EF
:10F53E0003D00800F55005D0F6CFE1FFF7CFE2FF7C
:10F54E00E7500009D8A4AEEF7AF0B0EF7AF0FAEFF8
:10F55E0079F059EC79F0120081B0B8EF7AF0BAEF89
:10F56E007AF0FAEF7AF0020E5A6E040E596EBA0E57
:10F57E00E82EFED7592EFCD75A2EFAD700F000F0FF
:10F58E0081B0CCEF7AF0CEEF7AF0FAEF7AF05C50F1
:10F59E00D8B4D4EF7AF0D6EF7AF0EAEF7AF0010E23
:10F5AE000001AE25016E026A000E0222000E046EEC
:10F5BE00180E036E16EC77F001500001AE6F6EEC74
:10F5CE0077F0FAEF7AF0010E5F24016E026A000EF8
:10F5DE000222000E046E180E036E16EC77F0015028
:10F5EE005F6EC8EC77F081B2FFEF7AF001EF7BF03F
:10F5FE0041EF7BF0020E5A6E040E596EBA0EE82ED3
:10F60E00FED7592EFCD75A2EFAD700F000F081B251
:10F61E0013EF7BF015EF7BF041EF7BF05C50D8B42D
:10F62E001BEF7BF01DEF7BF031EF7BF0010E000145
:10F63E00AD25016E026A000E0222000E046E3C0E13
:10F64E00036E16EC77F001500001AD6F6EEC77F0A3
:10F65E0041EF7BF0010E5E24016E026A000E022263
:10F66E00000E046E3C0E036E16EC77F001505E6ECB
:10F67E00C8EC77F081B446EF7BF048EF7BF0DCEF1F
:10F68E007BF0640E0001A227000EA323020E5A6E19
:10F69E00040E596EBA0EE82EFED7592EFCD75A2EEE
:10F6AE00FAD700F000F0B80E0001A25D0B0EA359C0
:10F6BE00D8A064EF7BF066EF7BF0D0EF7BF05D506F
:10F6CE00D8A46CEF7BF06EEF7BF0FBEF7BF0010EBE
:10F6DE005C6E6EEC77F0C0EF7BF081B079EF7BF073
:10F6EE007BEF7BF09AEF7BF0020E5A6E040E596E92
:10F6FE00BA0EE82EFED7592EFCD75A2EFAD700F0A6
:10F70E0000F0010E0001AE25016E026A000E02220B
:10F71E00000E046E180E036E16EC77F00150000109
:10F72E00AE6F6EEC77F081B29FEF7BF0A1EF7BF0C6
:10F73E00C0EF7BF0020E5A6E040E596EBA0EE82E12
:10F74E00FED7592EFCD75A2EFAD700F000F0010E34
:10F75E000001AD25016E026A000E0222000E046E3B
:10F76E003C0E036E16EC77F001500001AD6F70EF9A
:10F77E007BF081A4C5EF7BF0C7EF7BF074EF7BF0DD
:10F78E00000E5C6E010E0001AC6FC8EC77F0FBEF63
:10F79E007BF05D50D8B4D6EF7BF0D8EF7BF0FBEF6B
:10F7AE007BF0ECEC74F0FBEF7BF0B80E0001A25D89
:10F7BE000B0EA359D8B0E6EF7BF0E8EF7BF0F7EF36
:10F7CE007BF0A82B050EA819D8A4F0EF7BF0F2EF72
:10F7DE007BF0F7EF7BF043EC76F0000E0001A86FA4
:10F7EE00000EA36F000EA26F1200000000000000BA
:10F7FE000000007E8195B1B195817E7EFFEBCFCF6B
:10F80E00EBFF7E0E1F3F7E3F1F0E00081C3E7F3E0D
:10F81E001C080018BAFFFFFFBA180010B8FCFFFC56
:10F82E00B810000000183C3C180000FFFFE7C3C3EF
:10F83E00E7FFFF003C664242663C00FFC399BDBD38
:10F84E0099C3FF70F88888FD7F070F004E5FF1F1B6
:10F85E005F4E00C0E0FF7F05050707C0FF7F05056F
:10F86E00657F3F995A3CE7E73C5A997F3E3E1C1C08
:10F87E0008080008081C1C3E3E7F00002466FFFF9F
:10F88E00662400005F5F00005F5F00060F097F7F48
:10F89E00017F7F40DABFA5FD5903020070707070C2
:10F8AE007070008094B6FFFFB694800004067F7FD0
:10F8BE000604000010307F7F3010000808082A3E32
:10F8CE001C0800081C3E2A080808003C3C2020208A
:10F8DE00202000081C3E08083E1C0830383C3E3EE6
:10F8EE003C3830060E1E3E3E1E0E06000000000086
:10F8FE0000000000065F5F0600000000070700071B
:10F90E00070000147F7F147F7F1400242E6B6B3A48
:10F91E00120000466630180C666200307A4F5D3772
:10F92E007A48000407030000000000001C3E6341FB
:10F93E000000000041633E1C000000082A3E1C1C13
:10F94E003E2A0808083E3E080800000080E06000DD
:10F95E0000000008080808080800000000606000A9
:10F96E000000006030180C060301003E7F71594DF7
:10F97E007F3E0040427F7F40400000627359496FD6
:10F98E00660000226349497F360000181C16537F1B
:10F99E007F5000276745457D3900003C7E4B4979F5
:10F9AE00300000030371790F070000367F49497F4D
:10F9BE00360000064F49693F1E00000000666600D3
:10F9CE000000000080E66600000000081C3663415F
:10F9DE000000002424242424240000004163361C4B
:10F9EE00080000020351590F0600003E7F415D5D85
:10F9FE001F1E007C7E13137E7C0000417F7F4949D1
:10FA0E007F36001C3E634141632200417F7F41638C
:10FA1E003E1C00417F7F495D416300417F7F491D50
:10FA2E000103001C3E6341517372007F7F08087F03
:10FA3E007F000000417F7F41000000307040417F19
:10FA4E003F0100417F7F081C776300417F7F41406B
:10FA5E00607000007F0E1C0E7F00007F7F060C186A
:10FA6E007F7F001C3E6341633E1C00417F7F49093E
:10FA7E000F06001E3F21717F5E0000417F7F091936
:10FA8E007F6600266F4D597332000003417F7F4120
:10FA9E000300007F7F40407F7F00001F3F60603F7C
:10FAAE001F00007F7F3018307F7F0043673C183C7B
:10FABE00674300074F78784F070000476371594D31
:10FACE00677300007F7F41410000000103060C18A0
:10FADE003060000041417F7F000000080C060306E5
:10FAEE000C080080808080808080800000030704E6
:10FAFE00000000207454543C784000417F3F484839
:10FB0E00783000387C44446C280000307848493FF7
:10FB1E007F4000387C54545C180000487E7F4903B7
:10FB2E0002000098BCA4A4F87C0400417F7F080466
:10FB3E007C780000447D7D4000000060E08080FD08
:10FB4E007D0000417F7F10386C440000417F7F4074
:10FB5E000000007C7C18381C7C78007C7C04047CC3
:10FB6E00780000387C44447C38000084FCF8A424DF
:10FB7E003C1800183C24A4F8FC8400447C784C0407
:10FB8E001C1800485C54547424000000043E7F444A
:10FB9E002400003C7C40403C7C40001C3C60603CAF
:10FBAE001C00003C7C7038707C3C00446C38103873
:10FBBE006C44009CBCA0A0FC7C00004C64745C4CAB
:10FBCE0064000008083E774141000000000077778E
:10FBDE000000004141773E080800000203010302C5
:10FBEE0003010070784C464C7870000E9F91B1FB6B
:10FBFE004A00003A7A40407A7A4000387C54555D8B
:10FC0E0019000002237555557D7B42217554547D94
:10FC1E00794000217555547C784000207457577CEC
:10FC2E00784000183CA4A4E4400000023B7D5555EA
:10FC3E005D1B02397D54545D190000397D55545CAD
:10FC4E0018000001457C7C410100000203457D7DCA
:10FC5E0043020001457D7C40000000797D1612169E
:10FC6E007D790070782B2B78700000447C7C555584
:10FC7E00450000207454547C7C54547C7E0B097FC8
:10FC8E007F4900327B49497B320000327A48487AFC
:10FC9E00320000327A4A48783000003A7B41417B8C
:10FCAE007A40003A7A4240787840009ABAA0A0FA98
:10FCBE007A000001193C66663C19013D7D40407D8D
:10FCCE003D0000183C24E7E7242400687E7F49436A
:10FCDE006620002B2FFCFC2F2B0000FFFF09092FA5
:10FCEE00F6F8A040C088FE7F090302207454557DAB
:10FCFE0079400000447D7D410000003078484A7A0A
:10FD0E00320000387840427A7A40007A7A0A0A7ACB
:10FD1E007000007D7D19317D7D000000262F292F7A
:10FD2E002F280000262F292F26000030784D456001
:10FD3E0020000038380808080800000808080838AD
:10FD4E003800004F6F3018CCEEBB914F6F30186CEF
:10FD5E0076FBF90000007B7B000000081C362208B1
:10FD6E001C362222361C0822361C08AA005500AA70
:10FD7E00005500AA55AA55AA55AA55DDFFAA77DD4A
:10FD8E00AAFF77000000FFFF000000101010FFFF19
:10FD9E00000000141414FFFF0000001010FFFF00FD
:10FDAE00FFFF001010F0F010F0F000141414FCFC23
:10FDBE000000001414F7F700FFFF000000FFFF0023
:10FDCE00FFFF001414F4F404FCFC001414171710B5
:10FDDE001F1F0010101F1F101F1F001414141F1FB1
:10FDEE00000000101010F0F00000000000001F1FB7
:10FDFE001010101010101F1F101010101010F0F017
:10FE0E00101010000000FFFF101010101010101036
:10FE1E00101010101010FFFF101010000000FFFF48
:10FE2E001414140000FFFF00FFFF1000001F1F102E
:10FE3E001717140000FCFC04F4F414141417171014
:10FE4E001717141414F4F404F4F4140000FFFF0054
:10FE5E00F7F71414141414141414141414F7F700DC
:10FE6E00F7F714141414171714141410101F1F106E
:10FE7E001F1F10141414F4F41414141010F0F010B6
:10FE8E00F0F01000001F1F101F1F100000001F1F9A
:10FE9E00141414000000FCFC1414140000F0F010F4
:10FEAE00F0F0101010FFFF10FFFF10141414FFFFDE
:10FEBE001414141010101F1F000000000000F0F0AA
:10FECE00101010FFFFFFFFFFFFFFFFF0F0F0F0F04C
:10FEDE00F0F0F0FFFFFFFF0000000000000000FF49
:10FEEE00FFFFFF0F0F0F0F0F0F0F0F387C446C38F3
:10FEFE006C4400FCFE2A2A3E1400007E7E0202069E
:10FF0E00060000027E7E027E7E020063775D4963FC
:10FF1E00630000387C447C3C04040080FE7E20207C
:10FF2E003E1E000406027E7C06020099BDE7E7BD78
:10FF3E009900001C3E6B496B3E1C004C7E73017396
:10FF4E007E4C0030784A4F7D390000183C243C3CF2
:10FF5E00243C1898FC643C3E273D181C3E6B4949D6
:10FF6E000000007E7F01017F7E00002A2A2A2A2AB5
:10FF7E002A000044445F5F4444000040515B4E44FD
:10FF8E0040000040444E5B51400000000000FEFF68
:10FF9E0001070660E080FF7F00000008086B6B0819
:10FFAE00080000243612362436120000060F090F00
:10FFBE0006000000000018180000000000001010DD
:10FFCE00000000103070C0FFFF0101001F1F011F55
:10FFDE001E000000191D171200000000003C3C3CE2
:10FFEE003C00000000000000000000414C41524D5A
:02FFFE00000001
:020000040020DA
:08000000FFFFFFFFFFFFFFFF00
:020000040030CA
:0E000000FF081F1EFF0981FF0FC00FE00F4019
:00000001FF
